{"contracts/14/ERC721A.sol":{"ERC721A_14":{"abi":[{"inputs":[],"stateMutability":"nonpayable","type":"constructor"},{"inputs":[],"name":"ApprovalCallerNotOwnerNorApproved","type":"error"},{"inputs":[],"name":"ApprovalQueryForNonexistentToken","type":"error"},{"inputs":[],"name":"BalanceQueryForZeroAddress","type":"error"},{"inputs":[],"name":"MintERC2309QuantityExceedsLimit","type":"error"},{"inputs":[],"name":"MintToZeroAddress","type":"error"},{"inputs":[],"name":"MintZeroQuantity","type":"error"},{"inputs":[],"name":"NotCompatibleWithSpotMints","type":"error"},{"inputs":[],"name":"OwnerQueryForNonexistentToken","type":"error"},{"inputs":[],"name":"OwnershipNotInitializedForExtraData","type":"error"},{"inputs":[],"name":"SequentialMintExceedsLimit","type":"error"},{"inputs":[],"name":"SequentialUpToTooSmall","type":"error"},{"inputs":[],"name":"SpotMintTokenIdTooSmall","type":"error"},{"inputs":[],"name":"TokenAlreadyExists","type":"error"},{"inputs":[],"name":"TransferCallerNotOwnerNorApproved","type":"error"},{"inputs":[],"name":"TransferFromIncorrectOwner","type":"error"},{"inputs":[],"name":"TransferToNonERC721ReceiverImplementer","type":"error"},{"inputs":[],"name":"TransferToZeroAddress","type":"error"},{"inputs":[],"name":"URIQueryForNonexistentToken","type":"error"},{"anonymous":false,"inputs":[{"indexed":true,"internalType":"address","name":"owner","type":"address"},{"indexed":true,"internalType":"address","name":"approved","type":"address"},{"indexed":true,"internalType":"uint256","name":"tokenId","type":"uint256"}],"name":"Approval","type":"event"},{"anonymous":false,"inputs":[{"indexed":true,"internalType":"address","name":"owner","type":"address"},{"indexed":true,"internalType":"address","name":"operator","type":"address"},{"indexed":false,"internalType":"bool","name":"approved","type":"bool"}],"name":"ApprovalForAll","type":"event"},{"anonymous":false,"inputs":[{"indexed":true,"internalType":"uint256","name":"fromTokenId","type":"uint256"},{"indexed":false,"internalType":"uint256","name":"toTokenId","type":"uint256"},{"indexed":true,"internalType":"address","name":"from","type":"address"},{"indexed":true,"internalType":"address","name":"to","type":"address"}],"name":"ConsecutiveTransfer","type":"event"},{"anonymous":false,"inputs":[{"indexed":true,"internalType":"address","name":"from","type":"address"},{"indexed":true,"internalType":"address","name":"to","type":"address"},{"indexed":true,"internalType":"uint256","name":"tokenId","type":"uint256"}],"name":"Transfer","type":"event"},{"inputs":[{"internalType":"address","name":"to","type":"address"},{"internalType":"uint256","name":"tokenId","type":"uint256"}],"name":"approve","outputs":[],"stateMutability":"payable","type":"function"},{"inputs":[{"internalType":"address","name":"owner","type":"address"}],"name":"balanceOf","outputs":[{"internalType":"uint256","name":"","type":"uint256"}],"stateMutability":"view","type":"function"},{"inputs":[{"internalType":"uint256","name":"tokenId","type":"uint256"}],"name":"getApproved","outputs":[{"internalType":"address","name":"","type":"address"}],"stateMutability":"view","type":"function"},{"inputs":[{"internalType":"address","name":"owner","type":"address"},{"internalType":"address","name":"operator","type":"address"}],"name":"isApprovedForAll","outputs":[{"internalType":"bool","name":"","type":"bool"}],"stateMutability":"view","type":"function"},{"inputs":[{"internalType":"uint256","name":"quantity","type":"uint256"}],"name":"mint","outputs":[],"stateMutability":"payable","type":"function"},{"inputs":[],"name":"name","outputs":[{"internalType":"string","name":"","type":"string"}],"stateMutability":"view","type":"function"},{"inputs":[{"internalType":"uint256","name":"tokenId","type":"uint256"}],"name":"ownerOf","outputs":[{"internalType":"address","name":"","type":"address"}],"stateMutability":"view","type":"function"},{"inputs":[{"internalType":"address","name":"from","type":"address"},{"internalType":"address","name":"to","type":"address"},{"internalType":"uint256","name":"tokenId","type":"uint256"}],"name":"safeTransferFrom","outputs":[],"stateMutability":"payable","type":"function"},{"inputs":[{"internalType":"address","name":"from","type":"address"},{"internalType":"address","name":"to","type":"address"},{"internalType":"uint256","name":"tokenId","type":"uint256"},{"internalType":"bytes","name":"_data","type":"bytes"}],"name":"safeTransferFrom","outputs":[],"stateMutability":"payable","type":"function"},{"inputs":[{"internalType":"address","name":"operator","type":"address"},{"internalType":"bool","name":"approved","type":"bool"}],"name":"setApprovalForAll","outputs":[],"stateMutability":"nonpayable","type":"function"},{"inputs":[{"internalType":"bytes4","name":"interfaceId","type":"bytes4"}],"name":"supportsInterface","outputs":[{"internalType":"bool","name":"","type":"bool"}],"stateMutability":"view","type":"function"},{"inputs":[],"name":"symbol","outputs":[{"internalType":"string","name":"","type":"string"}],"stateMutability":"view","type":"function"},{"inputs":[{"internalType":"uint256","name":"tokenId","type":"uint256"}],"name":"tokenURI","outputs":[{"internalType":"string","name":"","type":"string"}],"stateMutability":"view","type":"function"},{"inputs":[],"name":"totalSupply","outputs":[{"internalType":"uint256","name":"result","type":"uint256"}],"stateMutability":"view","type":"function"},{"inputs":[{"internalType":"address","name":"from","type":"address"},{"internalType":"address","name":"to","type":"address"},{"internalType":"uint256","name":"tokenId","type":"uint256"}],"name":"transferFrom","outputs":[],"stateMutability":"payable","type":"function"}],"evm":{"bytecode":{"linkReferences":{},"object":"60806040523480156200001157600080fd5b506040518060400160405280600981526020017f4d794552433732314100000000000000000000000000000000000000000000008152506040518060400160405280600681526020017f4d594e465441000000000000000000000000000000000000000000000000000081525081600290816200008f9190620003b1565b508060039081620000a19190620003b1565b50620000b26200010060201b60201c565b600081905550620000c86200010060201b60201c565b620000d86200010560201b60201c565b1015620000f857620000f763fed8210f60e01b6200012d60201b60201c565b5b505062000498565b600090565b60007fffffffffffffffffffffffffffffffffffffffffffffffffffffffffffffffff905090565b8060005260046000fd5b600081519050919050565b7f4e487b7100000000000000000000000000000000000000000000000000000000600052604160045260246000fd5b7f4e487b7100000000000000000000000000000000000000000000000000000000600052602260045260246000fd5b60006002820490506001821680620001b957607f821691505b602082108103620001cf57620001ce62000171565b5b50919050565b60008190508160005260206000209050919050565b60006020601f8301049050919050565b600082821b905092915050565b600060088302620002397fffffffffffffffffffffffffffffffffffffffffffffffffffffffffffffffff82620001fa565b620002458683620001fa565b95508019841693508086168417925050509392505050565b6000819050919050565b6000819050919050565b6000620002926200028c62000286846200025d565b62000267565b6200025d565b9050919050565b6000819050919050565b620002ae8362000271565b620002c6620002bd8262000299565b84845462000207565b825550505050565b600090565b620002dd620002ce565b620002ea818484620002a3565b505050565b5b81811015620003125762000306600082620002d3565b600181019050620002f0565b5050565b601f82111562000361576200032b81620001d5565b6200033684620001ea565b8101602085101562000346578190505b6200035e6200035585620001ea565b830182620002ef565b50505b505050565b600082821c905092915050565b6000620003866000198460080262000366565b1980831691505092915050565b6000620003a1838362000373565b9150826002028217905092915050565b620003bc8262000137565b67ffffffffffffffff811115620003d857620003d762000142565b5b620003e48254620001a0565b620003f182828562000316565b600060209050601f83116001811462000429576000841562000414578287015190505b62000420858262000393565b86555062000490565b601f1984166200043986620001d5565b60005b8281101562000463578489015182556001820191506020850194506020810190506200043c565b868310156200048357848901516200047f601f89168262000373565b8355505b6001600288020188555050505b505050505050565b611b6580620004a86000396000f3fe6080604052600436106100e85760003560e01c80636352211e1161008a578063a22cb46511610059578063a22cb465146102d2578063b88d4fde146102fb578063c87b56dd14610317578063e985e9c514610354576100e8565b80636352211e1461021157806370a082311461024e57806395d89b411461028b578063a0712d68146102b6576100e8565b8063095ea7b3116100c6578063095ea7b31461019257806318160ddd146101ae57806323b872dd146101d957806342842e0e146101f5576100e8565b806301ffc9a7146100ed57806306fdde031461012a578063081812fc14610155575b600080fd5b3480156100f957600080fd5b50610114600480360381019061010f91906113e6565b610391565b604051610121919061142e565b60405180910390f35b34801561013657600080fd5b5061013f610423565b60405161014c91906114d9565b60405180910390f35b34801561016157600080fd5b5061017c60048036038101906101779190611531565b6104b5565b604051610189919061159f565b60405180910390f35b6101ac60048036038101906101a791906115e6565b610513565b005b3480156101ba57600080fd5b506101c3610523565b6040516101d09190611635565b60405180910390f35b6101f360048036038101906101ee9190611650565b610570565b005b61020f600480360381019061020a9190611650565b610831565b005b34801561021d57600080fd5b5061023860048036038101906102339190611531565b610851565b604051610245919061159f565b60405180910390f35b34801561025a57600080fd5b50610275600480360381019061027091906116a3565b610863565b6040516102829190611635565b60405180910390f35b34801561029757600080fd5b506102a06108fa565b6040516102ad91906114d9565b60405180910390f35b6102d060048036038101906102cb9190611531565b61098c565b005b3480156102de57600080fd5b506102f960048036038101906102f491906116fc565b610999565b005b61031560048036038101906103109190611871565b610aa4565b005b34801561032357600080fd5b5061033e60048036038101906103399190611531565b610af6565b60405161034b91906114d9565b60405180910390f35b34801561036057600080fd5b5061037b600480360381019061037691906118f4565b610b73565b604051610388919061142e565b60405180910390f35b60006301ffc9a760e01b827bffffffffffffffffffffffffffffffffffffffffffffffffffffffff191614806103ec57506380ac58cd60e01b827bffffffffffffffffffffffffffffffffffffffffffffffffffffffff1916145b8061041c5750635b5e139f60e01b827bffffffffffffffffffffffffffffffffffffffffffffffffffffffff1916145b9050919050565b60606002805461043290611963565b80601f016020809104026020016040519081016040528092919081815260200182805461045e90611963565b80156104ab5780601f10610480576101008083540402835291602001916104ab565b820191906000526020600020905b81548152906001019060200180831161048e57829003601f168201915b5050505050905090565b60006104c082610c07565b6104d5576104d463cf4700e460e01b610cb3565b5b6006600083815260200190815260200160002060000160009054906101000a900473ffffffffffffffffffffffffffffffffffffffff169050919050565b61051f82826001610cbd565b5050565b600061052d610dec565b600154600054030390507fffffffffffffffffffffffffffffffffffffffffffffffffffffffffffffffff610560610df1565b1461056d57600854810190505b90565b600061057b82610e19565b905073ffffffffffffffffffffffffffffffffffffffff8473ffffffffffffffffffffffffffffffffffffffff161693508373ffffffffffffffffffffffffffffffffffffffff168173ffffffffffffffffffffffffffffffffffffffff16146105f0576105ef63a114810060e01b610cb3565b5b6000806105fc84610f32565b91509150610612818761060d610f59565b610f61565b61063d5761062786610622610f59565b610b73565b61063c5761063b6359c896be60e01b610cb3565b5b5b61064a8686866001610fa5565b801561065557600082555b600560008773ffffffffffffffffffffffffffffffffffffffff1673ffffffffffffffffffffffffffffffffffffffff168152602001908152602001600020600081546001900391905081905550600560008673ffffffffffffffffffffffffffffffffffffffff1673ffffffffffffffffffffffffffffffffffffffff1681526020019081526020016000206000815460010191905081905550610723856106ff888887610fab565b7c020000000000000000000000000000000000000000000000000000000017610fd3565b600460008681526020019081526020016000208190555060007c02000000000000000000000000000000000000000000000000000000008416036107a957600060018501905060006004600083815260200190815260200160002054036107a75760005481146107a6578360046000838152602001908152602001600020819055505b5b505b600073ffffffffffffffffffffffffffffffffffffffff8673ffffffffffffffffffffffffffffffffffffffff161690508481887fddf252ad1be2c89b69c2b068fc378daa952ba7f163c4a11628f55a4df523b3ef600080a46000810361081b5761081a63ea553b3460e01b610cb3565b5b6108288787876001610ffe565b50505050505050565b61084c83838360405180602001604052806000815250610aa4565b505050565b600061085c82610e19565b9050919050565b60008073ffffffffffffffffffffffffffffffffffffffff168273ffffffffffffffffffffffffffffffffffffffff16036108a9576108a8638f4eb60460e01b610cb3565b5b67ffffffffffffffff600560008473ffffffffffffffffffffffffffffffffffffffff1673ffffffffffffffffffffffffffffffffffffffff16815260200190815260200160002054169050919050565b60606003805461090990611963565b80601f016020809104026020016040519081016040528092919081815260200182805461093590611963565b80156109825780601f1061095757610100808354040283529160200191610982565b820191906000526020600020905b81548152906001019060200180831161096557829003601f168201915b5050505050905090565b6109963382611004565b50565b80600760006109a6610f59565b73ffffffffffffffffffffffffffffffffffffffff1673ffffffffffffffffffffffffffffffffffffffff16815260200190815260200160002060008473ffffffffffffffffffffffffffffffffffffffff1673ffffffffffffffffffffffffffffffffffffffff16815260200190815260200160002060006101000a81548160ff0219169083151502179055508173ffffffffffffffffffffffffffffffffffffffff16610a53610f59565b73ffffffffffffffffffffffffffffffffffffffff167f17307eab39ab6107e8899845ad3d59bd9653f200f220920489ca2b5937696c3183604051610a98919061142e565b60405180910390a35050565b610aaf848484610570565b60008373ffffffffffffffffffffffffffffffffffffffff163b14610af057610ada8484848461118a565b610aef57610aee63d1a57ed660e01b610cb3565b5b5b50505050565b6060610b0182610c07565b610b1657610b1563a14c4b5060e01b610cb3565b5b6000610b206112b9565b90506000815103610b405760405180602001604052806000815250610b6b565b80610b4a846112d0565b604051602001610b5b9291906119d0565b6040516020818303038152906040525b915050919050565b6000600760008473ffffffffffffffffffffffffffffffffffffffff1673ffffffffffffffffffffffffffffffffffffffff16815260200190815260200160002060008373ffffffffffffffffffffffffffffffffffffffff1673ffffffffffffffffffffffffffffffffffffffff16815260200190815260200160002060009054906101000a900460ff16905092915050565b600081610c12610dec565b11610cad57610c1f610df1565b821115610c4957610c426004600084815260200190815260200160002054611320565b9050610cae565b600054821015610cac5760005b6000600460008581526020019081526020016000205491508103610c855782610c7e90611a23565b9250610c56565b60007c01000000000000000000000000000000000000000000000000000000008216149150505b5b5b919050565b8060005260046000fd5b6000610cc883610851565b9050818015610d0a57508073ffffffffffffffffffffffffffffffffffffffff16610cf1610f59565b73ffffffffffffffffffffffffffffffffffffffff1614155b15610d3657610d2081610d1b610f59565b610b73565b610d3557610d3463cfb3b94260e01b610cb3565b5b5b836006600085815260200190815260200160002060000160006101000a81548173ffffffffffffffffffffffffffffffffffffffff021916908373ffffffffffffffffffffffffffffffffffffffff160217905550828473ffffffffffffffffffffffffffffffffffffffff168273ffffffffffffffffffffffffffffffffffffffff167f8c5be1e5ebec7d5bd14f71427d1e84f3dd0314c0f7b2291e5b200ac8c7c3b92560405160405180910390a450505050565b600090565b60007fffffffffffffffffffffffffffffffffffffffffffffffffffffffffffffffff905090565b600081610e24610dec565b11610f1c5760046000838152602001908152602001600020549050610e47610df1565b821115610e6c57610e5781611320565b610f2d57610e6b63df2d9b4260e01b610cb3565b5b60008103610ef3576000548210610e8e57610e8d63df2d9b4260e01b610cb3565b5b5b60046000836001900393508381526020019081526020016000205490506000810315610eee5760007c010000000000000000000000000000000000000000000000000000000082160315610f2d57610eed63df2d9b4260e01b610cb3565b5b610e8f565b60007c010000000000000000000000000000000000000000000000000000000082160315610f2d575b610f2c63df2d9b4260e01b610cb3565b5b919050565b60008060006006600085815260200190815260200160002090508092508254915050915091565b600033905090565b600073ffffffffffffffffffffffffffffffffffffffff8316925073ffffffffffffffffffffffffffffffffffffffff821691508382148383141790509392505050565b50505050565b60008060e883901c905060e8610fc2868684611361565b62ffffff16901b9150509392505050565b600073ffffffffffffffffffffffffffffffffffffffff83169250814260a01b178317905092915050565b50505050565b600080549050600082036110235761102263b562e8dd60e01b610cb3565b5b6110306000848385610fa5565b611050836110416000866000610fab565b61104a8561136a565b17610fd3565b6004600083815260200190815260200160002081905550600160406001901b178202600560008573ffffffffffffffffffffffffffffffffffffffff1673ffffffffffffffffffffffffffffffffffffffff16815260200190815260200160002060008282540192505081905550600073ffffffffffffffffffffffffffffffffffffffff8473ffffffffffffffffffffffffffffffffffffffff161690506000810361110857611107632e07630060e01b610cb3565b5b60008383019050600083905061111c610df1565b600183031115611137576111366381647e3a60e01b610cb3565b5b5b808360007fddf252ad1be2c89b69c2b068fc378daa952ba7f163c4a11628f55a4df523b3ef600080a481816001019150810361113857816000819055505050506111856000848385610ffe565b505050565b60008373ffffffffffffffffffffffffffffffffffffffff1663150b7a026111b0610f59565b8786866040518563ffffffff1660e01b81526004016111d29493929190611aa1565b6020604051808303816000875af192505050801561120e57506040513d601f19601f8201168201806040525081019061120b9190611b02565b60015b611266573d806000811461123e576040519150601f19603f3d011682016040523d82523d6000602084013e611243565b606091505b50600081510361125e5761125d63d1a57ed660e01b610cb3565b5b805181602001fd5b63150b7a0260e01b7bffffffffffffffffffffffffffffffffffffffffffffffffffffffff1916817bffffffffffffffffffffffffffffffffffffffffffffffffffffffff191614915050949350505050565b606060405180602001604052806000815250905090565b606060a060405101806040526020810391506000825281835b60011561130b57600184039350600a81066030018453600a81049050806112e9575b50828103602084039350808452505050919050565b60007c0100000000000000000000000000000000000000000000000000000000821673ffffffffffffffffffffffffffffffffffffffff8316119050919050565b60009392505050565b60006001821460e11b9050919050565b6000604051905090565b600080fd5b600080fd5b60007fffffffff0000000000000000000000000000000000000000000000000000000082169050919050565b6113c38161138e565b81146113ce57600080fd5b50565b6000813590506113e0816113ba565b92915050565b6000602082840312156113fc576113fb611384565b5b600061140a848285016113d1565b91505092915050565b60008115159050919050565b61142881611413565b82525050565b6000602082019050611443600083018461141f565b92915050565b600081519050919050565b600082825260208201905092915050565b60005b83811015611483578082015181840152602081019050611468565b60008484015250505050565b6000601f19601f8301169050919050565b60006114ab82611449565b6114b58185611454565b93506114c5818560208601611465565b6114ce8161148f565b840191505092915050565b600060208201905081810360008301526114f381846114a0565b905092915050565b6000819050919050565b61150e816114fb565b811461151957600080fd5b50565b60008135905061152b81611505565b92915050565b60006020828403121561154757611546611384565b5b60006115558482850161151c565b91505092915050565b600073ffffffffffffffffffffffffffffffffffffffff82169050919050565b60006115898261155e565b9050919050565b6115998161157e565b82525050565b60006020820190506115b46000830184611590565b92915050565b6115c38161157e565b81146115ce57600080fd5b50565b6000813590506115e0816115ba565b92915050565b600080604083850312156115fd576115fc611384565b5b600061160b858286016115d1565b925050602061161c8582860161151c565b9150509250929050565b61162f816114fb565b82525050565b600060208201905061164a6000830184611626565b92915050565b60008060006060848603121561166957611668611384565b5b6000611677868287016115d1565b9350506020611688868287016115d1565b92505060406116998682870161151c565b9150509250925092565b6000602082840312156116b9576116b8611384565b5b60006116c7848285016115d1565b91505092915050565b6116d981611413565b81146116e457600080fd5b50565b6000813590506116f6816116d0565b92915050565b6000806040838503121561171357611712611384565b5b6000611721858286016115d1565b9250506020611732858286016116e7565b9150509250929050565b600080fd5b600080fd5b7f4e487b7100000000000000000000000000000000000000000000000000000000600052604160045260246000fd5b61177e8261148f565b810181811067ffffffffffffffff8211171561179d5761179c611746565b5b80604052505050565b60006117b061137a565b90506117bc8282611775565b919050565b600067ffffffffffffffff8211156117dc576117db611746565b5b6117e58261148f565b9050602081019050919050565b82818337600083830152505050565b600061181461180f846117c1565b6117a6565b9050828152602081018484840111156118305761182f611741565b5b61183b8482856117f2565b509392505050565b600082601f8301126118585761185761173c565b5b8135611868848260208601611801565b91505092915050565b6000806000806080858703121561188b5761188a611384565b5b6000611899878288016115d1565b94505060206118aa878288016115d1565b93505060406118bb8782880161151c565b925050606085013567ffffffffffffffff8111156118dc576118db611389565b5b6118e887828801611843565b91505092959194509250565b6000806040838503121561190b5761190a611384565b5b6000611919858286016115d1565b925050602061192a858286016115d1565b9150509250929050565b7f4e487b7100000000000000000000000000000000000000000000000000000000600052602260045260246000fd5b6000600282049050600182168061197b57607f821691505b60208210810361198e5761198d611934565b5b50919050565b600081905092915050565b60006119aa82611449565b6119b48185611994565b93506119c4818560208601611465565b80840191505092915050565b60006119dc828561199f565b91506119e8828461199f565b91508190509392505050565b7f4e487b7100000000000000000000000000000000000000000000000000000000600052601160045260246000fd5b6000611a2e826114fb565b915060008203611a4157611a406119f4565b5b600182039050919050565b600081519050919050565b600082825260208201905092915050565b6000611a7382611a4c565b611a7d8185611a57565b9350611a8d818560208601611465565b611a968161148f565b840191505092915050565b6000608082019050611ab66000830187611590565b611ac36020830186611590565b611ad06040830185611626565b8181036060830152611ae28184611a68565b905095945050505050565b600081519050611afc816113ba565b92915050565b600060208284031215611b1857611b17611384565b5b6000611b2684828501611aed565b9150509291505056fea2646970667358221220133ac68d4e47118378e8d723839edc5625e8b2e6029e6753beb888de3465bee564736f6c63430008140033","opcodes":"PUSH1 0x80 PUSH1 0x40 MSTORE CALLVALUE DUP1 ISZERO PUSH3 0x11 JUMPI PUSH1 0x0 DUP1 REVERT JUMPDEST POP PUSH1 0x40 MLOAD DUP1 PUSH1 0x40 ADD PUSH1 0x40 MSTORE DUP1 PUSH1 0x9 DUP2 MSTORE PUSH1 0x20 ADD PUSH32 0x4D79455243373231410000000000000000000000000000000000000000000000 DUP2 MSTORE POP PUSH1 0x40 MLOAD DUP1 PUSH1 0x40 ADD PUSH1 0x40 MSTORE DUP1 PUSH1 0x6 DUP2 MSTORE PUSH1 0x20 ADD PUSH32 0x4D594E4654410000000000000000000000000000000000000000000000000000 DUP2 MSTORE POP DUP2 PUSH1 0x2 SWAP1 DUP2 PUSH3 0x8F SWAP2 SWAP1 PUSH3 0x3B1 JUMP JUMPDEST POP DUP1 PUSH1 0x3 SWAP1 DUP2 PUSH3 0xA1 SWAP2 SWAP1 PUSH3 0x3B1 JUMP JUMPDEST POP PUSH3 0xB2 PUSH3 0x100 PUSH1 0x20 SHL PUSH1 0x20 SHR JUMP JUMPDEST PUSH1 0x0 DUP2 SWAP1 SSTORE POP PUSH3 0xC8 PUSH3 0x100 PUSH1 0x20 SHL PUSH1 0x20 SHR JUMP JUMPDEST PUSH3 0xD8 PUSH3 0x105 PUSH1 0x20 SHL PUSH1 0x20 SHR JUMP JUMPDEST LT ISZERO PUSH3 0xF8 JUMPI PUSH3 0xF7 PUSH4 0xFED8210F PUSH1 0xE0 SHL PUSH3 0x12D PUSH1 0x20 SHL PUSH1 0x20 SHR JUMP JUMPDEST JUMPDEST POP POP PUSH3 0x498 JUMP JUMPDEST PUSH1 0x0 SWAP1 JUMP JUMPDEST PUSH1 0x0 PUSH32 0xFFFFFFFFFFFFFFFFFFFFFFFFFFFFFFFFFFFFFFFFFFFFFFFFFFFFFFFFFFFFFFFF SWAP1 POP SWAP1 JUMP JUMPDEST DUP1 PUSH1 0x0 MSTORE PUSH1 0x4 PUSH1 0x0 REVERT JUMPDEST PUSH1 0x0 DUP2 MLOAD SWAP1 POP SWAP2 SWAP1 POP JUMP JUMPDEST PUSH32 0x4E487B7100000000000000000000000000000000000000000000000000000000 PUSH1 0x0 MSTORE PUSH1 0x41 PUSH1 0x4 MSTORE PUSH1 0x24 PUSH1 0x0 REVERT JUMPDEST PUSH32 0x4E487B7100000000000000000000000000000000000000000000000000000000 PUSH1 0x0 MSTORE PUSH1 0x22 PUSH1 0x4 MSTORE PUSH1 0x24 PUSH1 0x0 REVERT JUMPDEST PUSH1 0x0 PUSH1 0x2 DUP3 DIV SWAP1 POP PUSH1 0x1 DUP3 AND DUP1 PUSH3 0x1B9 JUMPI PUSH1 0x7F DUP3 AND SWAP2 POP JUMPDEST PUSH1 0x20 DUP3 LT DUP2 SUB PUSH3 0x1CF JUMPI PUSH3 0x1CE PUSH3 0x171 JUMP JUMPDEST JUMPDEST POP SWAP2 SWAP1 POP JUMP JUMPDEST PUSH1 0x0 DUP2 SWAP1 POP DUP2 PUSH1 0x0 MSTORE PUSH1 0x20 PUSH1 0x0 KECCAK256 SWAP1 POP SWAP2 SWAP1 POP JUMP JUMPDEST PUSH1 0x0 PUSH1 0x20 PUSH1 0x1F DUP4 ADD DIV SWAP1 POP SWAP2 SWAP1 POP JUMP JUMPDEST PUSH1 0x0 DUP3 DUP3 SHL SWAP1 POP SWAP3 SWAP2 POP POP JUMP JUMPDEST PUSH1 0x0 PUSH1 0x8 DUP4 MUL PUSH3 0x239 PUSH32 0xFFFFFFFFFFFFFFFFFFFFFFFFFFFFFFFFFFFFFFFFFFFFFFFFFFFFFFFFFFFFFFFF DUP3 PUSH3 0x1FA JUMP JUMPDEST PUSH3 0x245 DUP7 DUP4 PUSH3 0x1FA JUMP JUMPDEST SWAP6 POP DUP1 NOT DUP5 AND SWAP4 POP DUP1 DUP7 AND DUP5 OR SWAP3 POP POP POP SWAP4 SWAP3 POP POP POP JUMP JUMPDEST PUSH1 0x0 DUP2 SWAP1 POP SWAP2 SWAP1 POP JUMP JUMPDEST PUSH1 0x0 DUP2 SWAP1 POP SWAP2 SWAP1 POP JUMP JUMPDEST PUSH1 0x0 PUSH3 0x292 PUSH3 0x28C PUSH3 0x286 DUP5 PUSH3 0x25D JUMP JUMPDEST PUSH3 0x267 JUMP JUMPDEST PUSH3 0x25D JUMP JUMPDEST SWAP1 POP SWAP2 SWAP1 POP JUMP JUMPDEST PUSH1 0x0 DUP2 SWAP1 POP SWAP2 SWAP1 POP JUMP JUMPDEST PUSH3 0x2AE DUP4 PUSH3 0x271 JUMP JUMPDEST PUSH3 0x2C6 PUSH3 0x2BD DUP3 PUSH3 0x299 JUMP JUMPDEST DUP5 DUP5 SLOAD PUSH3 0x207 JUMP JUMPDEST DUP3 SSTORE POP POP POP POP JUMP JUMPDEST PUSH1 0x0 SWAP1 JUMP JUMPDEST PUSH3 0x2DD PUSH3 0x2CE JUMP JUMPDEST PUSH3 0x2EA DUP2 DUP5 DUP5 PUSH3 0x2A3 JUMP JUMPDEST POP POP POP JUMP JUMPDEST JUMPDEST DUP2 DUP2 LT ISZERO PUSH3 0x312 JUMPI PUSH3 0x306 PUSH1 0x0 DUP3 PUSH3 0x2D3 JUMP JUMPDEST PUSH1 0x1 DUP2 ADD SWAP1 POP PUSH3 0x2F0 JUMP JUMPDEST POP POP JUMP JUMPDEST PUSH1 0x1F DUP3 GT ISZERO PUSH3 0x361 JUMPI PUSH3 0x32B DUP2 PUSH3 0x1D5 JUMP JUMPDEST PUSH3 0x336 DUP5 PUSH3 0x1EA JUMP JUMPDEST DUP2 ADD PUSH1 0x20 DUP6 LT ISZERO PUSH3 0x346 JUMPI DUP2 SWAP1 POP JUMPDEST PUSH3 0x35E PUSH3 0x355 DUP6 PUSH3 0x1EA JUMP JUMPDEST DUP4 ADD DUP3 PUSH3 0x2EF JUMP JUMPDEST POP POP JUMPDEST POP POP POP JUMP JUMPDEST PUSH1 0x0 DUP3 DUP3 SHR SWAP1 POP SWAP3 SWAP2 POP POP JUMP JUMPDEST PUSH1 0x0 PUSH3 0x386 PUSH1 0x0 NOT DUP5 PUSH1 0x8 MUL PUSH3 0x366 JUMP JUMPDEST NOT DUP1 DUP4 AND SWAP2 POP POP SWAP3 SWAP2 POP POP JUMP JUMPDEST PUSH1 0x0 PUSH3 0x3A1 DUP4 DUP4 PUSH3 0x373 JUMP JUMPDEST SWAP2 POP DUP3 PUSH1 0x2 MUL DUP3 OR SWAP1 POP SWAP3 SWAP2 POP POP JUMP JUMPDEST PUSH3 0x3BC DUP3 PUSH3 0x137 JUMP JUMPDEST PUSH8 0xFFFFFFFFFFFFFFFF DUP2 GT ISZERO PUSH3 0x3D8 JUMPI PUSH3 0x3D7 PUSH3 0x142 JUMP JUMPDEST JUMPDEST PUSH3 0x3E4 DUP3 SLOAD PUSH3 0x1A0 JUMP JUMPDEST PUSH3 0x3F1 DUP3 DUP3 DUP6 PUSH3 0x316 JUMP JUMPDEST PUSH1 0x0 PUSH1 0x20 SWAP1 POP PUSH1 0x1F DUP4 GT PUSH1 0x1 DUP2 EQ PUSH3 0x429 JUMPI PUSH1 0x0 DUP5 ISZERO PUSH3 0x414 JUMPI DUP3 DUP8 ADD MLOAD SWAP1 POP JUMPDEST PUSH3 0x420 DUP6 DUP3 PUSH3 0x393 JUMP JUMPDEST DUP7 SSTORE POP PUSH3 0x490 JUMP JUMPDEST PUSH1 0x1F NOT DUP5 AND PUSH3 0x439 DUP7 PUSH3 0x1D5 JUMP JUMPDEST PUSH1 0x0 JUMPDEST DUP3 DUP2 LT ISZERO PUSH3 0x463 JUMPI DUP5 DUP10 ADD MLOAD DUP3 SSTORE PUSH1 0x1 DUP3 ADD SWAP2 POP PUSH1 0x20 DUP6 ADD SWAP5 POP PUSH1 0x20 DUP2 ADD SWAP1 POP PUSH3 0x43C JUMP JUMPDEST DUP7 DUP4 LT ISZERO PUSH3 0x483 JUMPI DUP5 DUP10 ADD MLOAD PUSH3 0x47F PUSH1 0x1F DUP10 AND DUP3 PUSH3 0x373 JUMP JUMPDEST DUP4 SSTORE POP JUMPDEST PUSH1 0x1 PUSH1 0x2 DUP9 MUL ADD DUP9 SSTORE POP POP POP JUMPDEST POP POP POP POP POP POP JUMP JUMPDEST PUSH2 0x1B65 DUP1 PUSH3 0x4A8 PUSH1 0x0 CODECOPY PUSH1 0x0 RETURN INVALID PUSH1 0x80 PUSH1 0x40 MSTORE PUSH1 0x4 CALLDATASIZE LT PUSH2 0xE8 JUMPI PUSH1 0x0 CALLDATALOAD PUSH1 0xE0 SHR DUP1 PUSH4 0x6352211E GT PUSH2 0x8A JUMPI DUP1 PUSH4 0xA22CB465 GT PUSH2 0x59 JUMPI DUP1 PUSH4 0xA22CB465 EQ PUSH2 0x2D2 JUMPI DUP1 PUSH4 0xB88D4FDE EQ PUSH2 0x2FB JUMPI DUP1 PUSH4 0xC87B56DD EQ PUSH2 0x317 JUMPI DUP1 PUSH4 0xE985E9C5 EQ PUSH2 0x354 JUMPI PUSH2 0xE8 JUMP JUMPDEST DUP1 PUSH4 0x6352211E EQ PUSH2 0x211 JUMPI DUP1 PUSH4 0x70A08231 EQ PUSH2 0x24E JUMPI DUP1 PUSH4 0x95D89B41 EQ PUSH2 0x28B JUMPI DUP1 PUSH4 0xA0712D68 EQ PUSH2 0x2B6 JUMPI PUSH2 0xE8 JUMP JUMPDEST DUP1 PUSH4 0x95EA7B3 GT PUSH2 0xC6 JUMPI DUP1 PUSH4 0x95EA7B3 EQ PUSH2 0x192 JUMPI DUP1 PUSH4 0x18160DDD EQ PUSH2 0x1AE JUMPI DUP1 PUSH4 0x23B872DD EQ PUSH2 0x1D9 JUMPI DUP1 PUSH4 0x42842E0E EQ PUSH2 0x1F5 JUMPI PUSH2 0xE8 JUMP JUMPDEST DUP1 PUSH4 0x1FFC9A7 EQ PUSH2 0xED JUMPI DUP1 PUSH4 0x6FDDE03 EQ PUSH2 0x12A JUMPI DUP1 PUSH4 0x81812FC EQ PUSH2 0x155 JUMPI JUMPDEST PUSH1 0x0 DUP1 REVERT JUMPDEST CALLVALUE DUP1 ISZERO PUSH2 0xF9 JUMPI PUSH1 0x0 DUP1 REVERT JUMPDEST POP PUSH2 0x114 PUSH1 0x4 DUP1 CALLDATASIZE SUB DUP2 ADD SWAP1 PUSH2 0x10F SWAP2 SWAP1 PUSH2 0x13E6 JUMP JUMPDEST PUSH2 0x391 JUMP JUMPDEST PUSH1 0x40 MLOAD PUSH2 0x121 SWAP2 SWAP1 PUSH2 0x142E JUMP JUMPDEST PUSH1 0x40 MLOAD DUP1 SWAP2 SUB SWAP1 RETURN JUMPDEST CALLVALUE DUP1 ISZERO PUSH2 0x136 JUMPI PUSH1 0x0 DUP1 REVERT JUMPDEST POP PUSH2 0x13F PUSH2 0x423 JUMP JUMPDEST PUSH1 0x40 MLOAD PUSH2 0x14C SWAP2 SWAP1 PUSH2 0x14D9 JUMP JUMPDEST PUSH1 0x40 MLOAD DUP1 SWAP2 SUB SWAP1 RETURN JUMPDEST CALLVALUE DUP1 ISZERO PUSH2 0x161 JUMPI PUSH1 0x0 DUP1 REVERT JUMPDEST POP PUSH2 0x17C PUSH1 0x4 DUP1 CALLDATASIZE SUB DUP2 ADD SWAP1 PUSH2 0x177 SWAP2 SWAP1 PUSH2 0x1531 JUMP JUMPDEST PUSH2 0x4B5 JUMP JUMPDEST PUSH1 0x40 MLOAD PUSH2 0x189 SWAP2 SWAP1 PUSH2 0x159F JUMP JUMPDEST PUSH1 0x40 MLOAD DUP1 SWAP2 SUB SWAP1 RETURN JUMPDEST PUSH2 0x1AC PUSH1 0x4 DUP1 CALLDATASIZE SUB DUP2 ADD SWAP1 PUSH2 0x1A7 SWAP2 SWAP1 PUSH2 0x15E6 JUMP JUMPDEST PUSH2 0x513 JUMP JUMPDEST STOP JUMPDEST CALLVALUE DUP1 ISZERO PUSH2 0x1BA JUMPI PUSH1 0x0 DUP1 REVERT JUMPDEST POP PUSH2 0x1C3 PUSH2 0x523 JUMP JUMPDEST PUSH1 0x40 MLOAD PUSH2 0x1D0 SWAP2 SWAP1 PUSH2 0x1635 JUMP JUMPDEST PUSH1 0x40 MLOAD DUP1 SWAP2 SUB SWAP1 RETURN JUMPDEST PUSH2 0x1F3 PUSH1 0x4 DUP1 CALLDATASIZE SUB DUP2 ADD SWAP1 PUSH2 0x1EE SWAP2 SWAP1 PUSH2 0x1650 JUMP JUMPDEST PUSH2 0x570 JUMP JUMPDEST STOP JUMPDEST PUSH2 0x20F PUSH1 0x4 DUP1 CALLDATASIZE SUB DUP2 ADD SWAP1 PUSH2 0x20A SWAP2 SWAP1 PUSH2 0x1650 JUMP JUMPDEST PUSH2 0x831 JUMP JUMPDEST STOP JUMPDEST CALLVALUE DUP1 ISZERO PUSH2 0x21D JUMPI PUSH1 0x0 DUP1 REVERT JUMPDEST POP PUSH2 0x238 PUSH1 0x4 DUP1 CALLDATASIZE SUB DUP2 ADD SWAP1 PUSH2 0x233 SWAP2 SWAP1 PUSH2 0x1531 JUMP JUMPDEST PUSH2 0x851 JUMP JUMPDEST PUSH1 0x40 MLOAD PUSH2 0x245 SWAP2 SWAP1 PUSH2 0x159F JUMP JUMPDEST PUSH1 0x40 MLOAD DUP1 SWAP2 SUB SWAP1 RETURN JUMPDEST CALLVALUE DUP1 ISZERO PUSH2 0x25A JUMPI PUSH1 0x0 DUP1 REVERT JUMPDEST POP PUSH2 0x275 PUSH1 0x4 DUP1 CALLDATASIZE SUB DUP2 ADD SWAP1 PUSH2 0x270 SWAP2 SWAP1 PUSH2 0x16A3 JUMP JUMPDEST PUSH2 0x863 JUMP JUMPDEST PUSH1 0x40 MLOAD PUSH2 0x282 SWAP2 SWAP1 PUSH2 0x1635 JUMP JUMPDEST PUSH1 0x40 MLOAD DUP1 SWAP2 SUB SWAP1 RETURN JUMPDEST CALLVALUE DUP1 ISZERO PUSH2 0x297 JUMPI PUSH1 0x0 DUP1 REVERT JUMPDEST POP PUSH2 0x2A0 PUSH2 0x8FA JUMP JUMPDEST PUSH1 0x40 MLOAD PUSH2 0x2AD SWAP2 SWAP1 PUSH2 0x14D9 JUMP JUMPDEST PUSH1 0x40 MLOAD DUP1 SWAP2 SUB SWAP1 RETURN JUMPDEST PUSH2 0x2D0 PUSH1 0x4 DUP1 CALLDATASIZE SUB DUP2 ADD SWAP1 PUSH2 0x2CB SWAP2 SWAP1 PUSH2 0x1531 JUMP JUMPDEST PUSH2 0x98C JUMP JUMPDEST STOP JUMPDEST CALLVALUE DUP1 ISZERO PUSH2 0x2DE JUMPI PUSH1 0x0 DUP1 REVERT JUMPDEST POP PUSH2 0x2F9 PUSH1 0x4 DUP1 CALLDATASIZE SUB DUP2 ADD SWAP1 PUSH2 0x2F4 SWAP2 SWAP1 PUSH2 0x16FC JUMP JUMPDEST PUSH2 0x999 JUMP JUMPDEST STOP JUMPDEST PUSH2 0x315 PUSH1 0x4 DUP1 CALLDATASIZE SUB DUP2 ADD SWAP1 PUSH2 0x310 SWAP2 SWAP1 PUSH2 0x1871 JUMP JUMPDEST PUSH2 0xAA4 JUMP JUMPDEST STOP JUMPDEST CALLVALUE DUP1 ISZERO PUSH2 0x323 JUMPI PUSH1 0x0 DUP1 REVERT JUMPDEST POP PUSH2 0x33E PUSH1 0x4 DUP1 CALLDATASIZE SUB DUP2 ADD SWAP1 PUSH2 0x339 SWAP2 SWAP1 PUSH2 0x1531 JUMP JUMPDEST PUSH2 0xAF6 JUMP JUMPDEST PUSH1 0x40 MLOAD PUSH2 0x34B SWAP2 SWAP1 PUSH2 0x14D9 JUMP JUMPDEST PUSH1 0x40 MLOAD DUP1 SWAP2 SUB SWAP1 RETURN JUMPDEST CALLVALUE DUP1 ISZERO PUSH2 0x360 JUMPI PUSH1 0x0 DUP1 REVERT JUMPDEST POP PUSH2 0x37B PUSH1 0x4 DUP1 CALLDATASIZE SUB DUP2 ADD SWAP1 PUSH2 0x376 SWAP2 SWAP1 PUSH2 0x18F4 JUMP JUMPDEST PUSH2 0xB73 JUMP JUMPDEST PUSH1 0x40 MLOAD PUSH2 0x388 SWAP2 SWAP1 PUSH2 0x142E JUMP JUMPDEST PUSH1 0x40 MLOAD DUP1 SWAP2 SUB SWAP1 RETURN JUMPDEST PUSH1 0x0 PUSH4 0x1FFC9A7 PUSH1 0xE0 SHL DUP3 PUSH28 0xFFFFFFFFFFFFFFFFFFFFFFFFFFFFFFFFFFFFFFFFFFFFFFFFFFFFFFFF NOT AND EQ DUP1 PUSH2 0x3EC JUMPI POP PUSH4 0x80AC58CD PUSH1 0xE0 SHL DUP3 PUSH28 0xFFFFFFFFFFFFFFFFFFFFFFFFFFFFFFFFFFFFFFFFFFFFFFFFFFFFFFFF NOT AND EQ JUMPDEST DUP1 PUSH2 0x41C JUMPI POP PUSH4 0x5B5E139F PUSH1 0xE0 SHL DUP3 PUSH28 0xFFFFFFFFFFFFFFFFFFFFFFFFFFFFFFFFFFFFFFFFFFFFFFFFFFFFFFFF NOT AND EQ JUMPDEST SWAP1 POP SWAP2 SWAP1 POP JUMP JUMPDEST PUSH1 0x60 PUSH1 0x2 DUP1 SLOAD PUSH2 0x432 SWAP1 PUSH2 0x1963 JUMP JUMPDEST DUP1 PUSH1 0x1F ADD PUSH1 0x20 DUP1 SWAP2 DIV MUL PUSH1 0x20 ADD PUSH1 0x40 MLOAD SWAP1 DUP2 ADD PUSH1 0x40 MSTORE DUP1 SWAP3 SWAP2 SWAP1 DUP2 DUP2 MSTORE PUSH1 0x20 ADD DUP3 DUP1 SLOAD PUSH2 0x45E SWAP1 PUSH2 0x1963 JUMP JUMPDEST DUP1 ISZERO PUSH2 0x4AB JUMPI DUP1 PUSH1 0x1F LT PUSH2 0x480 JUMPI PUSH2 0x100 DUP1 DUP4 SLOAD DIV MUL DUP4 MSTORE SWAP2 PUSH1 0x20 ADD SWAP2 PUSH2 0x4AB JUMP JUMPDEST DUP3 ADD SWAP2 SWAP1 PUSH1 0x0 MSTORE PUSH1 0x20 PUSH1 0x0 KECCAK256 SWAP1 JUMPDEST DUP2 SLOAD DUP2 MSTORE SWAP1 PUSH1 0x1 ADD SWAP1 PUSH1 0x20 ADD DUP1 DUP4 GT PUSH2 0x48E JUMPI DUP3 SWAP1 SUB PUSH1 0x1F AND DUP3 ADD SWAP2 JUMPDEST POP POP POP POP POP SWAP1 POP SWAP1 JUMP JUMPDEST PUSH1 0x0 PUSH2 0x4C0 DUP3 PUSH2 0xC07 JUMP JUMPDEST PUSH2 0x4D5 JUMPI PUSH2 0x4D4 PUSH4 0xCF4700E4 PUSH1 0xE0 SHL PUSH2 0xCB3 JUMP JUMPDEST JUMPDEST PUSH1 0x6 PUSH1 0x0 DUP4 DUP2 MSTORE PUSH1 0x20 ADD SWAP1 DUP2 MSTORE PUSH1 0x20 ADD PUSH1 0x0 KECCAK256 PUSH1 0x0 ADD PUSH1 0x0 SWAP1 SLOAD SWAP1 PUSH2 0x100 EXP SWAP1 DIV PUSH20 0xFFFFFFFFFFFFFFFFFFFFFFFFFFFFFFFFFFFFFFFF AND SWAP1 POP SWAP2 SWAP1 POP JUMP JUMPDEST PUSH2 0x51F DUP3 DUP3 PUSH1 0x1 PUSH2 0xCBD JUMP JUMPDEST POP POP JUMP JUMPDEST PUSH1 0x0 PUSH2 0x52D PUSH2 0xDEC JUMP JUMPDEST PUSH1 0x1 SLOAD PUSH1 0x0 SLOAD SUB SUB SWAP1 POP PUSH32 0xFFFFFFFFFFFFFFFFFFFFFFFFFFFFFFFFFFFFFFFFFFFFFFFFFFFFFFFFFFFFFFFF PUSH2 0x560 PUSH2 0xDF1 JUMP JUMPDEST EQ PUSH2 0x56D JUMPI PUSH1 0x8 SLOAD DUP2 ADD SWAP1 POP JUMPDEST SWAP1 JUMP JUMPDEST PUSH1 0x0 PUSH2 0x57B DUP3 PUSH2 0xE19 JUMP JUMPDEST SWAP1 POP PUSH20 0xFFFFFFFFFFFFFFFFFFFFFFFFFFFFFFFFFFFFFFFF DUP5 PUSH20 0xFFFFFFFFFFFFFFFFFFFFFFFFFFFFFFFFFFFFFFFF AND AND SWAP4 POP DUP4 PUSH20 0xFFFFFFFFFFFFFFFFFFFFFFFFFFFFFFFFFFFFFFFF AND DUP2 PUSH20 0xFFFFFFFFFFFFFFFFFFFFFFFFFFFFFFFFFFFFFFFF AND EQ PUSH2 0x5F0 JUMPI PUSH2 0x5EF PUSH4 0xA1148100 PUSH1 0xE0 SHL PUSH2 0xCB3 JUMP JUMPDEST JUMPDEST PUSH1 0x0 DUP1 PUSH2 0x5FC DUP5 PUSH2 0xF32 JUMP JUMPDEST SWAP2 POP SWAP2 POP PUSH2 0x612 DUP2 DUP8 PUSH2 0x60D PUSH2 0xF59 JUMP JUMPDEST PUSH2 0xF61 JUMP JUMPDEST PUSH2 0x63D JUMPI PUSH2 0x627 DUP7 PUSH2 0x622 PUSH2 0xF59 JUMP JUMPDEST PUSH2 0xB73 JUMP JUMPDEST PUSH2 0x63C JUMPI PUSH2 0x63B PUSH4 0x59C896BE PUSH1 0xE0 SHL PUSH2 0xCB3 JUMP JUMPDEST JUMPDEST JUMPDEST PUSH2 0x64A DUP7 DUP7 DUP7 PUSH1 0x1 PUSH2 0xFA5 JUMP JUMPDEST DUP1 ISZERO PUSH2 0x655 JUMPI PUSH1 0x0 DUP3 SSTORE JUMPDEST PUSH1 0x5 PUSH1 0x0 DUP8 PUSH20 0xFFFFFFFFFFFFFFFFFFFFFFFFFFFFFFFFFFFFFFFF AND PUSH20 0xFFFFFFFFFFFFFFFFFFFFFFFFFFFFFFFFFFFFFFFF AND DUP2 MSTORE PUSH1 0x20 ADD SWAP1 DUP2 MSTORE PUSH1 0x20 ADD PUSH1 0x0 KECCAK256 PUSH1 0x0 DUP2 SLOAD PUSH1 0x1 SWAP1 SUB SWAP2 SWAP1 POP DUP2 SWAP1 SSTORE POP PUSH1 0x5 PUSH1 0x0 DUP7 PUSH20 0xFFFFFFFFFFFFFFFFFFFFFFFFFFFFFFFFFFFFFFFF AND PUSH20 0xFFFFFFFFFFFFFFFFFFFFFFFFFFFFFFFFFFFFFFFF AND DUP2 MSTORE PUSH1 0x20 ADD SWAP1 DUP2 MSTORE PUSH1 0x20 ADD PUSH1 0x0 KECCAK256 PUSH1 0x0 DUP2 SLOAD PUSH1 0x1 ADD SWAP2 SWAP1 POP DUP2 SWAP1 SSTORE POP PUSH2 0x723 DUP6 PUSH2 0x6FF DUP9 DUP9 DUP8 PUSH2 0xFAB JUMP JUMPDEST PUSH29 0x200000000000000000000000000000000000000000000000000000000 OR PUSH2 0xFD3 JUMP JUMPDEST PUSH1 0x4 PUSH1 0x0 DUP7 DUP2 MSTORE PUSH1 0x20 ADD SWAP1 DUP2 MSTORE PUSH1 0x20 ADD PUSH1 0x0 KECCAK256 DUP2 SWAP1 SSTORE POP PUSH1 0x0 PUSH29 0x200000000000000000000000000000000000000000000000000000000 DUP5 AND SUB PUSH2 0x7A9 JUMPI PUSH1 0x0 PUSH1 0x1 DUP6 ADD SWAP1 POP PUSH1 0x0 PUSH1 0x4 PUSH1 0x0 DUP4 DUP2 MSTORE PUSH1 0x20 ADD SWAP1 DUP2 MSTORE PUSH1 0x20 ADD PUSH1 0x0 KECCAK256 SLOAD SUB PUSH2 0x7A7 JUMPI PUSH1 0x0 SLOAD DUP2 EQ PUSH2 0x7A6 JUMPI DUP4 PUSH1 0x4 PUSH1 0x0 DUP4 DUP2 MSTORE PUSH1 0x20 ADD SWAP1 DUP2 MSTORE PUSH1 0x20 ADD PUSH1 0x0 KECCAK256 DUP2 SWAP1 SSTORE POP JUMPDEST JUMPDEST POP JUMPDEST PUSH1 0x0 PUSH20 0xFFFFFFFFFFFFFFFFFFFFFFFFFFFFFFFFFFFFFFFF DUP7 PUSH20 0xFFFFFFFFFFFFFFFFFFFFFFFFFFFFFFFFFFFFFFFF AND AND SWAP1 POP DUP5 DUP2 DUP9 PUSH32 0xDDF252AD1BE2C89B69C2B068FC378DAA952BA7F163C4A11628F55A4DF523B3EF PUSH1 0x0 DUP1 LOG4 PUSH1 0x0 DUP2 SUB PUSH2 0x81B JUMPI PUSH2 0x81A PUSH4 0xEA553B34 PUSH1 0xE0 SHL PUSH2 0xCB3 JUMP JUMPDEST JUMPDEST PUSH2 0x828 DUP8 DUP8 DUP8 PUSH1 0x1 PUSH2 0xFFE JUMP JUMPDEST POP POP POP POP POP POP POP JUMP JUMPDEST PUSH2 0x84C DUP4 DUP4 DUP4 PUSH1 0x40 MLOAD DUP1 PUSH1 0x20 ADD PUSH1 0x40 MSTORE DUP1 PUSH1 0x0 DUP2 MSTORE POP PUSH2 0xAA4 JUMP JUMPDEST POP POP POP JUMP JUMPDEST PUSH1 0x0 PUSH2 0x85C DUP3 PUSH2 0xE19 JUMP JUMPDEST SWAP1 POP SWAP2 SWAP1 POP JUMP JUMPDEST PUSH1 0x0 DUP1 PUSH20 0xFFFFFFFFFFFFFFFFFFFFFFFFFFFFFFFFFFFFFFFF AND DUP3 PUSH20 0xFFFFFFFFFFFFFFFFFFFFFFFFFFFFFFFFFFFFFFFF AND SUB PUSH2 0x8A9 JUMPI PUSH2 0x8A8 PUSH4 0x8F4EB604 PUSH1 0xE0 SHL PUSH2 0xCB3 JUMP JUMPDEST JUMPDEST PUSH8 0xFFFFFFFFFFFFFFFF PUSH1 0x5 PUSH1 0x0 DUP5 PUSH20 0xFFFFFFFFFFFFFFFFFFFFFFFFFFFFFFFFFFFFFFFF AND PUSH20 0xFFFFFFFFFFFFFFFFFFFFFFFFFFFFFFFFFFFFFFFF AND DUP2 MSTORE PUSH1 0x20 ADD SWAP1 DUP2 MSTORE PUSH1 0x20 ADD PUSH1 0x0 KECCAK256 SLOAD AND SWAP1 POP SWAP2 SWAP1 POP JUMP JUMPDEST PUSH1 0x60 PUSH1 0x3 DUP1 SLOAD PUSH2 0x909 SWAP1 PUSH2 0x1963 JUMP JUMPDEST DUP1 PUSH1 0x1F ADD PUSH1 0x20 DUP1 SWAP2 DIV MUL PUSH1 0x20 ADD PUSH1 0x40 MLOAD SWAP1 DUP2 ADD PUSH1 0x40 MSTORE DUP1 SWAP3 SWAP2 SWAP1 DUP2 DUP2 MSTORE PUSH1 0x20 ADD DUP3 DUP1 SLOAD PUSH2 0x935 SWAP1 PUSH2 0x1963 JUMP JUMPDEST DUP1 ISZERO PUSH2 0x982 JUMPI DUP1 PUSH1 0x1F LT PUSH2 0x957 JUMPI PUSH2 0x100 DUP1 DUP4 SLOAD DIV MUL DUP4 MSTORE SWAP2 PUSH1 0x20 ADD SWAP2 PUSH2 0x982 JUMP JUMPDEST DUP3 ADD SWAP2 SWAP1 PUSH1 0x0 MSTORE PUSH1 0x20 PUSH1 0x0 KECCAK256 SWAP1 JUMPDEST DUP2 SLOAD DUP2 MSTORE SWAP1 PUSH1 0x1 ADD SWAP1 PUSH1 0x20 ADD DUP1 DUP4 GT PUSH2 0x965 JUMPI DUP3 SWAP1 SUB PUSH1 0x1F AND DUP3 ADD SWAP2 JUMPDEST POP POP POP POP POP SWAP1 POP SWAP1 JUMP JUMPDEST PUSH2 0x996 CALLER DUP3 PUSH2 0x1004 JUMP JUMPDEST POP JUMP JUMPDEST DUP1 PUSH1 0x7 PUSH1 0x0 PUSH2 0x9A6 PUSH2 0xF59 JUMP JUMPDEST PUSH20 0xFFFFFFFFFFFFFFFFFFFFFFFFFFFFFFFFFFFFFFFF AND PUSH20 0xFFFFFFFFFFFFFFFFFFFFFFFFFFFFFFFFFFFFFFFF AND DUP2 MSTORE PUSH1 0x20 ADD SWAP1 DUP2 MSTORE PUSH1 0x20 ADD PUSH1 0x0 KECCAK256 PUSH1 0x0 DUP5 PUSH20 0xFFFFFFFFFFFFFFFFFFFFFFFFFFFFFFFFFFFFFFFF AND PUSH20 0xFFFFFFFFFFFFFFFFFFFFFFFFFFFFFFFFFFFFFFFF AND DUP2 MSTORE PUSH1 0x20 ADD SWAP1 DUP2 MSTORE PUSH1 0x20 ADD PUSH1 0x0 KECCAK256 PUSH1 0x0 PUSH2 0x100 EXP DUP2 SLOAD DUP2 PUSH1 0xFF MUL NOT AND SWAP1 DUP4 ISZERO ISZERO MUL OR SWAP1 SSTORE POP DUP2 PUSH20 0xFFFFFFFFFFFFFFFFFFFFFFFFFFFFFFFFFFFFFFFF AND PUSH2 0xA53 PUSH2 0xF59 JUMP JUMPDEST PUSH20 0xFFFFFFFFFFFFFFFFFFFFFFFFFFFFFFFFFFFFFFFF AND PUSH32 0x17307EAB39AB6107E8899845AD3D59BD9653F200F220920489CA2B5937696C31 DUP4 PUSH1 0x40 MLOAD PUSH2 0xA98 SWAP2 SWAP1 PUSH2 0x142E JUMP JUMPDEST PUSH1 0x40 MLOAD DUP1 SWAP2 SUB SWAP1 LOG3 POP POP JUMP JUMPDEST PUSH2 0xAAF DUP5 DUP5 DUP5 PUSH2 0x570 JUMP JUMPDEST PUSH1 0x0 DUP4 PUSH20 0xFFFFFFFFFFFFFFFFFFFFFFFFFFFFFFFFFFFFFFFF AND EXTCODESIZE EQ PUSH2 0xAF0 JUMPI PUSH2 0xADA DUP5 DUP5 DUP5 DUP5 PUSH2 0x118A JUMP JUMPDEST PUSH2 0xAEF JUMPI PUSH2 0xAEE PUSH4 0xD1A57ED6 PUSH1 0xE0 SHL PUSH2 0xCB3 JUMP JUMPDEST JUMPDEST JUMPDEST POP POP POP POP JUMP JUMPDEST PUSH1 0x60 PUSH2 0xB01 DUP3 PUSH2 0xC07 JUMP JUMPDEST PUSH2 0xB16 JUMPI PUSH2 0xB15 PUSH4 0xA14C4B50 PUSH1 0xE0 SHL PUSH2 0xCB3 JUMP JUMPDEST JUMPDEST PUSH1 0x0 PUSH2 0xB20 PUSH2 0x12B9 JUMP JUMPDEST SWAP1 POP PUSH1 0x0 DUP2 MLOAD SUB PUSH2 0xB40 JUMPI PUSH1 0x40 MLOAD DUP1 PUSH1 0x20 ADD PUSH1 0x40 MSTORE DUP1 PUSH1 0x0 DUP2 MSTORE POP PUSH2 0xB6B JUMP JUMPDEST DUP1 PUSH2 0xB4A DUP5 PUSH2 0x12D0 JUMP JUMPDEST PUSH1 0x40 MLOAD PUSH1 0x20 ADD PUSH2 0xB5B SWAP3 SWAP2 SWAP1 PUSH2 0x19D0 JUMP JUMPDEST PUSH1 0x40 MLOAD PUSH1 0x20 DUP2 DUP4 SUB SUB DUP2 MSTORE SWAP1 PUSH1 0x40 MSTORE JUMPDEST SWAP2 POP POP SWAP2 SWAP1 POP JUMP JUMPDEST PUSH1 0x0 PUSH1 0x7 PUSH1 0x0 DUP5 PUSH20 0xFFFFFFFFFFFFFFFFFFFFFFFFFFFFFFFFFFFFFFFF AND PUSH20 0xFFFFFFFFFFFFFFFFFFFFFFFFFFFFFFFFFFFFFFFF AND DUP2 MSTORE PUSH1 0x20 ADD SWAP1 DUP2 MSTORE PUSH1 0x20 ADD PUSH1 0x0 KECCAK256 PUSH1 0x0 DUP4 PUSH20 0xFFFFFFFFFFFFFFFFFFFFFFFFFFFFFFFFFFFFFFFF AND PUSH20 0xFFFFFFFFFFFFFFFFFFFFFFFFFFFFFFFFFFFFFFFF AND DUP2 MSTORE PUSH1 0x20 ADD SWAP1 DUP2 MSTORE PUSH1 0x20 ADD PUSH1 0x0 KECCAK256 PUSH1 0x0 SWAP1 SLOAD SWAP1 PUSH2 0x100 EXP SWAP1 DIV PUSH1 0xFF AND SWAP1 POP SWAP3 SWAP2 POP POP JUMP JUMPDEST PUSH1 0x0 DUP2 PUSH2 0xC12 PUSH2 0xDEC JUMP JUMPDEST GT PUSH2 0xCAD JUMPI PUSH2 0xC1F PUSH2 0xDF1 JUMP JUMPDEST DUP3 GT ISZERO PUSH2 0xC49 JUMPI PUSH2 0xC42 PUSH1 0x4 PUSH1 0x0 DUP5 DUP2 MSTORE PUSH1 0x20 ADD SWAP1 DUP2 MSTORE PUSH1 0x20 ADD PUSH1 0x0 KECCAK256 SLOAD PUSH2 0x1320 JUMP JUMPDEST SWAP1 POP PUSH2 0xCAE JUMP JUMPDEST PUSH1 0x0 SLOAD DUP3 LT ISZERO PUSH2 0xCAC JUMPI PUSH1 0x0 JUMPDEST PUSH1 0x0 PUSH1 0x4 PUSH1 0x0 DUP6 DUP2 MSTORE PUSH1 0x20 ADD SWAP1 DUP2 MSTORE PUSH1 0x20 ADD PUSH1 0x0 KECCAK256 SLOAD SWAP2 POP DUP2 SUB PUSH2 0xC85 JUMPI DUP3 PUSH2 0xC7E SWAP1 PUSH2 0x1A23 JUMP JUMPDEST SWAP3 POP PUSH2 0xC56 JUMP JUMPDEST PUSH1 0x0 PUSH29 0x100000000000000000000000000000000000000000000000000000000 DUP3 AND EQ SWAP2 POP POP JUMPDEST JUMPDEST JUMPDEST SWAP2 SWAP1 POP JUMP JUMPDEST DUP1 PUSH1 0x0 MSTORE PUSH1 0x4 PUSH1 0x0 REVERT JUMPDEST PUSH1 0x0 PUSH2 0xCC8 DUP4 PUSH2 0x851 JUMP JUMPDEST SWAP1 POP DUP2 DUP1 ISZERO PUSH2 0xD0A JUMPI POP DUP1 PUSH20 0xFFFFFFFFFFFFFFFFFFFFFFFFFFFFFFFFFFFFFFFF AND PUSH2 0xCF1 PUSH2 0xF59 JUMP JUMPDEST PUSH20 0xFFFFFFFFFFFFFFFFFFFFFFFFFFFFFFFFFFFFFFFF AND EQ ISZERO JUMPDEST ISZERO PUSH2 0xD36 JUMPI PUSH2 0xD20 DUP2 PUSH2 0xD1B PUSH2 0xF59 JUMP JUMPDEST PUSH2 0xB73 JUMP JUMPDEST PUSH2 0xD35 JUMPI PUSH2 0xD34 PUSH4 0xCFB3B942 PUSH1 0xE0 SHL PUSH2 0xCB3 JUMP JUMPDEST JUMPDEST JUMPDEST DUP4 PUSH1 0x6 PUSH1 0x0 DUP6 DUP2 MSTORE PUSH1 0x20 ADD SWAP1 DUP2 MSTORE PUSH1 0x20 ADD PUSH1 0x0 KECCAK256 PUSH1 0x0 ADD PUSH1 0x0 PUSH2 0x100 EXP DUP2 SLOAD DUP2 PUSH20 0xFFFFFFFFFFFFFFFFFFFFFFFFFFFFFFFFFFFFFFFF MUL NOT AND SWAP1 DUP4 PUSH20 0xFFFFFFFFFFFFFFFFFFFFFFFFFFFFFFFFFFFFFFFF AND MUL OR SWAP1 SSTORE POP DUP3 DUP5 PUSH20 0xFFFFFFFFFFFFFFFFFFFFFFFFFFFFFFFFFFFFFFFF AND DUP3 PUSH20 0xFFFFFFFFFFFFFFFFFFFFFFFFFFFFFFFFFFFFFFFF AND PUSH32 0x8C5BE1E5EBEC7D5BD14F71427D1E84F3DD0314C0F7B2291E5B200AC8C7C3B925 PUSH1 0x40 MLOAD PUSH1 0x40 MLOAD DUP1 SWAP2 SUB SWAP1 LOG4 POP POP POP POP JUMP JUMPDEST PUSH1 0x0 SWAP1 JUMP JUMPDEST PUSH1 0x0 PUSH32 0xFFFFFFFFFFFFFFFFFFFFFFFFFFFFFFFFFFFFFFFFFFFFFFFFFFFFFFFFFFFFFFFF SWAP1 POP SWAP1 JUMP JUMPDEST PUSH1 0x0 DUP2 PUSH2 0xE24 PUSH2 0xDEC JUMP JUMPDEST GT PUSH2 0xF1C JUMPI PUSH1 0x4 PUSH1 0x0 DUP4 DUP2 MSTORE PUSH1 0x20 ADD SWAP1 DUP2 MSTORE PUSH1 0x20 ADD PUSH1 0x0 KECCAK256 SLOAD SWAP1 POP PUSH2 0xE47 PUSH2 0xDF1 JUMP JUMPDEST DUP3 GT ISZERO PUSH2 0xE6C JUMPI PUSH2 0xE57 DUP2 PUSH2 0x1320 JUMP JUMPDEST PUSH2 0xF2D JUMPI PUSH2 0xE6B PUSH4 0xDF2D9B42 PUSH1 0xE0 SHL PUSH2 0xCB3 JUMP JUMPDEST JUMPDEST PUSH1 0x0 DUP2 SUB PUSH2 0xEF3 JUMPI PUSH1 0x0 SLOAD DUP3 LT PUSH2 0xE8E JUMPI PUSH2 0xE8D PUSH4 0xDF2D9B42 PUSH1 0xE0 SHL PUSH2 0xCB3 JUMP JUMPDEST JUMPDEST JUMPDEST PUSH1 0x4 PUSH1 0x0 DUP4 PUSH1 0x1 SWAP1 SUB SWAP4 POP DUP4 DUP2 MSTORE PUSH1 0x20 ADD SWAP1 DUP2 MSTORE PUSH1 0x20 ADD PUSH1 0x0 KECCAK256 SLOAD SWAP1 POP PUSH1 0x0 DUP2 SUB ISZERO PUSH2 0xEEE JUMPI PUSH1 0x0 PUSH29 0x100000000000000000000000000000000000000000000000000000000 DUP3 AND SUB ISZERO PUSH2 0xF2D JUMPI PUSH2 0xEED PUSH4 0xDF2D9B42 PUSH1 0xE0 SHL PUSH2 0xCB3 JUMP JUMPDEST JUMPDEST PUSH2 0xE8F JUMP JUMPDEST PUSH1 0x0 PUSH29 0x100000000000000000000000000000000000000000000000000000000 DUP3 AND SUB ISZERO PUSH2 0xF2D JUMPI JUMPDEST PUSH2 0xF2C PUSH4 0xDF2D9B42 PUSH1 0xE0 SHL PUSH2 0xCB3 JUMP JUMPDEST JUMPDEST SWAP2 SWAP1 POP JUMP JUMPDEST PUSH1 0x0 DUP1 PUSH1 0x0 PUSH1 0x6 PUSH1 0x0 DUP6 DUP2 MSTORE PUSH1 0x20 ADD SWAP1 DUP2 MSTORE PUSH1 0x20 ADD PUSH1 0x0 KECCAK256 SWAP1 POP DUP1 SWAP3 POP DUP3 SLOAD SWAP2 POP POP SWAP2 POP SWAP2 JUMP JUMPDEST PUSH1 0x0 CALLER SWAP1 POP SWAP1 JUMP JUMPDEST PUSH1 0x0 PUSH20 0xFFFFFFFFFFFFFFFFFFFFFFFFFFFFFFFFFFFFFFFF DUP4 AND SWAP3 POP PUSH20 0xFFFFFFFFFFFFFFFFFFFFFFFFFFFFFFFFFFFFFFFF DUP3 AND SWAP2 POP DUP4 DUP3 EQ DUP4 DUP4 EQ OR SWAP1 POP SWAP4 SWAP3 POP POP POP JUMP JUMPDEST POP POP POP POP JUMP JUMPDEST PUSH1 0x0 DUP1 PUSH1 0xE8 DUP4 SWAP1 SHR SWAP1 POP PUSH1 0xE8 PUSH2 0xFC2 DUP7 DUP7 DUP5 PUSH2 0x1361 JUMP JUMPDEST PUSH3 0xFFFFFF AND SWAP1 SHL SWAP2 POP POP SWAP4 SWAP3 POP POP POP JUMP JUMPDEST PUSH1 0x0 PUSH20 0xFFFFFFFFFFFFFFFFFFFFFFFFFFFFFFFFFFFFFFFF DUP4 AND SWAP3 POP DUP2 TIMESTAMP PUSH1 0xA0 SHL OR DUP4 OR SWAP1 POP SWAP3 SWAP2 POP POP JUMP JUMPDEST POP POP POP POP JUMP JUMPDEST PUSH1 0x0 DUP1 SLOAD SWAP1 POP PUSH1 0x0 DUP3 SUB PUSH2 0x1023 JUMPI PUSH2 0x1022 PUSH4 0xB562E8DD PUSH1 0xE0 SHL PUSH2 0xCB3 JUMP JUMPDEST JUMPDEST PUSH2 0x1030 PUSH1 0x0 DUP5 DUP4 DUP6 PUSH2 0xFA5 JUMP JUMPDEST PUSH2 0x1050 DUP4 PUSH2 0x1041 PUSH1 0x0 DUP7 PUSH1 0x0 PUSH2 0xFAB JUMP JUMPDEST PUSH2 0x104A DUP6 PUSH2 0x136A JUMP JUMPDEST OR PUSH2 0xFD3 JUMP JUMPDEST PUSH1 0x4 PUSH1 0x0 DUP4 DUP2 MSTORE PUSH1 0x20 ADD SWAP1 DUP2 MSTORE PUSH1 0x20 ADD PUSH1 0x0 KECCAK256 DUP2 SWAP1 SSTORE POP PUSH1 0x1 PUSH1 0x40 PUSH1 0x1 SWAP1 SHL OR DUP3 MUL PUSH1 0x5 PUSH1 0x0 DUP6 PUSH20 0xFFFFFFFFFFFFFFFFFFFFFFFFFFFFFFFFFFFFFFFF AND PUSH20 0xFFFFFFFFFFFFFFFFFFFFFFFFFFFFFFFFFFFFFFFF AND DUP2 MSTORE PUSH1 0x20 ADD SWAP1 DUP2 MSTORE PUSH1 0x20 ADD PUSH1 0x0 KECCAK256 PUSH1 0x0 DUP3 DUP3 SLOAD ADD SWAP3 POP POP DUP2 SWAP1 SSTORE POP PUSH1 0x0 PUSH20 0xFFFFFFFFFFFFFFFFFFFFFFFFFFFFFFFFFFFFFFFF DUP5 PUSH20 0xFFFFFFFFFFFFFFFFFFFFFFFFFFFFFFFFFFFFFFFF AND AND SWAP1 POP PUSH1 0x0 DUP2 SUB PUSH2 0x1108 JUMPI PUSH2 0x1107 PUSH4 0x2E076300 PUSH1 0xE0 SHL PUSH2 0xCB3 JUMP JUMPDEST JUMPDEST PUSH1 0x0 DUP4 DUP4 ADD SWAP1 POP PUSH1 0x0 DUP4 SWAP1 POP PUSH2 0x111C PUSH2 0xDF1 JUMP JUMPDEST PUSH1 0x1 DUP4 SUB GT ISZERO PUSH2 0x1137 JUMPI PUSH2 0x1136 PUSH4 0x81647E3A PUSH1 0xE0 SHL PUSH2 0xCB3 JUMP JUMPDEST JUMPDEST JUMPDEST DUP1 DUP4 PUSH1 0x0 PUSH32 0xDDF252AD1BE2C89B69C2B068FC378DAA952BA7F163C4A11628F55A4DF523B3EF PUSH1 0x0 DUP1 LOG4 DUP2 DUP2 PUSH1 0x1 ADD SWAP2 POP DUP2 SUB PUSH2 0x1138 JUMPI DUP2 PUSH1 0x0 DUP2 SWAP1 SSTORE POP POP POP POP PUSH2 0x1185 PUSH1 0x0 DUP5 DUP4 DUP6 PUSH2 0xFFE JUMP JUMPDEST POP POP POP JUMP JUMPDEST PUSH1 0x0 DUP4 PUSH20 0xFFFFFFFFFFFFFFFFFFFFFFFFFFFFFFFFFFFFFFFF AND PUSH4 0x150B7A02 PUSH2 0x11B0 PUSH2 0xF59 JUMP JUMPDEST DUP8 DUP7 DUP7 PUSH1 0x40 MLOAD DUP6 PUSH4 0xFFFFFFFF AND PUSH1 0xE0 SHL DUP2 MSTORE PUSH1 0x4 ADD PUSH2 0x11D2 SWAP5 SWAP4 SWAP3 SWAP2 SWAP1 PUSH2 0x1AA1 JUMP JUMPDEST PUSH1 0x20 PUSH1 0x40 MLOAD DUP1 DUP4 SUB DUP2 PUSH1 0x0 DUP8 GAS CALL SWAP3 POP POP POP DUP1 ISZERO PUSH2 0x120E JUMPI POP PUSH1 0x40 MLOAD RETURNDATASIZE PUSH1 0x1F NOT PUSH1 0x1F DUP3 ADD AND DUP3 ADD DUP1 PUSH1 0x40 MSTORE POP DUP2 ADD SWAP1 PUSH2 0x120B SWAP2 SWAP1 PUSH2 0x1B02 JUMP JUMPDEST PUSH1 0x1 JUMPDEST PUSH2 0x1266 JUMPI RETURNDATASIZE DUP1 PUSH1 0x0 DUP2 EQ PUSH2 0x123E JUMPI PUSH1 0x40 MLOAD SWAP2 POP PUSH1 0x1F NOT PUSH1 0x3F RETURNDATASIZE ADD AND DUP3 ADD PUSH1 0x40 MSTORE RETURNDATASIZE DUP3 MSTORE RETURNDATASIZE PUSH1 0x0 PUSH1 0x20 DUP5 ADD RETURNDATACOPY PUSH2 0x1243 JUMP JUMPDEST PUSH1 0x60 SWAP2 POP JUMPDEST POP PUSH1 0x0 DUP2 MLOAD SUB PUSH2 0x125E JUMPI PUSH2 0x125D PUSH4 0xD1A57ED6 PUSH1 0xE0 SHL PUSH2 0xCB3 JUMP JUMPDEST JUMPDEST DUP1 MLOAD DUP2 PUSH1 0x20 ADD REVERT JUMPDEST PUSH4 0x150B7A02 PUSH1 0xE0 SHL PUSH28 0xFFFFFFFFFFFFFFFFFFFFFFFFFFFFFFFFFFFFFFFFFFFFFFFFFFFFFFFF NOT AND DUP2 PUSH28 0xFFFFFFFFFFFFFFFFFFFFFFFFFFFFFFFFFFFFFFFFFFFFFFFFFFFFFFFF NOT AND EQ SWAP2 POP POP SWAP5 SWAP4 POP POP POP POP JUMP JUMPDEST PUSH1 0x60 PUSH1 0x40 MLOAD DUP1 PUSH1 0x20 ADD PUSH1 0x40 MSTORE DUP1 PUSH1 0x0 DUP2 MSTORE POP SWAP1 POP SWAP1 JUMP JUMPDEST PUSH1 0x60 PUSH1 0xA0 PUSH1 0x40 MLOAD ADD DUP1 PUSH1 0x40 MSTORE PUSH1 0x20 DUP2 SUB SWAP2 POP PUSH1 0x0 DUP3 MSTORE DUP2 DUP4 JUMPDEST PUSH1 0x1 ISZERO PUSH2 0x130B JUMPI PUSH1 0x1 DUP5 SUB SWAP4 POP PUSH1 0xA DUP2 MOD PUSH1 0x30 ADD DUP5 MSTORE8 PUSH1 0xA DUP2 DIV SWAP1 POP DUP1 PUSH2 0x12E9 JUMPI JUMPDEST POP DUP3 DUP2 SUB PUSH1 0x20 DUP5 SUB SWAP4 POP DUP1 DUP5 MSTORE POP POP POP SWAP2 SWAP1 POP JUMP JUMPDEST PUSH1 0x0 PUSH29 0x100000000000000000000000000000000000000000000000000000000 DUP3 AND PUSH20 0xFFFFFFFFFFFFFFFFFFFFFFFFFFFFFFFFFFFFFFFF DUP4 AND GT SWAP1 POP SWAP2 SWAP1 POP JUMP JUMPDEST PUSH1 0x0 SWAP4 SWAP3 POP POP POP JUMP JUMPDEST PUSH1 0x0 PUSH1 0x1 DUP3 EQ PUSH1 0xE1 SHL SWAP1 POP SWAP2 SWAP1 POP JUMP JUMPDEST PUSH1 0x0 PUSH1 0x40 MLOAD SWAP1 POP SWAP1 JUMP JUMPDEST PUSH1 0x0 DUP1 REVERT JUMPDEST PUSH1 0x0 DUP1 REVERT JUMPDEST PUSH1 0x0 PUSH32 0xFFFFFFFF00000000000000000000000000000000000000000000000000000000 DUP3 AND SWAP1 POP SWAP2 SWAP1 POP JUMP JUMPDEST PUSH2 0x13C3 DUP2 PUSH2 0x138E JUMP JUMPDEST DUP2 EQ PUSH2 0x13CE JUMPI PUSH1 0x0 DUP1 REVERT JUMPDEST POP JUMP JUMPDEST PUSH1 0x0 DUP2 CALLDATALOAD SWAP1 POP PUSH2 0x13E0 DUP2 PUSH2 0x13BA JUMP JUMPDEST SWAP3 SWAP2 POP POP JUMP JUMPDEST PUSH1 0x0 PUSH1 0x20 DUP3 DUP5 SUB SLT ISZERO PUSH2 0x13FC JUMPI PUSH2 0x13FB PUSH2 0x1384 JUMP JUMPDEST JUMPDEST PUSH1 0x0 PUSH2 0x140A DUP5 DUP3 DUP6 ADD PUSH2 0x13D1 JUMP JUMPDEST SWAP2 POP POP SWAP3 SWAP2 POP POP JUMP JUMPDEST PUSH1 0x0 DUP2 ISZERO ISZERO SWAP1 POP SWAP2 SWAP1 POP JUMP JUMPDEST PUSH2 0x1428 DUP2 PUSH2 0x1413 JUMP JUMPDEST DUP3 MSTORE POP POP JUMP JUMPDEST PUSH1 0x0 PUSH1 0x20 DUP3 ADD SWAP1 POP PUSH2 0x1443 PUSH1 0x0 DUP4 ADD DUP5 PUSH2 0x141F JUMP JUMPDEST SWAP3 SWAP2 POP POP JUMP JUMPDEST PUSH1 0x0 DUP2 MLOAD SWAP1 POP SWAP2 SWAP1 POP JUMP JUMPDEST PUSH1 0x0 DUP3 DUP3 MSTORE PUSH1 0x20 DUP3 ADD SWAP1 POP SWAP3 SWAP2 POP POP JUMP JUMPDEST PUSH1 0x0 JUMPDEST DUP4 DUP2 LT ISZERO PUSH2 0x1483 JUMPI DUP1 DUP3 ADD MLOAD DUP2 DUP5 ADD MSTORE PUSH1 0x20 DUP2 ADD SWAP1 POP PUSH2 0x1468 JUMP JUMPDEST PUSH1 0x0 DUP5 DUP5 ADD MSTORE POP POP POP POP JUMP JUMPDEST PUSH1 0x0 PUSH1 0x1F NOT PUSH1 0x1F DUP4 ADD AND SWAP1 POP SWAP2 SWAP1 POP JUMP JUMPDEST PUSH1 0x0 PUSH2 0x14AB DUP3 PUSH2 0x1449 JUMP JUMPDEST PUSH2 0x14B5 DUP2 DUP6 PUSH2 0x1454 JUMP JUMPDEST SWAP4 POP PUSH2 0x14C5 DUP2 DUP6 PUSH1 0x20 DUP7 ADD PUSH2 0x1465 JUMP JUMPDEST PUSH2 0x14CE DUP2 PUSH2 0x148F JUMP JUMPDEST DUP5 ADD SWAP2 POP POP SWAP3 SWAP2 POP POP JUMP JUMPDEST PUSH1 0x0 PUSH1 0x20 DUP3 ADD SWAP1 POP DUP2 DUP2 SUB PUSH1 0x0 DUP4 ADD MSTORE PUSH2 0x14F3 DUP2 DUP5 PUSH2 0x14A0 JUMP JUMPDEST SWAP1 POP SWAP3 SWAP2 POP POP JUMP JUMPDEST PUSH1 0x0 DUP2 SWAP1 POP SWAP2 SWAP1 POP JUMP JUMPDEST PUSH2 0x150E DUP2 PUSH2 0x14FB JUMP JUMPDEST DUP2 EQ PUSH2 0x1519 JUMPI PUSH1 0x0 DUP1 REVERT JUMPDEST POP JUMP JUMPDEST PUSH1 0x0 DUP2 CALLDATALOAD SWAP1 POP PUSH2 0x152B DUP2 PUSH2 0x1505 JUMP JUMPDEST SWAP3 SWAP2 POP POP JUMP JUMPDEST PUSH1 0x0 PUSH1 0x20 DUP3 DUP5 SUB SLT ISZERO PUSH2 0x1547 JUMPI PUSH2 0x1546 PUSH2 0x1384 JUMP JUMPDEST JUMPDEST PUSH1 0x0 PUSH2 0x1555 DUP5 DUP3 DUP6 ADD PUSH2 0x151C JUMP JUMPDEST SWAP2 POP POP SWAP3 SWAP2 POP POP JUMP JUMPDEST PUSH1 0x0 PUSH20 0xFFFFFFFFFFFFFFFFFFFFFFFFFFFFFFFFFFFFFFFF DUP3 AND SWAP1 POP SWAP2 SWAP1 POP JUMP JUMPDEST PUSH1 0x0 PUSH2 0x1589 DUP3 PUSH2 0x155E JUMP JUMPDEST SWAP1 POP SWAP2 SWAP1 POP JUMP JUMPDEST PUSH2 0x1599 DUP2 PUSH2 0x157E JUMP JUMPDEST DUP3 MSTORE POP POP JUMP JUMPDEST PUSH1 0x0 PUSH1 0x20 DUP3 ADD SWAP1 POP PUSH2 0x15B4 PUSH1 0x0 DUP4 ADD DUP5 PUSH2 0x1590 JUMP JUMPDEST SWAP3 SWAP2 POP POP JUMP JUMPDEST PUSH2 0x15C3 DUP2 PUSH2 0x157E JUMP JUMPDEST DUP2 EQ PUSH2 0x15CE JUMPI PUSH1 0x0 DUP1 REVERT JUMPDEST POP JUMP JUMPDEST PUSH1 0x0 DUP2 CALLDATALOAD SWAP1 POP PUSH2 0x15E0 DUP2 PUSH2 0x15BA JUMP JUMPDEST SWAP3 SWAP2 POP POP JUMP JUMPDEST PUSH1 0x0 DUP1 PUSH1 0x40 DUP4 DUP6 SUB SLT ISZERO PUSH2 0x15FD JUMPI PUSH2 0x15FC PUSH2 0x1384 JUMP JUMPDEST JUMPDEST PUSH1 0x0 PUSH2 0x160B DUP6 DUP3 DUP7 ADD PUSH2 0x15D1 JUMP JUMPDEST SWAP3 POP POP PUSH1 0x20 PUSH2 0x161C DUP6 DUP3 DUP7 ADD PUSH2 0x151C JUMP JUMPDEST SWAP2 POP POP SWAP3 POP SWAP3 SWAP1 POP JUMP JUMPDEST PUSH2 0x162F DUP2 PUSH2 0x14FB JUMP JUMPDEST DUP3 MSTORE POP POP JUMP JUMPDEST PUSH1 0x0 PUSH1 0x20 DUP3 ADD SWAP1 POP PUSH2 0x164A PUSH1 0x0 DUP4 ADD DUP5 PUSH2 0x1626 JUMP JUMPDEST SWAP3 SWAP2 POP POP JUMP JUMPDEST PUSH1 0x0 DUP1 PUSH1 0x0 PUSH1 0x60 DUP5 DUP7 SUB SLT ISZERO PUSH2 0x1669 JUMPI PUSH2 0x1668 PUSH2 0x1384 JUMP JUMPDEST JUMPDEST PUSH1 0x0 PUSH2 0x1677 DUP7 DUP3 DUP8 ADD PUSH2 0x15D1 JUMP JUMPDEST SWAP4 POP POP PUSH1 0x20 PUSH2 0x1688 DUP7 DUP3 DUP8 ADD PUSH2 0x15D1 JUMP JUMPDEST SWAP3 POP POP PUSH1 0x40 PUSH2 0x1699 DUP7 DUP3 DUP8 ADD PUSH2 0x151C JUMP JUMPDEST SWAP2 POP POP SWAP3 POP SWAP3 POP SWAP3 JUMP JUMPDEST PUSH1 0x0 PUSH1 0x20 DUP3 DUP5 SUB SLT ISZERO PUSH2 0x16B9 JUMPI PUSH2 0x16B8 PUSH2 0x1384 JUMP JUMPDEST JUMPDEST PUSH1 0x0 PUSH2 0x16C7 DUP5 DUP3 DUP6 ADD PUSH2 0x15D1 JUMP JUMPDEST SWAP2 POP POP SWAP3 SWAP2 POP POP JUMP JUMPDEST PUSH2 0x16D9 DUP2 PUSH2 0x1413 JUMP JUMPDEST DUP2 EQ PUSH2 0x16E4 JUMPI PUSH1 0x0 DUP1 REVERT JUMPDEST POP JUMP JUMPDEST PUSH1 0x0 DUP2 CALLDATALOAD SWAP1 POP PUSH2 0x16F6 DUP2 PUSH2 0x16D0 JUMP JUMPDEST SWAP3 SWAP2 POP POP JUMP JUMPDEST PUSH1 0x0 DUP1 PUSH1 0x40 DUP4 DUP6 SUB SLT ISZERO PUSH2 0x1713 JUMPI PUSH2 0x1712 PUSH2 0x1384 JUMP JUMPDEST JUMPDEST PUSH1 0x0 PUSH2 0x1721 DUP6 DUP3 DUP7 ADD PUSH2 0x15D1 JUMP JUMPDEST SWAP3 POP POP PUSH1 0x20 PUSH2 0x1732 DUP6 DUP3 DUP7 ADD PUSH2 0x16E7 JUMP JUMPDEST SWAP2 POP POP SWAP3 POP SWAP3 SWAP1 POP JUMP JUMPDEST PUSH1 0x0 DUP1 REVERT JUMPDEST PUSH1 0x0 DUP1 REVERT JUMPDEST PUSH32 0x4E487B7100000000000000000000000000000000000000000000000000000000 PUSH1 0x0 MSTORE PUSH1 0x41 PUSH1 0x4 MSTORE PUSH1 0x24 PUSH1 0x0 REVERT JUMPDEST PUSH2 0x177E DUP3 PUSH2 0x148F JUMP JUMPDEST DUP2 ADD DUP2 DUP2 LT PUSH8 0xFFFFFFFFFFFFFFFF DUP3 GT OR ISZERO PUSH2 0x179D JUMPI PUSH2 0x179C PUSH2 0x1746 JUMP JUMPDEST JUMPDEST DUP1 PUSH1 0x40 MSTORE POP POP POP JUMP JUMPDEST PUSH1 0x0 PUSH2 0x17B0 PUSH2 0x137A JUMP JUMPDEST SWAP1 POP PUSH2 0x17BC DUP3 DUP3 PUSH2 0x1775 JUMP JUMPDEST SWAP2 SWAP1 POP JUMP JUMPDEST PUSH1 0x0 PUSH8 0xFFFFFFFFFFFFFFFF DUP3 GT ISZERO PUSH2 0x17DC JUMPI PUSH2 0x17DB PUSH2 0x1746 JUMP JUMPDEST JUMPDEST PUSH2 0x17E5 DUP3 PUSH2 0x148F JUMP JUMPDEST SWAP1 POP PUSH1 0x20 DUP2 ADD SWAP1 POP SWAP2 SWAP1 POP JUMP JUMPDEST DUP3 DUP2 DUP4 CALLDATACOPY PUSH1 0x0 DUP4 DUP4 ADD MSTORE POP POP POP JUMP JUMPDEST PUSH1 0x0 PUSH2 0x1814 PUSH2 0x180F DUP5 PUSH2 0x17C1 JUMP JUMPDEST PUSH2 0x17A6 JUMP JUMPDEST SWAP1 POP DUP3 DUP2 MSTORE PUSH1 0x20 DUP2 ADD DUP5 DUP5 DUP5 ADD GT ISZERO PUSH2 0x1830 JUMPI PUSH2 0x182F PUSH2 0x1741 JUMP JUMPDEST JUMPDEST PUSH2 0x183B DUP5 DUP3 DUP6 PUSH2 0x17F2 JUMP JUMPDEST POP SWAP4 SWAP3 POP POP POP JUMP JUMPDEST PUSH1 0x0 DUP3 PUSH1 0x1F DUP4 ADD SLT PUSH2 0x1858 JUMPI PUSH2 0x1857 PUSH2 0x173C JUMP JUMPDEST JUMPDEST DUP2 CALLDATALOAD PUSH2 0x1868 DUP5 DUP3 PUSH1 0x20 DUP7 ADD PUSH2 0x1801 JUMP JUMPDEST SWAP2 POP POP SWAP3 SWAP2 POP POP JUMP JUMPDEST PUSH1 0x0 DUP1 PUSH1 0x0 DUP1 PUSH1 0x80 DUP6 DUP8 SUB SLT ISZERO PUSH2 0x188B JUMPI PUSH2 0x188A PUSH2 0x1384 JUMP JUMPDEST JUMPDEST PUSH1 0x0 PUSH2 0x1899 DUP8 DUP3 DUP9 ADD PUSH2 0x15D1 JUMP JUMPDEST SWAP5 POP POP PUSH1 0x20 PUSH2 0x18AA DUP8 DUP3 DUP9 ADD PUSH2 0x15D1 JUMP JUMPDEST SWAP4 POP POP PUSH1 0x40 PUSH2 0x18BB DUP8 DUP3 DUP9 ADD PUSH2 0x151C JUMP JUMPDEST SWAP3 POP POP PUSH1 0x60 DUP6 ADD CALLDATALOAD PUSH8 0xFFFFFFFFFFFFFFFF DUP2 GT ISZERO PUSH2 0x18DC JUMPI PUSH2 0x18DB PUSH2 0x1389 JUMP JUMPDEST JUMPDEST PUSH2 0x18E8 DUP8 DUP3 DUP9 ADD PUSH2 0x1843 JUMP JUMPDEST SWAP2 POP POP SWAP3 SWAP6 SWAP2 SWAP5 POP SWAP3 POP JUMP JUMPDEST PUSH1 0x0 DUP1 PUSH1 0x40 DUP4 DUP6 SUB SLT ISZERO PUSH2 0x190B JUMPI PUSH2 0x190A PUSH2 0x1384 JUMP JUMPDEST JUMPDEST PUSH1 0x0 PUSH2 0x1919 DUP6 DUP3 DUP7 ADD PUSH2 0x15D1 JUMP JUMPDEST SWAP3 POP POP PUSH1 0x20 PUSH2 0x192A DUP6 DUP3 DUP7 ADD PUSH2 0x15D1 JUMP JUMPDEST SWAP2 POP POP SWAP3 POP SWAP3 SWAP1 POP JUMP JUMPDEST PUSH32 0x4E487B7100000000000000000000000000000000000000000000000000000000 PUSH1 0x0 MSTORE PUSH1 0x22 PUSH1 0x4 MSTORE PUSH1 0x24 PUSH1 0x0 REVERT JUMPDEST PUSH1 0x0 PUSH1 0x2 DUP3 DIV SWAP1 POP PUSH1 0x1 DUP3 AND DUP1 PUSH2 0x197B JUMPI PUSH1 0x7F DUP3 AND SWAP2 POP JUMPDEST PUSH1 0x20 DUP3 LT DUP2 SUB PUSH2 0x198E JUMPI PUSH2 0x198D PUSH2 0x1934 JUMP JUMPDEST JUMPDEST POP SWAP2 SWAP1 POP JUMP JUMPDEST PUSH1 0x0 DUP2 SWAP1 POP SWAP3 SWAP2 POP POP JUMP JUMPDEST PUSH1 0x0 PUSH2 0x19AA DUP3 PUSH2 0x1449 JUMP JUMPDEST PUSH2 0x19B4 DUP2 DUP6 PUSH2 0x1994 JUMP JUMPDEST SWAP4 POP PUSH2 0x19C4 DUP2 DUP6 PUSH1 0x20 DUP7 ADD PUSH2 0x1465 JUMP JUMPDEST DUP1 DUP5 ADD SWAP2 POP POP SWAP3 SWAP2 POP POP JUMP JUMPDEST PUSH1 0x0 PUSH2 0x19DC DUP3 DUP6 PUSH2 0x199F JUMP JUMPDEST SWAP2 POP PUSH2 0x19E8 DUP3 DUP5 PUSH2 0x199F JUMP JUMPDEST SWAP2 POP DUP2 SWAP1 POP SWAP4 SWAP3 POP POP POP JUMP JUMPDEST PUSH32 0x4E487B7100000000000000000000000000000000000000000000000000000000 PUSH1 0x0 MSTORE PUSH1 0x11 PUSH1 0x4 MSTORE PUSH1 0x24 PUSH1 0x0 REVERT JUMPDEST PUSH1 0x0 PUSH2 0x1A2E DUP3 PUSH2 0x14FB JUMP JUMPDEST SWAP2 POP PUSH1 0x0 DUP3 SUB PUSH2 0x1A41 JUMPI PUSH2 0x1A40 PUSH2 0x19F4 JUMP JUMPDEST JUMPDEST PUSH1 0x1 DUP3 SUB SWAP1 POP SWAP2 SWAP1 POP JUMP JUMPDEST PUSH1 0x0 DUP2 MLOAD SWAP1 POP SWAP2 SWAP1 POP JUMP JUMPDEST PUSH1 0x0 DUP3 DUP3 MSTORE PUSH1 0x20 DUP3 ADD SWAP1 POP SWAP3 SWAP2 POP POP JUMP JUMPDEST PUSH1 0x0 PUSH2 0x1A73 DUP3 PUSH2 0x1A4C JUMP JUMPDEST PUSH2 0x1A7D DUP2 DUP6 PUSH2 0x1A57 JUMP JUMPDEST SWAP4 POP PUSH2 0x1A8D DUP2 DUP6 PUSH1 0x20 DUP7 ADD PUSH2 0x1465 JUMP JUMPDEST PUSH2 0x1A96 DUP2 PUSH2 0x148F JUMP JUMPDEST DUP5 ADD SWAP2 POP POP SWAP3 SWAP2 POP POP JUMP JUMPDEST PUSH1 0x0 PUSH1 0x80 DUP3 ADD SWAP1 POP PUSH2 0x1AB6 PUSH1 0x0 DUP4 ADD DUP8 PUSH2 0x1590 JUMP JUMPDEST PUSH2 0x1AC3 PUSH1 0x20 DUP4 ADD DUP7 PUSH2 0x1590 JUMP JUMPDEST PUSH2 0x1AD0 PUSH1 0x40 DUP4 ADD DUP6 PUSH2 0x1626 JUMP JUMPDEST DUP2 DUP2 SUB PUSH1 0x60 DUP4 ADD MSTORE PUSH2 0x1AE2 DUP2 DUP5 PUSH2 0x1A68 JUMP JUMPDEST SWAP1 POP SWAP6 SWAP5 POP POP POP POP POP JUMP JUMPDEST PUSH1 0x0 DUP2 MLOAD SWAP1 POP PUSH2 0x1AFC DUP2 PUSH2 0x13BA JUMP JUMPDEST SWAP3 SWAP2 POP POP JUMP JUMPDEST PUSH1 0x0 PUSH1 0x20 DUP3 DUP5 SUB SLT ISZERO PUSH2 0x1B18 JUMPI PUSH2 0x1B17 PUSH2 0x1384 JUMP JUMPDEST JUMPDEST PUSH1 0x0 PUSH2 0x1B26 DUP5 DUP3 DUP6 ADD PUSH2 0x1AED JUMP JUMPDEST SWAP2 POP POP SWAP3 SWAP2 POP POP JUMP INVALID LOG2 PUSH5 0x6970667358 0x22 SLT KECCAK256 SGT GASPRICE 0xC6 DUP14 0x4E SELFBALANCE GT DUP4 PUSH25 0xE8D723839EDC5625E8B2E6029E6753BEB888DE3465BEE56473 PUSH16 0x6C634300081400330000000000000000 "},"methodIdentifiers":{"approve(address,uint256)":"095ea7b3","balanceOf(address)":"70a08231","getApproved(uint256)":"081812fc","isApprovedForAll(address,address)":"e985e9c5","mint(uint256)":"a0712d68","name()":"06fdde03","ownerOf(uint256)":"6352211e","safeTransferFrom(address,address,uint256)":"42842e0e","safeTransferFrom(address,address,uint256,bytes)":"b88d4fde","setApprovalForAll(address,bool)":"a22cb465","supportsInterface(bytes4)":"01ffc9a7","symbol()":"95d89b41","tokenURI(uint256)":"c87b56dd","totalSupply()":"18160ddd","transferFrom(address,address,uint256)":"23b872dd"}}}}}