{"contracts/8/sender.sol":{"Sender":{"abi":[{"inputs":[{"internalType":"address","name":"addr","type":"address"}],"name":"send_with_call","outputs":[],"stateMutability":"payable","type":"function"},{"inputs":[{"internalType":"address payable","name":"addr","type":"address"}],"name":"send_with_transfer","outputs":[],"stateMutability":"payable","type":"function"}],"evm":{"bytecode":{"linkReferences":{},"object":"608060405234801561001057600080fd5b50610354806100206000396000f3fe6080604052600436106100295760003560e01c806394bdc7cb1461002e578063b84810641461004a575b600080fd5b610048600480360381019061004391906101c3565b610066565b005b610064600480360381019061005f919061022e565b610116565b005b60008173ffffffffffffffffffffffffffffffffffffffff163460405161008c9061028c565b60006040518083038185875af1925050503d80600081146100c9576040519150601f19603f3d011682016040523d82523d6000602084013e6100ce565b606091505b5050905080610112576040517f08c379a0000000000000000000000000000000000000000000000000000000008152600401610109906102fe565b60405180910390fd5b5050565b8073ffffffffffffffffffffffffffffffffffffffff166108fc349081150290604051600060405180830381858888f1935050505015801561015c573d6000803e3d6000fd5b5050565b600080fd5b600073ffffffffffffffffffffffffffffffffffffffff82169050919050565b600061019082610165565b9050919050565b6101a081610185565b81146101ab57600080fd5b50565b6000813590506101bd81610197565b92915050565b6000602082840312156101d9576101d8610160565b5b60006101e7848285016101ae565b91505092915050565b60006101fb82610165565b9050919050565b61020b816101f0565b811461021657600080fd5b50565b60008135905061022881610202565b92915050565b60006020828403121561024457610243610160565b5b600061025284828501610219565b91505092915050565b600081905092915050565b50565b600061027660008361025b565b915061028182610266565b600082019050919050565b600061029782610269565b9150819050919050565b600082825260208201905092915050565b7f63616c6c206661696c6564000000000000000000000000000000000000000000600082015250565b60006102e8600b836102a1565b91506102f3826102b2565b602082019050919050565b60006020820190508181036000830152610317816102db565b905091905056fea26469706673582212208d3b84487101b2f7a0aa69734293d26d1326bb6c3d614f79f33eb05096a13b1764736f6c63430008140033","opcodes":"PUSH1 0x80 PUSH1 0x40 MSTORE CALLVALUE DUP1 ISZERO PUSH2 0x10 JUMPI PUSH1 0x0 DUP1 REVERT JUMPDEST POP PUSH2 0x354 DUP1 PUSH2 0x20 PUSH1 0x0 CODECOPY PUSH1 0x0 RETURN INVALID PUSH1 0x80 PUSH1 0x40 MSTORE PUSH1 0x4 CALLDATASIZE LT PUSH2 0x29 JUMPI PUSH1 0x0 CALLDATALOAD PUSH1 0xE0 SHR DUP1 PUSH4 0x94BDC7CB EQ PUSH2 0x2E JUMPI DUP1 PUSH4 0xB8481064 EQ PUSH2 0x4A JUMPI JUMPDEST PUSH1 0x0 DUP1 REVERT JUMPDEST PUSH2 0x48 PUSH1 0x4 DUP1 CALLDATASIZE SUB DUP2 ADD SWAP1 PUSH2 0x43 SWAP2 SWAP1 PUSH2 0x1C3 JUMP JUMPDEST PUSH2 0x66 JUMP JUMPDEST STOP JUMPDEST PUSH2 0x64 PUSH1 0x4 DUP1 CALLDATASIZE SUB DUP2 ADD SWAP1 PUSH2 0x5F SWAP2 SWAP1 PUSH2 0x22E JUMP JUMPDEST PUSH2 0x116 JUMP JUMPDEST STOP JUMPDEST PUSH1 0x0 DUP2 PUSH20 0xFFFFFFFFFFFFFFFFFFFFFFFFFFFFFFFFFFFFFFFF AND CALLVALUE PUSH1 0x40 MLOAD PUSH2 0x8C SWAP1 PUSH2 0x28C JUMP JUMPDEST PUSH1 0x0 PUSH1 0x40 MLOAD DUP1 DUP4 SUB DUP2 DUP6 DUP8 GAS CALL SWAP3 POP POP POP RETURNDATASIZE DUP1 PUSH1 0x0 DUP2 EQ PUSH2 0xC9 JUMPI PUSH1 0x40 MLOAD SWAP2 POP PUSH1 0x1F NOT PUSH1 0x3F RETURNDATASIZE ADD AND DUP3 ADD PUSH1 0x40 MSTORE RETURNDATASIZE DUP3 MSTORE RETURNDATASIZE PUSH1 0x0 PUSH1 0x20 DUP5 ADD RETURNDATACOPY PUSH2 0xCE JUMP JUMPDEST PUSH1 0x60 SWAP2 POP JUMPDEST POP POP SWAP1 POP DUP1 PUSH2 0x112 JUMPI PUSH1 0x40 MLOAD PUSH32 0x8C379A000000000000000000000000000000000000000000000000000000000 DUP2 MSTORE PUSH1 0x4 ADD PUSH2 0x109 SWAP1 PUSH2 0x2FE JUMP JUMPDEST PUSH1 0x40 MLOAD DUP1 SWAP2 SUB SWAP1 REVERT JUMPDEST POP POP JUMP JUMPDEST DUP1 PUSH20 0xFFFFFFFFFFFFFFFFFFFFFFFFFFFFFFFFFFFFFFFF AND PUSH2 0x8FC CALLVALUE SWAP1 DUP2 ISZERO MUL SWAP1 PUSH1 0x40 MLOAD PUSH1 0x0 PUSH1 0x40 MLOAD DUP1 DUP4 SUB DUP2 DUP6 DUP9 DUP9 CALL SWAP4 POP POP POP POP ISZERO DUP1 ISZERO PUSH2 0x15C JUMPI RETURNDATASIZE PUSH1 0x0 DUP1 RETURNDATACOPY RETURNDATASIZE PUSH1 0x0 REVERT JUMPDEST POP POP JUMP JUMPDEST PUSH1 0x0 DUP1 REVERT JUMPDEST PUSH1 0x0 PUSH20 0xFFFFFFFFFFFFFFFFFFFFFFFFFFFFFFFFFFFFFFFF DUP3 AND SWAP1 POP SWAP2 SWAP1 POP JUMP JUMPDEST PUSH1 0x0 PUSH2 0x190 DUP3 PUSH2 0x165 JUMP JUMPDEST SWAP1 POP SWAP2 SWAP1 POP JUMP JUMPDEST PUSH2 0x1A0 DUP2 PUSH2 0x185 JUMP JUMPDEST DUP2 EQ PUSH2 0x1AB JUMPI PUSH1 0x0 DUP1 REVERT JUMPDEST POP JUMP JUMPDEST PUSH1 0x0 DUP2 CALLDATALOAD SWAP1 POP PUSH2 0x1BD DUP2 PUSH2 0x197 JUMP JUMPDEST SWAP3 SWAP2 POP POP JUMP JUMPDEST PUSH1 0x0 PUSH1 0x20 DUP3 DUP5 SUB SLT ISZERO PUSH2 0x1D9 JUMPI PUSH2 0x1D8 PUSH2 0x160 JUMP JUMPDEST JUMPDEST PUSH1 0x0 PUSH2 0x1E7 DUP5 DUP3 DUP6 ADD PUSH2 0x1AE JUMP JUMPDEST SWAP2 POP POP SWAP3 SWAP2 POP POP JUMP JUMPDEST PUSH1 0x0 PUSH2 0x1FB DUP3 PUSH2 0x165 JUMP JUMPDEST SWAP1 POP SWAP2 SWAP1 POP JUMP JUMPDEST PUSH2 0x20B DUP2 PUSH2 0x1F0 JUMP JUMPDEST DUP2 EQ PUSH2 0x216 JUMPI PUSH1 0x0 DUP1 REVERT JUMPDEST POP JUMP JUMPDEST PUSH1 0x0 DUP2 CALLDATALOAD SWAP1 POP PUSH2 0x228 DUP2 PUSH2 0x202 JUMP JUMPDEST SWAP3 SWAP2 POP POP JUMP JUMPDEST PUSH1 0x0 PUSH1 0x20 DUP3 DUP5 SUB SLT ISZERO PUSH2 0x244 JUMPI PUSH2 0x243 PUSH2 0x160 JUMP JUMPDEST JUMPDEST PUSH1 0x0 PUSH2 0x252 DUP5 DUP3 DUP6 ADD PUSH2 0x219 JUMP JUMPDEST SWAP2 POP POP SWAP3 SWAP2 POP POP JUMP JUMPDEST PUSH1 0x0 DUP2 SWAP1 POP SWAP3 SWAP2 POP POP JUMP JUMPDEST POP JUMP JUMPDEST PUSH1 0x0 PUSH2 0x276 PUSH1 0x0 DUP4 PUSH2 0x25B JUMP JUMPDEST SWAP2 POP PUSH2 0x281 DUP3 PUSH2 0x266 JUMP JUMPDEST PUSH1 0x0 DUP3 ADD SWAP1 POP SWAP2 SWAP1 POP JUMP JUMPDEST PUSH1 0x0 PUSH2 0x297 DUP3 PUSH2 0x269 JUMP JUMPDEST SWAP2 POP DUP2 SWAP1 POP SWAP2 SWAP1 POP JUMP JUMPDEST PUSH1 0x0 DUP3 DUP3 MSTORE PUSH1 0x20 DUP3 ADD SWAP1 POP SWAP3 SWAP2 POP POP JUMP JUMPDEST PUSH32 0x63616C6C206661696C6564000000000000000000000000000000000000000000 PUSH1 0x0 DUP3 ADD MSTORE POP JUMP JUMPDEST PUSH1 0x0 PUSH2 0x2E8 PUSH1 0xB DUP4 PUSH2 0x2A1 JUMP JUMPDEST SWAP2 POP PUSH2 0x2F3 DUP3 PUSH2 0x2B2 JUMP JUMPDEST PUSH1 0x20 DUP3 ADD SWAP1 POP SWAP2 SWAP1 POP JUMP JUMPDEST PUSH1 0x0 PUSH1 0x20 DUP3 ADD SWAP1 POP DUP2 DUP2 SUB PUSH1 0x0 DUP4 ADD MSTORE PUSH2 0x317 DUP2 PUSH2 0x2DB JUMP JUMPDEST SWAP1 POP SWAP2 SWAP1 POP JUMP INVALID LOG2 PUSH5 0x6970667358 0x22 SLT KECCAK256 DUP14 EXTCODESIZE DUP5 BASEFEE PUSH18 0x1B2F7A0AA69734293D26D1326BB6C3D614F PUSH26 0xF33EB05096A13B1764736F6C6343000814003300000000000000 "},"methodIdentifiers":{"send_with_call(address)":"94bdc7cb","send_with_transfer(address)":"b8481064"}}}}}