{"contracts/12/reentryattack_bank.sol":{"Reentryattack_bank":{"abi":[{"anonymous":false,"inputs":[{"indexed":true,"internalType":"address","name":"user","type":"address"},{"indexed":false,"internalType":"uint256","name":"amount","type":"uint256"}],"name":"Deposit","type":"event"},{"anonymous":false,"inputs":[{"indexed":true,"internalType":"address","name":"user","type":"address"},{"indexed":false,"internalType":"uint256","name":"amount","type":"uint256"}],"name":"Withdraw","type":"event"},{"inputs":[],"name":"deposit","outputs":[],"stateMutability":"payable","type":"function"},{"inputs":[{"internalType":"address","name":"","type":"address"}],"name":"deposits","outputs":[{"internalType":"uint256","name":"","type":"uint256"}],"stateMutability":"view","type":"function"},{"inputs":[],"name":"withdraw","outputs":[],"stateMutability":"nonpayable","type":"function"}],"evm":{"bytecode":{"linkReferences":{},"object":"608060405234801561001057600080fd5b506104a5806100206000396000f3fe6080604052600436106100345760003560e01c80633ccfd60b14610039578063d0e30db014610050578063fc7e286d1461005a575b600080fd5b34801561004557600080fd5b5061004e610097565b005b6100586101c8565b005b34801561006657600080fd5b50610081600480360381019061007c91906102e8565b61026d565b60405161008e919061032e565b60405180910390f35b60003373ffffffffffffffffffffffffffffffffffffffff166000803373ffffffffffffffffffffffffffffffffffffffff1673ffffffffffffffffffffffffffffffffffffffff168152602001908152602001600020546040516100fb9061037a565b60006040518083038185875af1925050503d8060008114610138576040519150601f19603f3d011682016040523d82523d6000602084013e61013d565b606091505b5050905080610181576040517f08c379a0000000000000000000000000000000000000000000000000000000008152600401610178906103ec565b60405180910390fd5b60008060003373ffffffffffffffffffffffffffffffffffffffff1673ffffffffffffffffffffffffffffffffffffffff1681526020019081526020016000208190555050565b346000803373ffffffffffffffffffffffffffffffffffffffff1673ffffffffffffffffffffffffffffffffffffffff1681526020019081526020016000206000828254610216919061043b565b925050819055503373ffffffffffffffffffffffffffffffffffffffff167fe1fffcc4923d04b559f4d29a8bfc6cda04eb5b0d3c460751c2402c5c5cc9109c34604051610263919061032e565b60405180910390a2565b60006020528060005260406000206000915090505481565b600080fd5b600073ffffffffffffffffffffffffffffffffffffffff82169050919050565b60006102b58261028a565b9050919050565b6102c5816102aa565b81146102d057600080fd5b50565b6000813590506102e2816102bc565b92915050565b6000602082840312156102fe576102fd610285565b5b600061030c848285016102d3565b91505092915050565b6000819050919050565b61032881610315565b82525050565b6000602082019050610343600083018461031f565b92915050565b600081905092915050565b50565b6000610364600083610349565b915061036f82610354565b600082019050919050565b600061038582610357565b9150819050919050565b600082825260208201905092915050565b7f4661696c65640000000000000000000000000000000000000000000000000000600082015250565b60006103d660068361038f565b91506103e1826103a0565b602082019050919050565b60006020820190508181036000830152610405816103c9565b9050919050565b7f4e487b7100000000000000000000000000000000000000000000000000000000600052601160045260246000fd5b600061044682610315565b915061045183610315565b92508282019050808211156104695761046861040c565b5b9291505056fea264697066735822122059231b8e0c1f9ab4cdb4ef58d8e832485a8f3b75c4aa3be70483ab17beb5f06164736f6c63430008140033","opcodes":"PUSH1 0x80 PUSH1 0x40 MSTORE CALLVALUE DUP1 ISZERO PUSH2 0x10 JUMPI PUSH1 0x0 DUP1 REVERT JUMPDEST POP PUSH2 0x4A5 DUP1 PUSH2 0x20 PUSH1 0x0 CODECOPY PUSH1 0x0 RETURN INVALID PUSH1 0x80 PUSH1 0x40 MSTORE PUSH1 0x4 CALLDATASIZE LT PUSH2 0x34 JUMPI PUSH1 0x0 CALLDATALOAD PUSH1 0xE0 SHR DUP1 PUSH4 0x3CCFD60B EQ PUSH2 0x39 JUMPI DUP1 PUSH4 0xD0E30DB0 EQ PUSH2 0x50 JUMPI DUP1 PUSH4 0xFC7E286D EQ PUSH2 0x5A JUMPI JUMPDEST PUSH1 0x0 DUP1 REVERT JUMPDEST CALLVALUE DUP1 ISZERO PUSH2 0x45 JUMPI PUSH1 0x0 DUP1 REVERT JUMPDEST POP PUSH2 0x4E PUSH2 0x97 JUMP JUMPDEST STOP JUMPDEST PUSH2 0x58 PUSH2 0x1C8 JUMP JUMPDEST STOP JUMPDEST CALLVALUE DUP1 ISZERO PUSH2 0x66 JUMPI PUSH1 0x0 DUP1 REVERT JUMPDEST POP PUSH2 0x81 PUSH1 0x4 DUP1 CALLDATASIZE SUB DUP2 ADD SWAP1 PUSH2 0x7C SWAP2 SWAP1 PUSH2 0x2E8 JUMP JUMPDEST PUSH2 0x26D JUMP JUMPDEST PUSH1 0x40 MLOAD PUSH2 0x8E SWAP2 SWAP1 PUSH2 0x32E JUMP JUMPDEST PUSH1 0x40 MLOAD DUP1 SWAP2 SUB SWAP1 RETURN JUMPDEST PUSH1 0x0 CALLER PUSH20 0xFFFFFFFFFFFFFFFFFFFFFFFFFFFFFFFFFFFFFFFF AND PUSH1 0x0 DUP1 CALLER PUSH20 0xFFFFFFFFFFFFFFFFFFFFFFFFFFFFFFFFFFFFFFFF AND PUSH20 0xFFFFFFFFFFFFFFFFFFFFFFFFFFFFFFFFFFFFFFFF AND DUP2 MSTORE PUSH1 0x20 ADD SWAP1 DUP2 MSTORE PUSH1 0x20 ADD PUSH1 0x0 KECCAK256 SLOAD PUSH1 0x40 MLOAD PUSH2 0xFB SWAP1 PUSH2 0x37A JUMP JUMPDEST PUSH1 0x0 PUSH1 0x40 MLOAD DUP1 DUP4 SUB DUP2 DUP6 DUP8 GAS CALL SWAP3 POP POP POP RETURNDATASIZE DUP1 PUSH1 0x0 DUP2 EQ PUSH2 0x138 JUMPI PUSH1 0x40 MLOAD SWAP2 POP PUSH1 0x1F NOT PUSH1 0x3F RETURNDATASIZE ADD AND DUP3 ADD PUSH1 0x40 MSTORE RETURNDATASIZE DUP3 MSTORE RETURNDATASIZE PUSH1 0x0 PUSH1 0x20 DUP5 ADD RETURNDATACOPY PUSH2 0x13D JUMP JUMPDEST PUSH1 0x60 SWAP2 POP JUMPDEST POP POP SWAP1 POP DUP1 PUSH2 0x181 JUMPI PUSH1 0x40 MLOAD PUSH32 0x8C379A000000000000000000000000000000000000000000000000000000000 DUP2 MSTORE PUSH1 0x4 ADD PUSH2 0x178 SWAP1 PUSH2 0x3EC JUMP JUMPDEST PUSH1 0x40 MLOAD DUP1 SWAP2 SUB SWAP1 REVERT JUMPDEST PUSH1 0x0 DUP1 PUSH1 0x0 CALLER PUSH20 0xFFFFFFFFFFFFFFFFFFFFFFFFFFFFFFFFFFFFFFFF AND PUSH20 0xFFFFFFFFFFFFFFFFFFFFFFFFFFFFFFFFFFFFFFFF AND DUP2 MSTORE PUSH1 0x20 ADD SWAP1 DUP2 MSTORE PUSH1 0x20 ADD PUSH1 0x0 KECCAK256 DUP2 SWAP1 SSTORE POP POP JUMP JUMPDEST CALLVALUE PUSH1 0x0 DUP1 CALLER PUSH20 0xFFFFFFFFFFFFFFFFFFFFFFFFFFFFFFFFFFFFFFFF AND PUSH20 0xFFFFFFFFFFFFFFFFFFFFFFFFFFFFFFFFFFFFFFFF AND DUP2 MSTORE PUSH1 0x20 ADD SWAP1 DUP2 MSTORE PUSH1 0x20 ADD PUSH1 0x0 KECCAK256 PUSH1 0x0 DUP3 DUP3 SLOAD PUSH2 0x216 SWAP2 SWAP1 PUSH2 0x43B JUMP JUMPDEST SWAP3 POP POP DUP2 SWAP1 SSTORE POP CALLER PUSH20 0xFFFFFFFFFFFFFFFFFFFFFFFFFFFFFFFFFFFFFFFF AND PUSH32 0xE1FFFCC4923D04B559F4D29A8BFC6CDA04EB5B0D3C460751C2402C5C5CC9109C CALLVALUE PUSH1 0x40 MLOAD PUSH2 0x263 SWAP2 SWAP1 PUSH2 0x32E JUMP JUMPDEST PUSH1 0x40 MLOAD DUP1 SWAP2 SUB SWAP1 LOG2 JUMP JUMPDEST PUSH1 0x0 PUSH1 0x20 MSTORE DUP1 PUSH1 0x0 MSTORE PUSH1 0x40 PUSH1 0x0 KECCAK256 PUSH1 0x0 SWAP2 POP SWAP1 POP SLOAD DUP2 JUMP JUMPDEST PUSH1 0x0 DUP1 REVERT JUMPDEST PUSH1 0x0 PUSH20 0xFFFFFFFFFFFFFFFFFFFFFFFFFFFFFFFFFFFFFFFF DUP3 AND SWAP1 POP SWAP2 SWAP1 POP JUMP JUMPDEST PUSH1 0x0 PUSH2 0x2B5 DUP3 PUSH2 0x28A JUMP JUMPDEST SWAP1 POP SWAP2 SWAP1 POP JUMP JUMPDEST PUSH2 0x2C5 DUP2 PUSH2 0x2AA JUMP JUMPDEST DUP2 EQ PUSH2 0x2D0 JUMPI PUSH1 0x0 DUP1 REVERT JUMPDEST POP JUMP JUMPDEST PUSH1 0x0 DUP2 CALLDATALOAD SWAP1 POP PUSH2 0x2E2 DUP2 PUSH2 0x2BC JUMP JUMPDEST SWAP3 SWAP2 POP POP JUMP JUMPDEST PUSH1 0x0 PUSH1 0x20 DUP3 DUP5 SUB SLT ISZERO PUSH2 0x2FE JUMPI PUSH2 0x2FD PUSH2 0x285 JUMP JUMPDEST JUMPDEST PUSH1 0x0 PUSH2 0x30C DUP5 DUP3 DUP6 ADD PUSH2 0x2D3 JUMP JUMPDEST SWAP2 POP POP SWAP3 SWAP2 POP POP JUMP JUMPDEST PUSH1 0x0 DUP2 SWAP1 POP SWAP2 SWAP1 POP JUMP JUMPDEST PUSH2 0x328 DUP2 PUSH2 0x315 JUMP JUMPDEST DUP3 MSTORE POP POP JUMP JUMPDEST PUSH1 0x0 PUSH1 0x20 DUP3 ADD SWAP1 POP PUSH2 0x343 PUSH1 0x0 DUP4 ADD DUP5 PUSH2 0x31F JUMP JUMPDEST SWAP3 SWAP2 POP POP JUMP JUMPDEST PUSH1 0x0 DUP2 SWAP1 POP SWAP3 SWAP2 POP POP JUMP JUMPDEST POP JUMP JUMPDEST PUSH1 0x0 PUSH2 0x364 PUSH1 0x0 DUP4 PUSH2 0x349 JUMP JUMPDEST SWAP2 POP PUSH2 0x36F DUP3 PUSH2 0x354 JUMP JUMPDEST PUSH1 0x0 DUP3 ADD SWAP1 POP SWAP2 SWAP1 POP JUMP JUMPDEST PUSH1 0x0 PUSH2 0x385 DUP3 PUSH2 0x357 JUMP JUMPDEST SWAP2 POP DUP2 SWAP1 POP SWAP2 SWAP1 POP JUMP JUMPDEST PUSH1 0x0 DUP3 DUP3 MSTORE PUSH1 0x20 DUP3 ADD SWAP1 POP SWAP3 SWAP2 POP POP JUMP JUMPDEST PUSH32 0x4661696C65640000000000000000000000000000000000000000000000000000 PUSH1 0x0 DUP3 ADD MSTORE POP JUMP JUMPDEST PUSH1 0x0 PUSH2 0x3D6 PUSH1 0x6 DUP4 PUSH2 0x38F JUMP JUMPDEST SWAP2 POP PUSH2 0x3E1 DUP3 PUSH2 0x3A0 JUMP JUMPDEST PUSH1 0x20 DUP3 ADD SWAP1 POP SWAP2 SWAP1 POP JUMP JUMPDEST PUSH1 0x0 PUSH1 0x20 DUP3 ADD SWAP1 POP DUP2 DUP2 SUB PUSH1 0x0 DUP4 ADD MSTORE PUSH2 0x405 DUP2 PUSH2 0x3C9 JUMP JUMPDEST SWAP1 POP SWAP2 SWAP1 POP JUMP JUMPDEST PUSH32 0x4E487B7100000000000000000000000000000000000000000000000000000000 PUSH1 0x0 MSTORE PUSH1 0x11 PUSH1 0x4 MSTORE PUSH1 0x24 PUSH1 0x0 REVERT JUMPDEST PUSH1 0x0 PUSH2 0x446 DUP3 PUSH2 0x315 JUMP JUMPDEST SWAP2 POP PUSH2 0x451 DUP4 PUSH2 0x315 JUMP JUMPDEST SWAP3 POP DUP3 DUP3 ADD SWAP1 POP DUP1 DUP3 GT ISZERO PUSH2 0x469 JUMPI PUSH2 0x468 PUSH2 0x40C JUMP JUMPDEST JUMPDEST SWAP3 SWAP2 POP POP JUMP INVALID LOG2 PUSH5 0x6970667358 0x22 SLT KECCAK256 MSIZE 0x23 SHL DUP15 0xC 0x1F SWAP11 0xB4 0xCD 0xB4 0xEF PC 0xD8 0xE8 ORIGIN BASEFEE GAS DUP16 EXTCODESIZE PUSH22 0xC4AA3BE70483AB17BEB5F06164736F6C634300081400 CALLER "},"methodIdentifiers":{"deposit()":"d0e30db0","deposits(address)":"fc7e286d","withdraw()":"3ccfd60b"}}}}}