{"contracts/fallback.sol":{"Fallback_test":{"abi":[{"stateMutability":"nonpayable","type":"fallback"},{"inputs":[],"name":"count","outputs":[{"internalType":"uint256","name":"","type":"uint256"}],"stateMutability":"view","type":"function"}],"evm":{"bytecode":{"linkReferences":{},"object":"608060405234801561001057600080fd5b50610336806100206000396000f3fe608060405234801561001057600080fd5b506004361061002f5760003560e01c806306661abd146100ff57610030565b5b600080366000906004926100469392919061012d565b9061005191906101ac565b90507fb1f525c69a40a3b3a4dbb8c8955feb9dc66b6f3f7ac1f13b3d04e042b210ec4b7bffffffffffffffffffffffffffffffffffffffffffffffffffffffff1916817bffffffffffffffffffffffffffffffffffffffffffffffffffffffff1916036100fb576000803660049080926100cd9392919061012d565b8101906100da9190610246565b9050806000808282546100ed91906102a2565b9250508190555050506100fd565b505b005b61010761011d565b60405161011491906102e5565b60405180910390f35b60005481565b600080fd5b600080fd5b6000808585111561014157610140610123565b5b8386111561015257610151610128565b5b6001850283019150848603905094509492505050565b600082905092915050565b60007fffffffff0000000000000000000000000000000000000000000000000000000082169050919050565b600082821b905092915050565b60006101b88383610168565b826101c38135610173565b92506004821015610203576101fe7fffffffff000000000000000000000000000000000000000000000000000000008360040360080261019f565b831692505b505092915050565b600080fd5b6000819050919050565b61022381610210565b811461022e57600080fd5b50565b6000813590506102408161021a565b92915050565b60006020828403121561025c5761025b61020b565b5b600061026a84828501610231565b91505092915050565b7f4e487b7100000000000000000000000000000000000000000000000000000000600052601160045260246000fd5b60006102ad82610210565b91506102b883610210565b92508282019050808211156102d0576102cf610273565b5b92915050565b6102df81610210565b82525050565b60006020820190506102fa60008301846102d6565b9291505056fea264697066735822122027b809c52e14ad647b2dc95d5c45f03d2986beb179993e623b38569c74d3a50564736f6c63430008140033","opcodes":"PUSH1 0x80 PUSH1 0x40 MSTORE CALLVALUE DUP1 ISZERO PUSH2 0x10 JUMPI PUSH1 0x0 DUP1 REVERT JUMPDEST POP PUSH2 0x336 DUP1 PUSH2 0x20 PUSH1 0x0 CODECOPY PUSH1 0x0 RETURN INVALID PUSH1 0x80 PUSH1 0x40 MSTORE CALLVALUE DUP1 ISZERO PUSH2 0x10 JUMPI PUSH1 0x0 DUP1 REVERT JUMPDEST POP PUSH1 0x4 CALLDATASIZE LT PUSH2 0x2F JUMPI PUSH1 0x0 CALLDATALOAD PUSH1 0xE0 SHR DUP1 PUSH4 0x6661ABD EQ PUSH2 0xFF JUMPI PUSH2 0x30 JUMP JUMPDEST JUMPDEST PUSH1 0x0 DUP1 CALLDATASIZE PUSH1 0x0 SWAP1 PUSH1 0x4 SWAP3 PUSH2 0x46 SWAP4 SWAP3 SWAP2 SWAP1 PUSH2 0x12D JUMP JUMPDEST SWAP1 PUSH2 0x51 SWAP2 SWAP1 PUSH2 0x1AC JUMP JUMPDEST SWAP1 POP PUSH32 0xB1F525C69A40A3B3A4DBB8C8955FEB9DC66B6F3F7AC1F13B3D04E042B210EC4B PUSH28 0xFFFFFFFFFFFFFFFFFFFFFFFFFFFFFFFFFFFFFFFFFFFFFFFFFFFFFFFF NOT AND DUP2 PUSH28 0xFFFFFFFFFFFFFFFFFFFFFFFFFFFFFFFFFFFFFFFFFFFFFFFFFFFFFFFF NOT AND SUB PUSH2 0xFB JUMPI PUSH1 0x0 DUP1 CALLDATASIZE PUSH1 0x4 SWAP1 DUP1 SWAP3 PUSH2 0xCD SWAP4 SWAP3 SWAP2 SWAP1 PUSH2 0x12D JUMP JUMPDEST DUP2 ADD SWAP1 PUSH2 0xDA SWAP2 SWAP1 PUSH2 0x246 JUMP JUMPDEST SWAP1 POP DUP1 PUSH1 0x0 DUP1 DUP3 DUP3 SLOAD PUSH2 0xED SWAP2 SWAP1 PUSH2 0x2A2 JUMP JUMPDEST SWAP3 POP POP DUP2 SWAP1 SSTORE POP POP POP PUSH2 0xFD JUMP JUMPDEST POP JUMPDEST STOP JUMPDEST PUSH2 0x107 PUSH2 0x11D JUMP JUMPDEST PUSH1 0x40 MLOAD PUSH2 0x114 SWAP2 SWAP1 PUSH2 0x2E5 JUMP JUMPDEST PUSH1 0x40 MLOAD DUP1 SWAP2 SUB SWAP1 RETURN JUMPDEST PUSH1 0x0 SLOAD DUP2 JUMP JUMPDEST PUSH1 0x0 DUP1 REVERT JUMPDEST PUSH1 0x0 DUP1 REVERT JUMPDEST PUSH1 0x0 DUP1 DUP6 DUP6 GT ISZERO PUSH2 0x141 JUMPI PUSH2 0x140 PUSH2 0x123 JUMP JUMPDEST JUMPDEST DUP4 DUP7 GT ISZERO PUSH2 0x152 JUMPI PUSH2 0x151 PUSH2 0x128 JUMP JUMPDEST JUMPDEST PUSH1 0x1 DUP6 MUL DUP4 ADD SWAP2 POP DUP5 DUP7 SUB SWAP1 POP SWAP5 POP SWAP5 SWAP3 POP POP POP JUMP JUMPDEST PUSH1 0x0 DUP3 SWAP1 POP SWAP3 SWAP2 POP POP JUMP JUMPDEST PUSH1 0x0 PUSH32 0xFFFFFFFF00000000000000000000000000000000000000000000000000000000 DUP3 AND SWAP1 POP SWAP2 SWAP1 POP JUMP JUMPDEST PUSH1 0x0 DUP3 DUP3 SHL SWAP1 POP SWAP3 SWAP2 POP POP JUMP JUMPDEST PUSH1 0x0 PUSH2 0x1B8 DUP4 DUP4 PUSH2 0x168 JUMP JUMPDEST DUP3 PUSH2 0x1C3 DUP2 CALLDATALOAD PUSH2 0x173 JUMP JUMPDEST SWAP3 POP PUSH1 0x4 DUP3 LT ISZERO PUSH2 0x203 JUMPI PUSH2 0x1FE PUSH32 0xFFFFFFFF00000000000000000000000000000000000000000000000000000000 DUP4 PUSH1 0x4 SUB PUSH1 0x8 MUL PUSH2 0x19F JUMP JUMPDEST DUP4 AND SWAP3 POP JUMPDEST POP POP SWAP3 SWAP2 POP POP JUMP JUMPDEST PUSH1 0x0 DUP1 REVERT JUMPDEST PUSH1 0x0 DUP2 SWAP1 POP SWAP2 SWAP1 POP JUMP JUMPDEST PUSH2 0x223 DUP2 PUSH2 0x210 JUMP JUMPDEST DUP2 EQ PUSH2 0x22E JUMPI PUSH1 0x0 DUP1 REVERT JUMPDEST POP JUMP JUMPDEST PUSH1 0x0 DUP2 CALLDATALOAD SWAP1 POP PUSH2 0x240 DUP2 PUSH2 0x21A JUMP JUMPDEST SWAP3 SWAP2 POP POP JUMP JUMPDEST PUSH1 0x0 PUSH1 0x20 DUP3 DUP5 SUB SLT ISZERO PUSH2 0x25C JUMPI PUSH2 0x25B PUSH2 0x20B JUMP JUMPDEST JUMPDEST PUSH1 0x0 PUSH2 0x26A DUP5 DUP3 DUP6 ADD PUSH2 0x231 JUMP JUMPDEST SWAP2 POP POP SWAP3 SWAP2 POP POP JUMP JUMPDEST PUSH32 0x4E487B7100000000000000000000000000000000000000000000000000000000 PUSH1 0x0 MSTORE PUSH1 0x11 PUSH1 0x4 MSTORE PUSH1 0x24 PUSH1 0x0 REVERT JUMPDEST PUSH1 0x0 PUSH2 0x2AD DUP3 PUSH2 0x210 JUMP JUMPDEST SWAP2 POP PUSH2 0x2B8 DUP4 PUSH2 0x210 JUMP JUMPDEST SWAP3 POP DUP3 DUP3 ADD SWAP1 POP DUP1 DUP3 GT ISZERO PUSH2 0x2D0 JUMPI PUSH2 0x2CF PUSH2 0x273 JUMP JUMPDEST JUMPDEST SWAP3 SWAP2 POP POP JUMP JUMPDEST PUSH2 0x2DF DUP2 PUSH2 0x210 JUMP JUMPDEST DUP3 MSTORE POP POP JUMP JUMPDEST PUSH1 0x0 PUSH1 0x20 DUP3 ADD SWAP1 POP PUSH2 0x2FA PUSH1 0x0 DUP4 ADD DUP5 PUSH2 0x2D6 JUMP JUMPDEST SWAP3 SWAP2 POP POP JUMP INVALID LOG2 PUSH5 0x6970667358 0x22 SLT KECCAK256 0x27 0xB8 MULMOD 0xC5 0x2E EQ 0xAD PUSH5 0x7B2DC95D5C GASLIMIT CREATE RETURNDATASIZE 0x29 DUP7 0xBE 0xB1 PUSH26 0x993E623B38569C74D3A50564736F6C6343000814003300000000 "},"methodIdentifiers":{"count()":"06661abd"}}}}}