{
  "_format": "hh-sol-artifact-1",
  "contractName": "Vault",
  "sourceName": "contracts/10/vault.sol",
  "abi": [
    {
      "inputs": [],
      "stateMutability": "nonpayable",
      "type": "constructor"
    },
    {
      "inputs": [],
      "name": "owner",
      "outputs": [
        {
          "internalType": "address",
          "name": "",
          "type": "address"
        }
      ],
      "stateMutability": "view",
      "type": "function"
    },
    {
      "inputs": [
        {
          "internalType": "address",
          "name": "token",
          "type": "address"
        },
        {
          "internalType": "address",
          "name": "from",
          "type": "address"
        },
        {
          "internalType": "uint256",
          "name": "amount",
          "type": "uint256"
        }
      ],
      "name": "pullToken",
      "outputs": [],
      "stateMutability": "nonpayable",
      "type": "function"
    }
  ],
  "bytecode": "0x608060405234801561001057600080fd5b50336000806101000a81548173ffffffffffffffffffffffffffffffffffffffff021916908373ffffffffffffffffffffffffffffffffffffffff16021790555061036e806100606000396000f3fe608060405234801561001057600080fd5b50600436106100365760003560e01c80632e1445791461003b5780638da5cb5b14610057575b600080fd5b61005560048036038101906100509190610210565b610075565b005b61005f610153565b60405161006c9190610272565b60405180910390f35b60008054906101000a900473ffffffffffffffffffffffffffffffffffffffff1673ffffffffffffffffffffffffffffffffffffffff163373ffffffffffffffffffffffffffffffffffffffff16146100cd57600080fd5b8273ffffffffffffffffffffffffffffffffffffffff166323b872dd8330846040518463ffffffff1660e01b815260040161010a9392919061029c565b6020604051808303816000875af1158015610129573d6000803e3d6000fd5b505050506040513d601f19601f8201168201806040525081019061014d919061030b565b50505050565b60008054906101000a900473ffffffffffffffffffffffffffffffffffffffff1681565b600080fd5b600073ffffffffffffffffffffffffffffffffffffffff82169050919050565b60006101a78261017c565b9050919050565b6101b78161019c565b81146101c257600080fd5b50565b6000813590506101d4816101ae565b92915050565b6000819050919050565b6101ed816101da565b81146101f857600080fd5b50565b60008135905061020a816101e4565b92915050565b60008060006060848603121561022957610228610177565b5b6000610237868287016101c5565b9350506020610248868287016101c5565b9250506040610259868287016101fb565b9150509250925092565b61026c8161019c565b82525050565b60006020820190506102876000830184610263565b92915050565b610296816101da565b82525050565b60006060820190506102b16000830186610263565b6102be6020830185610263565b6102cb604083018461028d565b949350505050565b60008115159050919050565b6102e8816102d3565b81146102f357600080fd5b50565b600081519050610305816102df565b92915050565b60006020828403121561032157610320610177565b5b600061032f848285016102f6565b9150509291505056fea2646970667358221220cd9e2d95e446dca4651de385be30615253fad7e281cc3f76eab170c8eadd2d5064736f6c63430008140033",
  "linkReferences": {},
  "deployedLinkReferences": {}
}