{
  "_format": "hh-sol-artifact-1",
  "contractName": "MyERC72_metadata",
  "sourceName": "contracts/13/MyERC721_metadate.sol",
  "abi": [
    {
      "inputs": [],
      "stateMutability": "nonpayable",
      "type": "constructor"
    },
    {
      "anonymous": false,
      "inputs": [
        {
          "indexed": true,
          "internalType": "address",
          "name": "owner",
          "type": "address"
        },
        {
          "indexed": true,
          "internalType": "address",
          "name": "approved",
          "type": "address"
        },
        {
          "indexed": true,
          "internalType": "uint256",
          "name": "tokenId",
          "type": "uint256"
        }
      ],
      "name": "Approval",
      "type": "event"
    },
    {
      "anonymous": false,
      "inputs": [
        {
          "indexed": true,
          "internalType": "address",
          "name": "owner",
          "type": "address"
        },
        {
          "indexed": true,
          "internalType": "address",
          "name": "operator",
          "type": "address"
        },
        {
          "indexed": false,
          "internalType": "bool",
          "name": "approved",
          "type": "bool"
        }
      ],
      "name": "ApprovalForAll",
      "type": "event"
    },
    {
      "anonymous": false,
      "inputs": [
        {
          "indexed": true,
          "internalType": "address",
          "name": "from",
          "type": "address"
        },
        {
          "indexed": true,
          "internalType": "address",
          "name": "to",
          "type": "address"
        },
        {
          "indexed": true,
          "internalType": "uint256",
          "name": "tokenId",
          "type": "uint256"
        }
      ],
      "name": "Transfer",
      "type": "event"
    },
    {
      "inputs": [],
      "name": "MAX_SUPPLY",
      "outputs": [
        {
          "internalType": "uint256",
          "name": "",
          "type": "uint256"
        }
      ],
      "stateMutability": "view",
      "type": "function"
    },
    {
      "inputs": [],
      "name": "MINT_PRICE",
      "outputs": [
        {
          "internalType": "uint256",
          "name": "",
          "type": "uint256"
        }
      ],
      "stateMutability": "view",
      "type": "function"
    },
    {
      "inputs": [
        {
          "internalType": "address",
          "name": "to",
          "type": "address"
        },
        {
          "internalType": "uint256",
          "name": "tokenId",
          "type": "uint256"
        }
      ],
      "name": "approve",
      "outputs": [],
      "stateMutability": "nonpayable",
      "type": "function"
    },
    {
      "inputs": [
        {
          "internalType": "address",
          "name": "owner_",
          "type": "address"
        }
      ],
      "name": "balanceOf",
      "outputs": [
        {
          "internalType": "uint256",
          "name": "",
          "type": "uint256"
        }
      ],
      "stateMutability": "view",
      "type": "function"
    },
    {
      "inputs": [],
      "name": "baseURI",
      "outputs": [
        {
          "internalType": "string",
          "name": "",
          "type": "string"
        }
      ],
      "stateMutability": "view",
      "type": "function"
    },
    {
      "inputs": [
        {
          "internalType": "uint256",
          "name": "tokenId",
          "type": "uint256"
        }
      ],
      "name": "getApproved",
      "outputs": [
        {
          "internalType": "address",
          "name": "",
          "type": "address"
        }
      ],
      "stateMutability": "view",
      "type": "function"
    },
    {
      "inputs": [
        {
          "internalType": "address",
          "name": "tokenOwner",
          "type": "address"
        },
        {
          "internalType": "address",
          "name": "operator",
          "type": "address"
        }
      ],
      "name": "isApprovedForAll",
      "outputs": [
        {
          "internalType": "bool",
          "name": "",
          "type": "bool"
        }
      ],
      "stateMutability": "view",
      "type": "function"
    },
    {
      "inputs": [],
      "name": "mint",
      "outputs": [],
      "stateMutability": "payable",
      "type": "function"
    },
    {
      "inputs": [],
      "name": "name",
      "outputs": [
        {
          "internalType": "string",
          "name": "",
          "type": "string"
        }
      ],
      "stateMutability": "view",
      "type": "function"
    },
    {
      "inputs": [],
      "name": "owner",
      "outputs": [
        {
          "internalType": "address",
          "name": "",
          "type": "address"
        }
      ],
      "stateMutability": "view",
      "type": "function"
    },
    {
      "inputs": [
        {
          "internalType": "uint256",
          "name": "tokenId",
          "type": "uint256"
        }
      ],
      "name": "ownerOf",
      "outputs": [
        {
          "internalType": "address",
          "name": "",
          "type": "address"
        }
      ],
      "stateMutability": "view",
      "type": "function"
    },
    {
      "inputs": [
        {
          "internalType": "address",
          "name": "from",
          "type": "address"
        },
        {
          "internalType": "address",
          "name": "to",
          "type": "address"
        },
        {
          "internalType": "uint256",
          "name": "tokenId",
          "type": "uint256"
        }
      ],
      "name": "safeTransferFrom",
      "outputs": [],
      "stateMutability": "nonpayable",
      "type": "function"
    },
    {
      "inputs": [
        {
          "internalType": "address",
          "name": "from",
          "type": "address"
        },
        {
          "internalType": "address",
          "name": "to",
          "type": "address"
        },
        {
          "internalType": "uint256",
          "name": "tokenId",
          "type": "uint256"
        },
        {
          "internalType": "bytes",
          "name": "data",
          "type": "bytes"
        }
      ],
      "name": "safeTransferFrom",
      "outputs": [],
      "stateMutability": "nonpayable",
      "type": "function"
    },
    {
      "inputs": [
        {
          "internalType": "address",
          "name": "operator",
          "type": "address"
        },
        {
          "internalType": "bool",
          "name": "approved",
          "type": "bool"
        }
      ],
      "name": "setApprovalForAll",
      "outputs": [],
      "stateMutability": "nonpayable",
      "type": "function"
    },
    {
      "inputs": [
        {
          "internalType": "string",
          "name": "newBaseURI",
          "type": "string"
        }
      ],
      "name": "setBaseURI",
      "outputs": [],
      "stateMutability": "nonpayable",
      "type": "function"
    },
    {
      "inputs": [
        {
          "internalType": "uint256",
          "name": "tokenId",
          "type": "uint256"
        },
        {
          "internalType": "string",
          "name": "uri",
          "type": "string"
        }
      ],
      "name": "setTokenURI",
      "outputs": [],
      "stateMutability": "nonpayable",
      "type": "function"
    },
    {
      "inputs": [],
      "name": "symbol",
      "outputs": [
        {
          "internalType": "string",
          "name": "",
          "type": "string"
        }
      ],
      "stateMutability": "view",
      "type": "function"
    },
    {
      "inputs": [
        {
          "internalType": "uint256",
          "name": "tokenId",
          "type": "uint256"
        }
      ],
      "name": "tokenURI",
      "outputs": [
        {
          "internalType": "string",
          "name": "",
          "type": "string"
        }
      ],
      "stateMutability": "view",
      "type": "function"
    },
    {
      "inputs": [],
      "name": "totalSupply",
      "outputs": [
        {
          "internalType": "uint256",
          "name": "",
          "type": "uint256"
        }
      ],
      "stateMutability": "view",
      "type": "function"
    }
  ],
  "bytecode": "0x608060405260016002553480156200001657600080fd5b506040518060400160405280600881526020017f4d79455243373231000000000000000000000000000000000000000000000000815250600090816200005d9190620003ad565b506040518060400160405280600581526020017f4d594e465400000000000000000000000000000000000000000000000000000081525060019081620000a49190620003ad565b5033600960006101000a81548173ffffffffffffffffffffffffffffffffffffffff021916908373ffffffffffffffffffffffffffffffffffffffff1602179055506040518060400160405280600781526020017f697066733a2f2f00000000000000000000000000000000000000000000000000815250600790816200012c9190620003ad565b5062000494565b600081519050919050565b7f4e487b7100000000000000000000000000000000000000000000000000000000600052604160045260246000fd5b7f4e487b7100000000000000000000000000000000000000000000000000000000600052602260045260246000fd5b60006002820490506001821680620001b557607f821691505b602082108103620001cb57620001ca6200016d565b5b50919050565b60008190508160005260206000209050919050565b60006020601f8301049050919050565b600082821b905092915050565b600060088302620002357fffffffffffffffffffffffffffffffffffffffffffffffffffffffffffffffff82620001f6565b620002418683620001f6565b95508019841693508086168417925050509392505050565b6000819050919050565b6000819050919050565b60006200028e62000288620002828462000259565b62000263565b62000259565b9050919050565b6000819050919050565b620002aa836200026d565b620002c2620002b98262000295565b84845462000203565b825550505050565b600090565b620002d9620002ca565b620002e68184846200029f565b505050565b5b818110156200030e5762000302600082620002cf565b600181019050620002ec565b5050565b601f8211156200035d576200032781620001d1565b6200033284620001e6565b8101602085101562000342578190505b6200035a6200035185620001e6565b830182620002eb565b50505b505050565b600082821c905092915050565b6000620003826000198460080262000362565b1980831691505092915050565b60006200039d83836200036f565b9150826002028217905092915050565b620003b88262000133565b67ffffffffffffffff811115620003d457620003d36200013e565b5b620003e082546200019c565b620003ed82828562000312565b600060209050601f83116001811462000425576000841562000410578287015190505b6200041c85826200038f565b8655506200048c565b601f1984166200043586620001d1565b60005b828110156200045f5784890151825560018201915060208501945060208101905062000438565b868310156200047f57848901516200047b601f8916826200036f565b8355505b6001600288020188555050505b505050505050565b612c3980620004a46000396000f3fe6080604052600436106101145760003560e01c80636352211e116100a0578063a22cb46511610064578063a22cb46514610380578063b88d4fde146103a9578063c002d23d146103d2578063c87b56dd146103fd578063e985e9c51461043a57610114565b80636352211e146102855780636c0360eb146102c257806370a08231146102ed5780638da5cb5b1461032a57806395d89b411461035557610114565b8063162094c4116100e7578063162094c4146101b457806318160ddd146101dd57806332cb6b0c1461020857806342842e0e1461023357806355f804b31461025c57610114565b806306fdde0314610119578063081812fc14610144578063095ea7b3146101815780631249c58b146101aa575b600080fd5b34801561012557600080fd5b5061012e610477565b60405161013b9190611b34565b60405180910390f35b34801561015057600080fd5b5061016b60048036038101906101669190611ba0565b610509565b6040516101789190611c0e565b60405180910390f35b34801561018d57600080fd5b506101a860048036038101906101a39190611c55565b610550565b005b6101b26106fc565b005b3480156101c057600080fd5b506101db60048036038101906101d69190611cfa565b6108b8565b005b3480156101e957600080fd5b506101f2610a7b565b6040516101ff9190611d69565b60405180910390f35b34801561021457600080fd5b5061021d610a91565b60405161022a9190611d69565b60405180910390f35b34801561023f57600080fd5b5061025a60048036038101906102559190611d84565b610a96565b005b34801561026857600080fd5b50610283600480360381019061027e9190611dd7565b610d24565b005b34801561029157600080fd5b506102ac60048036038101906102a79190611ba0565b610dca565b6040516102b99190611c0e565b60405180910390f35b3480156102ce57600080fd5b506102d7610e7b565b6040516102e49190611b34565b60405180910390f35b3480156102f957600080fd5b50610314600480360381019061030f9190611e24565b610f0d565b6040516103219190611d69565b60405180910390f35b34801561033657600080fd5b5061033f610fc4565b60405161034c9190611c0e565b60405180910390f35b34801561036157600080fd5b5061036a610fea565b6040516103779190611b34565b60405180910390f35b34801561038c57600080fd5b506103a760048036038101906103a29190611e89565b61107c565b005b3480156103b557600080fd5b506103d060048036038101906103cb9190611ff9565b6111e7565b005b3480156103de57600080fd5b506103e76114c1565b6040516103f49190611d69565b60405180910390f35b34801561040957600080fd5b50610424600480360381019061041f9190611ba0565b6114cc565b6040516104319190611b34565b60405180910390f35b34801561044657600080fd5b50610461600480360381019061045c919061207c565b611657565b60405161046e91906120cb565b60405180910390f35b60606000805461048690612115565b80601f01602080910402602001604051908101604052809291908181526020018280546104b290612115565b80156104ff5780601f106104d4576101008083540402835291602001916104ff565b820191906000526020600020905b8154815290600101906020018083116104e257829003601f168201915b5050505050905090565b600061051482610dca565b506005600083815260200190815260200160002060009054906101000a900473ffffffffffffffffffffffffffffffffffffffff169050919050565b600061055b82610dca565b90508073ffffffffffffffffffffffffffffffffffffffff168373ffffffffffffffffffffffffffffffffffffffff16036105cb576040517f08c379a00000000000000000000000000000000000000000000000000000000081526004016105c290612192565b60405180910390fd5b8073ffffffffffffffffffffffffffffffffffffffff163373ffffffffffffffffffffffffffffffffffffffff16148061060b575061060a8133611657565b5b61064a576040517f08c379a0000000000000000000000000000000000000000000000000000000008152600401610641906121fe565b60405180910390fd5b826005600084815260200190815260200160002060006101000a81548173ffffffffffffffffffffffffffffffffffffffff021916908373ffffffffffffffffffffffffffffffffffffffff160217905550818373ffffffffffffffffffffffffffffffffffffffff168273ffffffffffffffffffffffffffffffffffffffff167f8c5be1e5ebec7d5bd14f71427d1e84f3dd0314c0f7b2291e5b200ac8c7c3b92560405160405180910390a4505050565b66038d7ea4c680003414610745576040517f08c379a000000000000000000000000000000000000000000000000000000000815260040161073c9061226a565b60405180910390fd5b606461074f610a7b565b1061078f576040517f08c379a0000000000000000000000000000000000000000000000000000000008152600401610786906122d6565b60405180910390fd5b600060025490506001600260008282546107a99190612325565b925050819055506001600460003373ffffffffffffffffffffffffffffffffffffffff1673ffffffffffffffffffffffffffffffffffffffff16815260200190815260200160002060008282546108009190612325565b92505081905550336003600083815260200190815260200160002060006101000a81548173ffffffffffffffffffffffffffffffffffffffff021916908373ffffffffffffffffffffffffffffffffffffffff160217905550803373ffffffffffffffffffffffffffffffffffffffff16600073ffffffffffffffffffffffffffffffffffffffff167fddf252ad1be2c89b69c2b068fc378daa952ba7f163c4a11628f55a4df523b3ef60405160405180910390a450565b600073ffffffffffffffffffffffffffffffffffffffff166003600085815260200190815260200160002060009054906101000a900473ffffffffffffffffffffffffffffffffffffffff1673ffffffffffffffffffffffffffffffffffffffff160361095a576040517f08c379a0000000000000000000000000000000000000000000000000000000008152600401610951906123a5565b60405180910390fd5b6003600084815260200190815260200160002060009054906101000a900473ffffffffffffffffffffffffffffffffffffffff1673ffffffffffffffffffffffffffffffffffffffff163373ffffffffffffffffffffffffffffffffffffffff161480610a145750600960009054906101000a900473ffffffffffffffffffffffffffffffffffffffff1673ffffffffffffffffffffffffffffffffffffffff163373ffffffffffffffffffffffffffffffffffffffff16145b610a53576040517f08c379a0000000000000000000000000000000000000000000000000000000008152600401610a4a906121fe565b60405180910390fd5b8181600860008681526020019081526020016000209182610a7592919061257c565b50505050565b60006001600254610a8c919061264c565b905090565b606481565b610aa033826116eb565b610adf576040517f08c379a0000000000000000000000000000000000000000000000000000000008152600401610ad6906126cc565b60405180910390fd5b8273ffffffffffffffffffffffffffffffffffffffff16610aff82610dca565b73ffffffffffffffffffffffffffffffffffffffff1614610b55576040517f08c379a0000000000000000000000000000000000000000000000000000000008152600401610b4c90612738565b60405180910390fd5b600073ffffffffffffffffffffffffffffffffffffffff168273ffffffffffffffffffffffffffffffffffffffff1603610bc4576040517f08c379a0000000000000000000000000000000000000000000000000000000008152600401610bbb906127a4565b60405180910390fd5b6001600460008573ffffffffffffffffffffffffffffffffffffffff1673ffffffffffffffffffffffffffffffffffffffff1681526020019081526020016000206000828254610c14919061264c565b925050819055506001600460008473ffffffffffffffffffffffffffffffffffffffff1673ffffffffffffffffffffffffffffffffffffffff1681526020019081526020016000206000828254610c6b9190612325565b92505081905550816003600083815260200190815260200160002060006101000a81548173ffffffffffffffffffffffffffffffffffffffff021916908373ffffffffffffffffffffffffffffffffffffffff160217905550808273ffffffffffffffffffffffffffffffffffffffff168473ffffffffffffffffffffffffffffffffffffffff167fddf252ad1be2c89b69c2b068fc378daa952ba7f163c4a11628f55a4df523b3ef60405160405180910390a4505050565b600960009054906101000a900473ffffffffffffffffffffffffffffffffffffffff1673ffffffffffffffffffffffffffffffffffffffff163373ffffffffffffffffffffffffffffffffffffffff1614610db4576040517f08c379a0000000000000000000000000000000000000000000000000000000008152600401610dab90612810565b60405180910390fd5b818160079182610dc592919061257c565b505050565b6000806003600084815260200190815260200160002060009054906101000a900473ffffffffffffffffffffffffffffffffffffffff169050600073ffffffffffffffffffffffffffffffffffffffff168173ffffffffffffffffffffffffffffffffffffffff1603610e72576040517f08c379a0000000000000000000000000000000000000000000000000000000008152600401610e69906123a5565b60405180910390fd5b80915050919050565b606060078054610e8a90612115565b80601f0160208091040260200160405190810160405280929190818152602001828054610eb690612115565b8015610f035780601f10610ed857610100808354040283529160200191610f03565b820191906000526020600020905b815481529060010190602001808311610ee657829003601f168201915b5050505050905090565b60008073ffffffffffffffffffffffffffffffffffffffff168273ffffffffffffffffffffffffffffffffffffffff1603610f7d576040517f08c379a0000000000000000000000000000000000000000000000000000000008152600401610f749061287c565b60405180910390fd5b600460008373ffffffffffffffffffffffffffffffffffffffff1673ffffffffffffffffffffffffffffffffffffffff168152602001908152602001600020549050919050565b600960009054906101000a900473ffffffffffffffffffffffffffffffffffffffff1681565b606060018054610ff990612115565b80601f016020809104026020016040519081016040528092919081815260200182805461102590612115565b80156110725780601f1061104757610100808354040283529160200191611072565b820191906000526020600020905b81548152906001019060200180831161105557829003601f168201915b5050505050905090565b3373ffffffffffffffffffffffffffffffffffffffff168273ffffffffffffffffffffffffffffffffffffffff16036110ea576040517f08c379a00000000000000000000000000000000000000000000000000000000081526004016110e1906128e8565b60405180910390fd5b80600660003373ffffffffffffffffffffffffffffffffffffffff1673ffffffffffffffffffffffffffffffffffffffff16815260200190815260200160002060008473ffffffffffffffffffffffffffffffffffffffff1673ffffffffffffffffffffffffffffffffffffffff16815260200190815260200160002060006101000a81548160ff0219169083151502179055508173ffffffffffffffffffffffffffffffffffffffff163373ffffffffffffffffffffffffffffffffffffffff167f17307eab39ab6107e8899845ad3d59bd9653f200f220920489ca2b5937696c31836040516111db91906120cb565b60405180910390a35050565b6111f384848484611780565b611232576040517f08c379a000000000000000000000000000000000000000000000000000000000815260040161122990612954565b60405180910390fd5b61123c33836116eb565b61127b576040517f08c379a0000000000000000000000000000000000000000000000000000000008152600401611272906126cc565b60405180910390fd5b8373ffffffffffffffffffffffffffffffffffffffff1661129b83610dca565b73ffffffffffffffffffffffffffffffffffffffff16146112f1576040517f08c379a00000000000000000000000000000000000000000000000000000000081526004016112e890612738565b60405180910390fd5b600073ffffffffffffffffffffffffffffffffffffffff168373ffffffffffffffffffffffffffffffffffffffff1603611360576040517f08c379a0000000000000000000000000000000000000000000000000000000008152600401611357906127a4565b60405180910390fd5b6001600460008673ffffffffffffffffffffffffffffffffffffffff1673ffffffffffffffffffffffffffffffffffffffff16815260200190815260200160002060008282546113b0919061264c565b925050819055506001600460008573ffffffffffffffffffffffffffffffffffffffff1673ffffffffffffffffffffffffffffffffffffffff16815260200190815260200160002060008282546114079190612325565b92505081905550826003600084815260200190815260200160002060006101000a81548173ffffffffffffffffffffffffffffffffffffffff021916908373ffffffffffffffffffffffffffffffffffffffff160217905550818373ffffffffffffffffffffffffffffffffffffffff168573ffffffffffffffffffffffffffffffffffffffff167fddf252ad1be2c89b69c2b068fc378daa952ba7f163c4a11628f55a4df523b3ef60405160405180910390a450505050565b66038d7ea4c6800081565b6060600073ffffffffffffffffffffffffffffffffffffffff166003600084815260200190815260200160002060009054906101000a900473ffffffffffffffffffffffffffffffffffffffff1673ffffffffffffffffffffffffffffffffffffffff1603611570576040517f08c379a0000000000000000000000000000000000000000000000000000000008152600401611567906123a5565b60405180910390fd5b600060086000848152602001908152602001600020805461159090612115565b80601f01602080910402602001604051908101604052809291908181526020018280546115bc90612115565b80156116095780601f106115de57610100808354040283529160200191611609565b820191906000526020600020905b8154815290600101906020018083116115ec57829003601f168201915b505050505090506000815111156116235780915050611652565b600761162e84611883565b60405160200161163f929190612a7f565b6040516020818303038152906040529150505b919050565b6000600660008473ffffffffffffffffffffffffffffffffffffffff1673ffffffffffffffffffffffffffffffffffffffff16815260200190815260200160002060008373ffffffffffffffffffffffffffffffffffffffff1673ffffffffffffffffffffffffffffffffffffffff16815260200190815260200160002060009054906101000a900460ff16905092915050565b6000806116f783610dca565b90508073ffffffffffffffffffffffffffffffffffffffff168473ffffffffffffffffffffffffffffffffffffffff16148061176657508373ffffffffffffffffffffffffffffffffffffffff1661174e84610509565b73ffffffffffffffffffffffffffffffffffffffff16145b8061177757506117768185611657565b5b91505092915050565b6000808473ffffffffffffffffffffffffffffffffffffffff163b036117a9576001905061187b565b60008473ffffffffffffffffffffffffffffffffffffffff1663150b7a02338887876040518563ffffffff1660e01b81526004016117ea9493929190612b03565b6020604051808303816000875af1158015611809573d6000803e3d6000fd5b505050506040513d601f19601f8201168201806040525081019061182d9190612ba7565b905063150b7a0260e01b7bffffffffffffffffffffffffffffffffffffffffffffffffffffffff1916817bffffffffffffffffffffffffffffffffffffffffffffffffffffffff1916149150505b949350505050565b60606000600161189284611951565b01905060008167ffffffffffffffff8111156118b1576118b0611ece565b5b6040519080825280601f01601f1916602001820160405280156118e35781602001600182028036833780820191505090505b509050600082602001820190505b600115611946578080600190039150507f3031323334353637383961626364656600000000000000000000000000000000600a86061a8153600a858161193a57611939612bd4565b5b049450600085036118f1575b819350505050919050565b600080600090507a184f03e93ff9f4daa797ed6e38ed64bf6a1f01000000000000000083106119af577a184f03e93ff9f4daa797ed6e38ed64bf6a1f01000000000000000083816119a5576119a4612bd4565b5b0492506040810190505b6d04ee2d6d415b85acef810000000083106119ec576d04ee2d6d415b85acef810000000083816119e2576119e1612bd4565b5b0492506020810190505b662386f26fc100008310611a1b57662386f26fc100008381611a1157611a10612bd4565b5b0492506010810190505b6305f5e1008310611a44576305f5e1008381611a3a57611a39612bd4565b5b0492506008810190505b6127108310611a69576127108381611a5f57611a5e612bd4565b5b0492506004810190505b60648310611a8c5760648381611a8257611a81612bd4565b5b0492506002810190505b600a8310611a9b576001810190505b80915050919050565b600081519050919050565b600082825260208201905092915050565b60005b83811015611ade578082015181840152602081019050611ac3565b60008484015250505050565b6000601f19601f8301169050919050565b6000611b0682611aa4565b611b108185611aaf565b9350611b20818560208601611ac0565b611b2981611aea565b840191505092915050565b60006020820190508181036000830152611b4e8184611afb565b905092915050565b6000604051905090565b600080fd5b600080fd5b6000819050919050565b611b7d81611b6a565b8114611b8857600080fd5b50565b600081359050611b9a81611b74565b92915050565b600060208284031215611bb657611bb5611b60565b5b6000611bc484828501611b8b565b91505092915050565b600073ffffffffffffffffffffffffffffffffffffffff82169050919050565b6000611bf882611bcd565b9050919050565b611c0881611bed565b82525050565b6000602082019050611c236000830184611bff565b92915050565b611c3281611bed565b8114611c3d57600080fd5b50565b600081359050611c4f81611c29565b92915050565b60008060408385031215611c6c57611c6b611b60565b5b6000611c7a85828601611c40565b9250506020611c8b85828601611b8b565b9150509250929050565b600080fd5b600080fd5b600080fd5b60008083601f840112611cba57611cb9611c95565b5b8235905067ffffffffffffffff811115611cd757611cd6611c9a565b5b602083019150836001820283011115611cf357611cf2611c9f565b5b9250929050565b600080600060408486031215611d1357611d12611b60565b5b6000611d2186828701611b8b565b935050602084013567ffffffffffffffff811115611d4257611d41611b65565b5b611d4e86828701611ca4565b92509250509250925092565b611d6381611b6a565b82525050565b6000602082019050611d7e6000830184611d5a565b92915050565b600080600060608486031215611d9d57611d9c611b60565b5b6000611dab86828701611c40565b9350506020611dbc86828701611c40565b9250506040611dcd86828701611b8b565b9150509250925092565b60008060208385031215611dee57611ded611b60565b5b600083013567ffffffffffffffff811115611e0c57611e0b611b65565b5b611e1885828601611ca4565b92509250509250929050565b600060208284031215611e3a57611e39611b60565b5b6000611e4884828501611c40565b91505092915050565b60008115159050919050565b611e6681611e51565b8114611e7157600080fd5b50565b600081359050611e8381611e5d565b92915050565b60008060408385031215611ea057611e9f611b60565b5b6000611eae85828601611c40565b9250506020611ebf85828601611e74565b9150509250929050565b600080fd5b7f4e487b7100000000000000000000000000000000000000000000000000000000600052604160045260246000fd5b611f0682611aea565b810181811067ffffffffffffffff82111715611f2557611f24611ece565b5b80604052505050565b6000611f38611b56565b9050611f448282611efd565b919050565b600067ffffffffffffffff821115611f6457611f63611ece565b5b611f6d82611aea565b9050602081019050919050565b82818337600083830152505050565b6000611f9c611f9784611f49565b611f2e565b905082815260208101848484011115611fb857611fb7611ec9565b5b611fc3848285611f7a565b509392505050565b600082601f830112611fe057611fdf611c95565b5b8135611ff0848260208601611f89565b91505092915050565b6000806000806080858703121561201357612012611b60565b5b600061202187828801611c40565b945050602061203287828801611c40565b935050604061204387828801611b8b565b925050606085013567ffffffffffffffff81111561206457612063611b65565b5b61207087828801611fcb565b91505092959194509250565b6000806040838503121561209357612092611b60565b5b60006120a185828601611c40565b92505060206120b285828601611c40565b9150509250929050565b6120c581611e51565b82525050565b60006020820190506120e060008301846120bc565b92915050565b7f4e487b7100000000000000000000000000000000000000000000000000000000600052602260045260246000fd5b6000600282049050600182168061212d57607f821691505b6020821081036121405761213f6120e6565b5b50919050565b7f417070726f766520746f2063757272656e74206f776e65720000000000000000600082015250565b600061217c601883611aaf565b915061218782612146565b602082019050919050565b600060208201905081810360008301526121ab8161216f565b9050919050565b7f4e6f7420617574686f72697a6564000000000000000000000000000000000000600082015250565b60006121e8600e83611aaf565b91506121f3826121b2565b602082019050919050565b60006020820190508181036000830152612217816121db565b9050919050565b7f4d696e7420707269636520697320302e30303120455448000000000000000000600082015250565b6000612254601783611aaf565b915061225f8261221e565b602082019050919050565b6000602082019050818103600083015261228381612247565b9050919050565b7f4d617820737570706c7920726561636865640000000000000000000000000000600082015250565b60006122c0601283611aaf565b91506122cb8261228a565b602082019050919050565b600060208201905081810360008301526122ef816122b3565b9050919050565b7f4e487b7100000000000000000000000000000000000000000000000000000000600052601160045260246000fd5b600061233082611b6a565b915061233b83611b6a565b9250828201905080821115612353576123526122f6565b5b92915050565b7f546f6b656e20646f6573206e6f74206578697374000000000000000000000000600082015250565b600061238f601483611aaf565b915061239a82612359565b602082019050919050565b600060208201905081810360008301526123be81612382565b9050919050565b600082905092915050565b60008190508160005260206000209050919050565b60006020601f8301049050919050565b600082821b905092915050565b6000600883026124327fffffffffffffffffffffffffffffffffffffffffffffffffffffffffffffffff826123f5565b61243c86836123f5565b95508019841693508086168417925050509392505050565b6000819050919050565b600061247961247461246f84611b6a565b612454565b611b6a565b9050919050565b6000819050919050565b6124938361245e565b6124a761249f82612480565b848454612402565b825550505050565b600090565b6124bc6124af565b6124c781848461248a565b505050565b5b818110156124eb576124e06000826124b4565b6001810190506124cd565b5050565b601f82111561253057612501816123d0565b61250a846123e5565b81016020851015612519578190505b61252d612525856123e5565b8301826124cc565b50505b505050565b600082821c905092915050565b600061255360001984600802612535565b1980831691505092915050565b600061256c8383612542565b9150826002028217905092915050565b61258683836123c5565b67ffffffffffffffff81111561259f5761259e611ece565b5b6125a98254612115565b6125b48282856124ef565b6000601f8311600181146125e357600084156125d1578287013590505b6125db8582612560565b865550612643565b601f1984166125f1866123d0565b60005b82811015612619578489013582556001820191506020850194506020810190506125f4565b868310156126365784890135612632601f891682612542565b8355505b6001600288020188555050505b50505050505050565b600061265782611b6a565b915061266283611b6a565b925082820390508181111561267a576126796122f6565b5b92915050565b7f4e6f74206f776e6572206e6f7220617070726f76656400000000000000000000600082015250565b60006126b6601683611aaf565b91506126c182612680565b602082019050919050565b600060208201905081810360008301526126e5816126a9565b9050919050565b7f57726f6e672066726f6d00000000000000000000000000000000000000000000600082015250565b6000612722600a83611aaf565b915061272d826126ec565b602082019050919050565b6000602082019050818103600083015261275181612715565b9050919050565b7f5472616e7366657220746f207a65726f00000000000000000000000000000000600082015250565b600061278e601083611aaf565b915061279982612758565b602082019050919050565b600060208201905081810360008301526127bd81612781565b9050919050565b7f4e6f74206f776e65720000000000000000000000000000000000000000000000600082015250565b60006127fa600983611aaf565b9150612805826127c4565b602082019050919050565b60006020820190508181036000830152612829816127ed565b9050919050565b7f5a65726f20616464726573730000000000000000000000000000000000000000600082015250565b6000612866600c83611aaf565b915061287182612830565b602082019050919050565b6000602082019050818103600083015261289581612859565b9050919050565b7f417070726f766520746f2063616c6c6572000000000000000000000000000000600082015250565b60006128d2601183611aaf565b91506128dd8261289c565b602082019050919050565b60006020820190508181036000830152612901816128c5565b9050919050565b7f556e7361666520726563697069656e7400000000000000000000000000000000600082015250565b600061293e601083611aaf565b915061294982612908565b602082019050919050565b6000602082019050818103600083015261296d81612931565b9050919050565b600081905092915050565b6000815461298c81612115565b6129968186612974565b945060018216600081146129b157600181146129c6576129f9565b60ff19831686528115158202860193506129f9565b6129cf856123d0565b60005b838110156129f1578154818901526001820191506020810190506129d2565b838801955050505b50505092915050565b6000612a0d82611aa4565b612a178185612974565b9350612a27818560208601611ac0565b80840191505092915050565b7f2e6a736f6e000000000000000000000000000000000000000000000000000000600082015250565b6000612a69600583612974565b9150612a7482612a33565b600582019050919050565b6000612a8b828561297f565b9150612a978284612a02565b9150612aa282612a5c565b91508190509392505050565b600081519050919050565b600082825260208201905092915050565b6000612ad582612aae565b612adf8185612ab9565b9350612aef818560208601611ac0565b612af881611aea565b840191505092915050565b6000608082019050612b186000830187611bff565b612b256020830186611bff565b612b326040830185611d5a565b8181036060830152612b448184612aca565b905095945050505050565b60007fffffffff0000000000000000000000000000000000000000000000000000000082169050919050565b612b8481612b4f565b8114612b8f57600080fd5b50565b600081519050612ba181612b7b565b92915050565b600060208284031215612bbd57612bbc611b60565b5b6000612bcb84828501612b92565b91505092915050565b7f4e487b7100000000000000000000000000000000000000000000000000000000600052601260045260246000fdfea264697066735822122056f8012bf6ac92b5c7c88800702553f844658062c9440a8abb483122159d365964736f6c63430008140033",
  "linkReferences": {},
  "deployedLinkReferences": {}
}