{
  "_format": "hh-sol-artifact-1",
  "contractName": "Reentryattack_bank",
  "sourceName": "contracts/12/reentryattack_bank.sol",
  "abi": [
    {
      "anonymous": false,
      "inputs": [
        {
          "indexed": true,
          "internalType": "address",
          "name": "user",
          "type": "address"
        },
        {
          "indexed": false,
          "internalType": "uint256",
          "name": "amount",
          "type": "uint256"
        }
      ],
      "name": "Deposit",
      "type": "event"
    },
    {
      "anonymous": false,
      "inputs": [
        {
          "indexed": true,
          "internalType": "address",
          "name": "user",
          "type": "address"
        },
        {
          "indexed": false,
          "internalType": "uint256",
          "name": "amount",
          "type": "uint256"
        }
      ],
      "name": "Withdraw",
      "type": "event"
    },
    {
      "inputs": [],
      "name": "deposit",
      "outputs": [],
      "stateMutability": "payable",
      "type": "function"
    },
    {
      "inputs": [
        {
          "internalType": "address",
          "name": "",
          "type": "address"
        }
      ],
      "name": "deposits",
      "outputs": [
        {
          "internalType": "uint256",
          "name": "",
          "type": "uint256"
        }
      ],
      "stateMutability": "view",
      "type": "function"
    },
    {
      "inputs": [],
      "name": "withdraw",
      "outputs": [],
      "stateMutability": "nonpayable",
      "type": "function"
    }
  ],
  "bytecode": "0x608060405234801561001057600080fd5b506104a5806100206000396000f3fe6080604052600436106100345760003560e01c80633ccfd60b14610039578063d0e30db014610050578063fc7e286d1461005a575b600080fd5b34801561004557600080fd5b5061004e610097565b005b6100586101c8565b005b34801561006657600080fd5b50610081600480360381019061007c91906102e8565b61026d565b60405161008e919061032e565b60405180910390f35b60003373ffffffffffffffffffffffffffffffffffffffff166000803373ffffffffffffffffffffffffffffffffffffffff1673ffffffffffffffffffffffffffffffffffffffff168152602001908152602001600020546040516100fb9061037a565b60006040518083038185875af1925050503d8060008114610138576040519150601f19603f3d011682016040523d82523d6000602084013e61013d565b606091505b5050905080610181576040517f08c379a0000000000000000000000000000000000000000000000000000000008152600401610178906103ec565b60405180910390fd5b60008060003373ffffffffffffffffffffffffffffffffffffffff1673ffffffffffffffffffffffffffffffffffffffff1681526020019081526020016000208190555050565b346000803373ffffffffffffffffffffffffffffffffffffffff1673ffffffffffffffffffffffffffffffffffffffff1681526020019081526020016000206000828254610216919061043b565b925050819055503373ffffffffffffffffffffffffffffffffffffffff167fe1fffcc4923d04b559f4d29a8bfc6cda04eb5b0d3c460751c2402c5c5cc9109c34604051610263919061032e565b60405180910390a2565b60006020528060005260406000206000915090505481565b600080fd5b600073ffffffffffffffffffffffffffffffffffffffff82169050919050565b60006102b58261028a565b9050919050565b6102c5816102aa565b81146102d057600080fd5b50565b6000813590506102e2816102bc565b92915050565b6000602082840312156102fe576102fd610285565b5b600061030c848285016102d3565b91505092915050565b6000819050919050565b61032881610315565b82525050565b6000602082019050610343600083018461031f565b92915050565b600081905092915050565b50565b6000610364600083610349565b915061036f82610354565b600082019050919050565b600061038582610357565b9150819050919050565b600082825260208201905092915050565b7f4661696c65640000000000000000000000000000000000000000000000000000600082015250565b60006103d660068361038f565b91506103e1826103a0565b602082019050919050565b60006020820190508181036000830152610405816103c9565b9050919050565b7f4e487b7100000000000000000000000000000000000000000000000000000000600052601160045260246000fd5b600061044682610315565b915061045183610315565b92508282019050808211156104695761046861040c565b5b9291505056fea264697066735822122059231b8e0c1f9ab4cdb4ef58d8e832485a8f3b75c4aa3be70483ab17beb5f06164736f6c63430008140033",
  "linkReferences": {},
  "deployedLinkReferences": {}
}