{
  "_format": "hh-sol-artifact-1",
  "contractName": "SimpleBank1",
  "sourceName": "contracts/11/simpleBank_with_crendentials.sol",
  "abi": [
    {
      "inputs": [
        {
          "internalType": "address",
          "name": "token_addr",
          "type": "address"
        },
        {
          "internalType": "address",
          "name": "btoken_addr",
          "type": "address"
        }
      ],
      "stateMutability": "nonpayable",
      "type": "constructor"
    },
    {
      "inputs": [],
      "name": "_token",
      "outputs": [
        {
          "internalType": "address",
          "name": "",
          "type": "address"
        }
      ],
      "stateMutability": "view",
      "type": "function"
    },
    {
      "inputs": [],
      "name": "b_token",
      "outputs": [
        {
          "internalType": "address",
          "name": "",
          "type": "address"
        }
      ],
      "stateMutability": "view",
      "type": "function"
    },
    {
      "inputs": [
        {
          "internalType": "uint256",
          "name": "amount",
          "type": "uint256"
        }
      ],
      "name": "deposit",
      "outputs": [],
      "stateMutability": "nonpayable",
      "type": "function"
    },
    {
      "inputs": [
        {
          "internalType": "address",
          "name": "",
          "type": "address"
        }
      ],
      "name": "deposits",
      "outputs": [
        {
          "internalType": "uint256",
          "name": "",
          "type": "uint256"
        }
      ],
      "stateMutability": "view",
      "type": "function"
    },
    {
      "inputs": [],
      "name": "owner_",
      "outputs": [
        {
          "internalType": "address",
          "name": "",
          "type": "address"
        }
      ],
      "stateMutability": "view",
      "type": "function"
    },
    {
      "inputs": [
        {
          "internalType": "uint256",
          "name": "amount",
          "type": "uint256"
        }
      ],
      "name": "withdraw",
      "outputs": [],
      "stateMutability": "nonpayable",
      "type": "function"
    }
  ],
  "bytecode": "0x608060405234801561001057600080fd5b50604051610a05380380610a058339818101604052810190610032919061011d565b816000806101000a81548173ffffffffffffffffffffffffffffffffffffffff021916908373ffffffffffffffffffffffffffffffffffffffff16021790555080600160006101000a81548173ffffffffffffffffffffffffffffffffffffffff021916908373ffffffffffffffffffffffffffffffffffffffff160217905550505061015d565b600080fd5b600073ffffffffffffffffffffffffffffffffffffffff82169050919050565b60006100ea826100bf565b9050919050565b6100fa816100df565b811461010557600080fd5b50565b600081519050610117816100f1565b92915050565b60008060408385031215610134576101336100ba565b5b600061014285828601610108565b925050602061015385828601610108565b9150509250929050565b6108998061016c6000396000f3fe608060405234801561001057600080fd5b50600436106100625760003560e01c80630f987ff8146100675780632e1a7d4d14610085578063b6b55f25146100a1578063e7663079146100bd578063ecd0c0c3146100db578063fc7e286d146100f9575b600080fd5b61006f610129565b60405161007c9190610584565b60405180910390f35b61009f600480360381019061009a91906105da565b61014f565b005b6100bb60048036038101906100b691906105da565b610358565b005b6100c56104e1565b6040516100d29190610584565b60405180910390f35b6100e3610507565b6040516100f09190610584565b60405180910390f35b610113600480360381019061010e9190610633565b61052b565b604051610120919061066f565b60405180910390f35b600160009054906101000a900473ffffffffffffffffffffffffffffffffffffffff1681565b80600360003373ffffffffffffffffffffffffffffffffffffffff1673ffffffffffffffffffffffffffffffffffffffff1681526020019081526020016000205410156101d1576040517f08c379a00000000000000000000000000000000000000000000000000000000081526004016101c8906106e7565b60405180910390fd5b80600360003373ffffffffffffffffffffffffffffffffffffffff1673ffffffffffffffffffffffffffffffffffffffff16815260200190815260200160002060008282546102209190610736565b92505081905550600160009054906101000a900473ffffffffffffffffffffffffffffffffffffffff1673ffffffffffffffffffffffffffffffffffffffff16639dc29fac33836040518363ffffffff1660e01b815260040161028492919061076a565b600060405180830381600087803b15801561029e57600080fd5b505af11580156102b2573d6000803e3d6000fd5b5050505060008054906101000a900473ffffffffffffffffffffffffffffffffffffffff1673ffffffffffffffffffffffffffffffffffffffff1663a9059cbb33836040518363ffffffff1660e01b815260040161031192919061076a565b6020604051808303816000875af1158015610330573d6000803e3d6000fd5b505050506040513d601f19601f8201168201806040525081019061035491906107cb565b5050565b60008054906101000a900473ffffffffffffffffffffffffffffffffffffffff1673ffffffffffffffffffffffffffffffffffffffff166323b872dd3330846040518463ffffffff1660e01b81526004016103b5939291906107f8565b6020604051808303816000875af11580156103d4573d6000803e3d6000fd5b505050506040513d601f19601f820116820180604052508101906103f891906107cb565b50600160009054906101000a900473ffffffffffffffffffffffffffffffffffffffff1673ffffffffffffffffffffffffffffffffffffffff166340c10f1933836040518363ffffffff1660e01b815260040161045692919061076a565b600060405180830381600087803b15801561047057600080fd5b505af1158015610484573d6000803e3d6000fd5b5050505080600360003373ffffffffffffffffffffffffffffffffffffffff1673ffffffffffffffffffffffffffffffffffffffff16815260200190815260200160002060008282546104d7919061082f565b9250508190555050565b600260009054906101000a900473ffffffffffffffffffffffffffffffffffffffff1681565b60008054906101000a900473ffffffffffffffffffffffffffffffffffffffff1681565b60036020528060005260406000206000915090505481565b600073ffffffffffffffffffffffffffffffffffffffff82169050919050565b600061056e82610543565b9050919050565b61057e81610563565b82525050565b60006020820190506105996000830184610575565b92915050565b600080fd5b6000819050919050565b6105b7816105a4565b81146105c257600080fd5b50565b6000813590506105d4816105ae565b92915050565b6000602082840312156105f0576105ef61059f565b5b60006105fe848285016105c5565b91505092915050565b61061081610563565b811461061b57600080fd5b50565b60008135905061062d81610607565b92915050565b6000602082840312156106495761064861059f565b5b60006106578482850161061e565b91505092915050565b610669816105a4565b82525050565b60006020820190506106846000830184610660565b92915050565b600082825260208201905092915050565b7f696e73756666696369656e74206465706f736974000000000000000000000000600082015250565b60006106d160148361068a565b91506106dc8261069b565b602082019050919050565b60006020820190508181036000830152610700816106c4565b9050919050565b7f4e487b7100000000000000000000000000000000000000000000000000000000600052601160045260246000fd5b6000610741826105a4565b915061074c836105a4565b925082820390508181111561076457610763610707565b5b92915050565b600060408201905061077f6000830185610575565b61078c6020830184610660565b9392505050565b60008115159050919050565b6107a881610793565b81146107b357600080fd5b50565b6000815190506107c58161079f565b92915050565b6000602082840312156107e1576107e061059f565b5b60006107ef848285016107b6565b91505092915050565b600060608201905061080d6000830186610575565b61081a6020830185610575565b6108276040830184610660565b949350505050565b600061083a826105a4565b9150610845836105a4565b925082820190508082111561085d5761085c610707565b5b9291505056fea264697066735822122059108bb37d2c79ffdd435fea6dc2306f9d7949d3f0e751bad9b457abfff64f5064736f6c63430008140033",
  "linkReferences": {},
  "deployedLinkReferences": {}
}