{
  "_format": "hh-sol-artifact-1",
  "contractName": "Fallback_test",
  "sourceName": "contracts/8/fallback.sol",
  "abi": [
    {
      "stateMutability": "nonpayable",
      "type": "fallback"
    },
    {
      "inputs": [],
      "name": "count",
      "outputs": [
        {
          "internalType": "uint256",
          "name": "",
          "type": "uint256"
        }
      ],
      "stateMutability": "view",
      "type": "function"
    }
  ],
  "bytecode": "0x608060405234801561001057600080fd5b50610336806100206000396000f3fe608060405234801561001057600080fd5b506004361061002f5760003560e01c806306661abd146100ff57610030565b5b600080366000906004926100469392919061012d565b9061005191906101ac565b90507fb1f525c69a40a3b3a4dbb8c8955feb9dc66b6f3f7ac1f13b3d04e042b210ec4b7bffffffffffffffffffffffffffffffffffffffffffffffffffffffff1916817bffffffffffffffffffffffffffffffffffffffffffffffffffffffff1916036100fb576000803660049080926100cd9392919061012d565b8101906100da9190610246565b9050806000808282546100ed91906102a2565b9250508190555050506100fd565b505b005b61010761011d565b60405161011491906102e5565b60405180910390f35b60005481565b600080fd5b600080fd5b6000808585111561014157610140610123565b5b8386111561015257610151610128565b5b6001850283019150848603905094509492505050565b600082905092915050565b60007fffffffff0000000000000000000000000000000000000000000000000000000082169050919050565b600082821b905092915050565b60006101b88383610168565b826101c38135610173565b92506004821015610203576101fe7fffffffff000000000000000000000000000000000000000000000000000000008360040360080261019f565b831692505b505092915050565b600080fd5b6000819050919050565b61022381610210565b811461022e57600080fd5b50565b6000813590506102408161021a565b92915050565b60006020828403121561025c5761025b61020b565b5b600061026a84828501610231565b91505092915050565b7f4e487b7100000000000000000000000000000000000000000000000000000000600052601160045260246000fd5b60006102ad82610210565b91506102b883610210565b92508282019050808211156102d0576102cf610273565b5b92915050565b6102df81610210565b82525050565b60006020820190506102fa60008301846102d6565b9291505056fea2646970667358221220557444ac0985e7c85cfbf064a3af93da4d244ed095e037c0cc131acd8566818964736f6c63430008140033",
  "linkReferences": {},
  "deployedLinkReferences": {}
}