{
  "_format": "hh-sol-artifact-1",
  "contractName": "ERC721A_14",
  "sourceName": "contracts/14/ERC721A.sol",
  "abi": [
    {
      "inputs": [],
      "stateMutability": "nonpayable",
      "type": "constructor"
    },
    {
      "inputs": [],
      "name": "ApprovalCallerNotOwnerNorApproved",
      "type": "error"
    },
    {
      "inputs": [],
      "name": "ApprovalQueryForNonexistentToken",
      "type": "error"
    },
    {
      "inputs": [],
      "name": "BalanceQueryForZeroAddress",
      "type": "error"
    },
    {
      "inputs": [],
      "name": "MintERC2309QuantityExceedsLimit",
      "type": "error"
    },
    {
      "inputs": [],
      "name": "MintToZeroAddress",
      "type": "error"
    },
    {
      "inputs": [],
      "name": "MintZeroQuantity",
      "type": "error"
    },
    {
      "inputs": [],
      "name": "NotCompatibleWithSpotMints",
      "type": "error"
    },
    {
      "inputs": [],
      "name": "OwnerQueryForNonexistentToken",
      "type": "error"
    },
    {
      "inputs": [],
      "name": "OwnershipNotInitializedForExtraData",
      "type": "error"
    },
    {
      "inputs": [],
      "name": "SequentialMintExceedsLimit",
      "type": "error"
    },
    {
      "inputs": [],
      "name": "SequentialUpToTooSmall",
      "type": "error"
    },
    {
      "inputs": [],
      "name": "SpotMintTokenIdTooSmall",
      "type": "error"
    },
    {
      "inputs": [],
      "name": "TokenAlreadyExists",
      "type": "error"
    },
    {
      "inputs": [],
      "name": "TransferCallerNotOwnerNorApproved",
      "type": "error"
    },
    {
      "inputs": [],
      "name": "TransferFromIncorrectOwner",
      "type": "error"
    },
    {
      "inputs": [],
      "name": "TransferToNonERC721ReceiverImplementer",
      "type": "error"
    },
    {
      "inputs": [],
      "name": "TransferToZeroAddress",
      "type": "error"
    },
    {
      "inputs": [],
      "name": "URIQueryForNonexistentToken",
      "type": "error"
    },
    {
      "anonymous": false,
      "inputs": [
        {
          "indexed": true,
          "internalType": "address",
          "name": "owner",
          "type": "address"
        },
        {
          "indexed": true,
          "internalType": "address",
          "name": "approved",
          "type": "address"
        },
        {
          "indexed": true,
          "internalType": "uint256",
          "name": "tokenId",
          "type": "uint256"
        }
      ],
      "name": "Approval",
      "type": "event"
    },
    {
      "anonymous": false,
      "inputs": [
        {
          "indexed": true,
          "internalType": "address",
          "name": "owner",
          "type": "address"
        },
        {
          "indexed": true,
          "internalType": "address",
          "name": "operator",
          "type": "address"
        },
        {
          "indexed": false,
          "internalType": "bool",
          "name": "approved",
          "type": "bool"
        }
      ],
      "name": "ApprovalForAll",
      "type": "event"
    },
    {
      "anonymous": false,
      "inputs": [
        {
          "indexed": true,
          "internalType": "uint256",
          "name": "fromTokenId",
          "type": "uint256"
        },
        {
          "indexed": false,
          "internalType": "uint256",
          "name": "toTokenId",
          "type": "uint256"
        },
        {
          "indexed": true,
          "internalType": "address",
          "name": "from",
          "type": "address"
        },
        {
          "indexed": true,
          "internalType": "address",
          "name": "to",
          "type": "address"
        }
      ],
      "name": "ConsecutiveTransfer",
      "type": "event"
    },
    {
      "anonymous": false,
      "inputs": [
        {
          "indexed": true,
          "internalType": "address",
          "name": "from",
          "type": "address"
        },
        {
          "indexed": true,
          "internalType": "address",
          "name": "to",
          "type": "address"
        },
        {
          "indexed": true,
          "internalType": "uint256",
          "name": "tokenId",
          "type": "uint256"
        }
      ],
      "name": "Transfer",
      "type": "event"
    },
    {
      "inputs": [
        {
          "internalType": "address",
          "name": "to",
          "type": "address"
        },
        {
          "internalType": "uint256",
          "name": "tokenId",
          "type": "uint256"
        }
      ],
      "name": "approve",
      "outputs": [],
      "stateMutability": "payable",
      "type": "function"
    },
    {
      "inputs": [
        {
          "internalType": "address",
          "name": "owner",
          "type": "address"
        }
      ],
      "name": "balanceOf",
      "outputs": [
        {
          "internalType": "uint256",
          "name": "",
          "type": "uint256"
        }
      ],
      "stateMutability": "view",
      "type": "function"
    },
    {
      "inputs": [
        {
          "internalType": "uint256",
          "name": "tokenId",
          "type": "uint256"
        }
      ],
      "name": "getApproved",
      "outputs": [
        {
          "internalType": "address",
          "name": "",
          "type": "address"
        }
      ],
      "stateMutability": "view",
      "type": "function"
    },
    {
      "inputs": [
        {
          "internalType": "address",
          "name": "owner",
          "type": "address"
        },
        {
          "internalType": "address",
          "name": "operator",
          "type": "address"
        }
      ],
      "name": "isApprovedForAll",
      "outputs": [
        {
          "internalType": "bool",
          "name": "",
          "type": "bool"
        }
      ],
      "stateMutability": "view",
      "type": "function"
    },
    {
      "inputs": [
        {
          "internalType": "uint256",
          "name": "quantity",
          "type": "uint256"
        }
      ],
      "name": "mint",
      "outputs": [],
      "stateMutability": "payable",
      "type": "function"
    },
    {
      "inputs": [],
      "name": "name",
      "outputs": [
        {
          "internalType": "string",
          "name": "",
          "type": "string"
        }
      ],
      "stateMutability": "view",
      "type": "function"
    },
    {
      "inputs": [
        {
          "internalType": "uint256",
          "name": "tokenId",
          "type": "uint256"
        }
      ],
      "name": "ownerOf",
      "outputs": [
        {
          "internalType": "address",
          "name": "",
          "type": "address"
        }
      ],
      "stateMutability": "view",
      "type": "function"
    },
    {
      "inputs": [
        {
          "internalType": "address",
          "name": "from",
          "type": "address"
        },
        {
          "internalType": "address",
          "name": "to",
          "type": "address"
        },
        {
          "internalType": "uint256",
          "name": "tokenId",
          "type": "uint256"
        }
      ],
      "name": "safeTransferFrom",
      "outputs": [],
      "stateMutability": "payable",
      "type": "function"
    },
    {
      "inputs": [
        {
          "internalType": "address",
          "name": "from",
          "type": "address"
        },
        {
          "internalType": "address",
          "name": "to",
          "type": "address"
        },
        {
          "internalType": "uint256",
          "name": "tokenId",
          "type": "uint256"
        },
        {
          "internalType": "bytes",
          "name": "_data",
          "type": "bytes"
        }
      ],
      "name": "safeTransferFrom",
      "outputs": [],
      "stateMutability": "payable",
      "type": "function"
    },
    {
      "inputs": [
        {
          "internalType": "address",
          "name": "operator",
          "type": "address"
        },
        {
          "internalType": "bool",
          "name": "approved",
          "type": "bool"
        }
      ],
      "name": "setApprovalForAll",
      "outputs": [],
      "stateMutability": "nonpayable",
      "type": "function"
    },
    {
      "inputs": [
        {
          "internalType": "bytes4",
          "name": "interfaceId",
          "type": "bytes4"
        }
      ],
      "name": "supportsInterface",
      "outputs": [
        {
          "internalType": "bool",
          "name": "",
          "type": "bool"
        }
      ],
      "stateMutability": "view",
      "type": "function"
    },
    {
      "inputs": [],
      "name": "symbol",
      "outputs": [
        {
          "internalType": "string",
          "name": "",
          "type": "string"
        }
      ],
      "stateMutability": "view",
      "type": "function"
    },
    {
      "inputs": [
        {
          "internalType": "uint256",
          "name": "tokenId",
          "type": "uint256"
        }
      ],
      "name": "tokenURI",
      "outputs": [
        {
          "internalType": "string",
          "name": "",
          "type": "string"
        }
      ],
      "stateMutability": "view",
      "type": "function"
    },
    {
      "inputs": [],
      "name": "totalSupply",
      "outputs": [
        {
          "internalType": "uint256",
          "name": "result",
          "type": "uint256"
        }
      ],
      "stateMutability": "view",
      "type": "function"
    },
    {
      "inputs": [
        {
          "internalType": "address",
          "name": "from",
          "type": "address"
        },
        {
          "internalType": "address",
          "name": "to",
          "type": "address"
        },
        {
          "internalType": "uint256",
          "name": "tokenId",
          "type": "uint256"
        }
      ],
      "name": "transferFrom",
      "outputs": [],
      "stateMutability": "payable",
      "type": "function"
    }
  ],
  "bytecode": "0x60806040523480156200001157600080fd5b506040518060400160405280600981526020017f4d794552433732314100000000000000000000000000000000000000000000008152506040518060400160405280600681526020017f4d594e465441000000000000000000000000000000000000000000000000000081525081600290816200008f9190620003b1565b508060039081620000a19190620003b1565b50620000b26200010060201b60201c565b600081905550620000c86200010060201b60201c565b620000d86200010560201b60201c565b1015620000f857620000f763fed8210f60e01b6200012d60201b60201c565b5b505062000498565b600090565b60007fffffffffffffffffffffffffffffffffffffffffffffffffffffffffffffffff905090565b8060005260046000fd5b600081519050919050565b7f4e487b7100000000000000000000000000000000000000000000000000000000600052604160045260246000fd5b7f4e487b7100000000000000000000000000000000000000000000000000000000600052602260045260246000fd5b60006002820490506001821680620001b957607f821691505b602082108103620001cf57620001ce62000171565b5b50919050565b60008190508160005260206000209050919050565b60006020601f8301049050919050565b600082821b905092915050565b600060088302620002397fffffffffffffffffffffffffffffffffffffffffffffffffffffffffffffffff82620001fa565b620002458683620001fa565b95508019841693508086168417925050509392505050565b6000819050919050565b6000819050919050565b6000620002926200028c62000286846200025d565b62000267565b6200025d565b9050919050565b6000819050919050565b620002ae8362000271565b620002c6620002bd8262000299565b84845462000207565b825550505050565b600090565b620002dd620002ce565b620002ea818484620002a3565b505050565b5b81811015620003125762000306600082620002d3565b600181019050620002f0565b5050565b601f82111562000361576200032b81620001d5565b6200033684620001ea565b8101602085101562000346578190505b6200035e6200035585620001ea565b830182620002ef565b50505b505050565b600082821c905092915050565b6000620003866000198460080262000366565b1980831691505092915050565b6000620003a1838362000373565b9150826002028217905092915050565b620003bc8262000137565b67ffffffffffffffff811115620003d857620003d762000142565b5b620003e48254620001a0565b620003f182828562000316565b600060209050601f83116001811462000429576000841562000414578287015190505b62000420858262000393565b86555062000490565b601f1984166200043986620001d5565b60005b8281101562000463578489015182556001820191506020850194506020810190506200043c565b868310156200048357848901516200047f601f89168262000373565b8355505b6001600288020188555050505b505050505050565b611b6580620004a86000396000f3fe6080604052600436106100e85760003560e01c80636352211e1161008a578063a22cb46511610059578063a22cb465146102d2578063b88d4fde146102fb578063c87b56dd14610317578063e985e9c514610354576100e8565b80636352211e1461021157806370a082311461024e57806395d89b411461028b578063a0712d68146102b6576100e8565b8063095ea7b3116100c6578063095ea7b31461019257806318160ddd146101ae57806323b872dd146101d957806342842e0e146101f5576100e8565b806301ffc9a7146100ed57806306fdde031461012a578063081812fc14610155575b600080fd5b3480156100f957600080fd5b50610114600480360381019061010f91906113e6565b610391565b604051610121919061142e565b60405180910390f35b34801561013657600080fd5b5061013f610423565b60405161014c91906114d9565b60405180910390f35b34801561016157600080fd5b5061017c60048036038101906101779190611531565b6104b5565b604051610189919061159f565b60405180910390f35b6101ac60048036038101906101a791906115e6565b610513565b005b3480156101ba57600080fd5b506101c3610523565b6040516101d09190611635565b60405180910390f35b6101f360048036038101906101ee9190611650565b610570565b005b61020f600480360381019061020a9190611650565b610831565b005b34801561021d57600080fd5b5061023860048036038101906102339190611531565b610851565b604051610245919061159f565b60405180910390f35b34801561025a57600080fd5b50610275600480360381019061027091906116a3565b610863565b6040516102829190611635565b60405180910390f35b34801561029757600080fd5b506102a06108fa565b6040516102ad91906114d9565b60405180910390f35b6102d060048036038101906102cb9190611531565b61098c565b005b3480156102de57600080fd5b506102f960048036038101906102f491906116fc565b610999565b005b61031560048036038101906103109190611871565b610aa4565b005b34801561032357600080fd5b5061033e60048036038101906103399190611531565b610af6565b60405161034b91906114d9565b60405180910390f35b34801561036057600080fd5b5061037b600480360381019061037691906118f4565b610b73565b604051610388919061142e565b60405180910390f35b60006301ffc9a760e01b827bffffffffffffffffffffffffffffffffffffffffffffffffffffffff191614806103ec57506380ac58cd60e01b827bffffffffffffffffffffffffffffffffffffffffffffffffffffffff1916145b8061041c5750635b5e139f60e01b827bffffffffffffffffffffffffffffffffffffffffffffffffffffffff1916145b9050919050565b60606002805461043290611963565b80601f016020809104026020016040519081016040528092919081815260200182805461045e90611963565b80156104ab5780601f10610480576101008083540402835291602001916104ab565b820191906000526020600020905b81548152906001019060200180831161048e57829003601f168201915b5050505050905090565b60006104c082610c07565b6104d5576104d463cf4700e460e01b610cb3565b5b6006600083815260200190815260200160002060000160009054906101000a900473ffffffffffffffffffffffffffffffffffffffff169050919050565b61051f82826001610cbd565b5050565b600061052d610dec565b600154600054030390507fffffffffffffffffffffffffffffffffffffffffffffffffffffffffffffffff610560610df1565b1461056d57600854810190505b90565b600061057b82610e19565b905073ffffffffffffffffffffffffffffffffffffffff8473ffffffffffffffffffffffffffffffffffffffff161693508373ffffffffffffffffffffffffffffffffffffffff168173ffffffffffffffffffffffffffffffffffffffff16146105f0576105ef63a114810060e01b610cb3565b5b6000806105fc84610f32565b91509150610612818761060d610f59565b610f61565b61063d5761062786610622610f59565b610b73565b61063c5761063b6359c896be60e01b610cb3565b5b5b61064a8686866001610fa5565b801561065557600082555b600560008773ffffffffffffffffffffffffffffffffffffffff1673ffffffffffffffffffffffffffffffffffffffff168152602001908152602001600020600081546001900391905081905550600560008673ffffffffffffffffffffffffffffffffffffffff1673ffffffffffffffffffffffffffffffffffffffff1681526020019081526020016000206000815460010191905081905550610723856106ff888887610fab565b7c020000000000000000000000000000000000000000000000000000000017610fd3565b600460008681526020019081526020016000208190555060007c02000000000000000000000000000000000000000000000000000000008416036107a957600060018501905060006004600083815260200190815260200160002054036107a75760005481146107a6578360046000838152602001908152602001600020819055505b5b505b600073ffffffffffffffffffffffffffffffffffffffff8673ffffffffffffffffffffffffffffffffffffffff161690508481887fddf252ad1be2c89b69c2b068fc378daa952ba7f163c4a11628f55a4df523b3ef600080a46000810361081b5761081a63ea553b3460e01b610cb3565b5b6108288787876001610ffe565b50505050505050565b61084c83838360405180602001604052806000815250610aa4565b505050565b600061085c82610e19565b9050919050565b60008073ffffffffffffffffffffffffffffffffffffffff168273ffffffffffffffffffffffffffffffffffffffff16036108a9576108a8638f4eb60460e01b610cb3565b5b67ffffffffffffffff600560008473ffffffffffffffffffffffffffffffffffffffff1673ffffffffffffffffffffffffffffffffffffffff16815260200190815260200160002054169050919050565b60606003805461090990611963565b80601f016020809104026020016040519081016040528092919081815260200182805461093590611963565b80156109825780601f1061095757610100808354040283529160200191610982565b820191906000526020600020905b81548152906001019060200180831161096557829003601f168201915b5050505050905090565b6109963382611004565b50565b80600760006109a6610f59565b73ffffffffffffffffffffffffffffffffffffffff1673ffffffffffffffffffffffffffffffffffffffff16815260200190815260200160002060008473ffffffffffffffffffffffffffffffffffffffff1673ffffffffffffffffffffffffffffffffffffffff16815260200190815260200160002060006101000a81548160ff0219169083151502179055508173ffffffffffffffffffffffffffffffffffffffff16610a53610f59565b73ffffffffffffffffffffffffffffffffffffffff167f17307eab39ab6107e8899845ad3d59bd9653f200f220920489ca2b5937696c3183604051610a98919061142e565b60405180910390a35050565b610aaf848484610570565b60008373ffffffffffffffffffffffffffffffffffffffff163b14610af057610ada8484848461118a565b610aef57610aee63d1a57ed660e01b610cb3565b5b5b50505050565b6060610b0182610c07565b610b1657610b1563a14c4b5060e01b610cb3565b5b6000610b206112b9565b90506000815103610b405760405180602001604052806000815250610b6b565b80610b4a846112d0565b604051602001610b5b9291906119d0565b6040516020818303038152906040525b915050919050565b6000600760008473ffffffffffffffffffffffffffffffffffffffff1673ffffffffffffffffffffffffffffffffffffffff16815260200190815260200160002060008373ffffffffffffffffffffffffffffffffffffffff1673ffffffffffffffffffffffffffffffffffffffff16815260200190815260200160002060009054906101000a900460ff16905092915050565b600081610c12610dec565b11610cad57610c1f610df1565b821115610c4957610c426004600084815260200190815260200160002054611320565b9050610cae565b600054821015610cac5760005b6000600460008581526020019081526020016000205491508103610c855782610c7e90611a23565b9250610c56565b60007c01000000000000000000000000000000000000000000000000000000008216149150505b5b5b919050565b8060005260046000fd5b6000610cc883610851565b9050818015610d0a57508073ffffffffffffffffffffffffffffffffffffffff16610cf1610f59565b73ffffffffffffffffffffffffffffffffffffffff1614155b15610d3657610d2081610d1b610f59565b610b73565b610d3557610d3463cfb3b94260e01b610cb3565b5b5b836006600085815260200190815260200160002060000160006101000a81548173ffffffffffffffffffffffffffffffffffffffff021916908373ffffffffffffffffffffffffffffffffffffffff160217905550828473ffffffffffffffffffffffffffffffffffffffff168273ffffffffffffffffffffffffffffffffffffffff167f8c5be1e5ebec7d5bd14f71427d1e84f3dd0314c0f7b2291e5b200ac8c7c3b92560405160405180910390a450505050565b600090565b60007fffffffffffffffffffffffffffffffffffffffffffffffffffffffffffffffff905090565b600081610e24610dec565b11610f1c5760046000838152602001908152602001600020549050610e47610df1565b821115610e6c57610e5781611320565b610f2d57610e6b63df2d9b4260e01b610cb3565b5b60008103610ef3576000548210610e8e57610e8d63df2d9b4260e01b610cb3565b5b5b60046000836001900393508381526020019081526020016000205490506000810315610eee5760007c010000000000000000000000000000000000000000000000000000000082160315610f2d57610eed63df2d9b4260e01b610cb3565b5b610e8f565b60007c010000000000000000000000000000000000000000000000000000000082160315610f2d575b610f2c63df2d9b4260e01b610cb3565b5b919050565b60008060006006600085815260200190815260200160002090508092508254915050915091565b600033905090565b600073ffffffffffffffffffffffffffffffffffffffff8316925073ffffffffffffffffffffffffffffffffffffffff821691508382148383141790509392505050565b50505050565b60008060e883901c905060e8610fc2868684611361565b62ffffff16901b9150509392505050565b600073ffffffffffffffffffffffffffffffffffffffff83169250814260a01b178317905092915050565b50505050565b600080549050600082036110235761102263b562e8dd60e01b610cb3565b5b6110306000848385610fa5565b611050836110416000866000610fab565b61104a8561136a565b17610fd3565b6004600083815260200190815260200160002081905550600160406001901b178202600560008573ffffffffffffffffffffffffffffffffffffffff1673ffffffffffffffffffffffffffffffffffffffff16815260200190815260200160002060008282540192505081905550600073ffffffffffffffffffffffffffffffffffffffff8473ffffffffffffffffffffffffffffffffffffffff161690506000810361110857611107632e07630060e01b610cb3565b5b60008383019050600083905061111c610df1565b600183031115611137576111366381647e3a60e01b610cb3565b5b5b808360007fddf252ad1be2c89b69c2b068fc378daa952ba7f163c4a11628f55a4df523b3ef600080a481816001019150810361113857816000819055505050506111856000848385610ffe565b505050565b60008373ffffffffffffffffffffffffffffffffffffffff1663150b7a026111b0610f59565b8786866040518563ffffffff1660e01b81526004016111d29493929190611aa1565b6020604051808303816000875af192505050801561120e57506040513d601f19601f8201168201806040525081019061120b9190611b02565b60015b611266573d806000811461123e576040519150601f19603f3d011682016040523d82523d6000602084013e611243565b606091505b50600081510361125e5761125d63d1a57ed660e01b610cb3565b5b805181602001fd5b63150b7a0260e01b7bffffffffffffffffffffffffffffffffffffffffffffffffffffffff1916817bffffffffffffffffffffffffffffffffffffffffffffffffffffffff191614915050949350505050565b606060405180602001604052806000815250905090565b606060a060405101806040526020810391506000825281835b60011561130b57600184039350600a81066030018453600a81049050806112e9575b50828103602084039350808452505050919050565b60007c0100000000000000000000000000000000000000000000000000000000821673ffffffffffffffffffffffffffffffffffffffff8316119050919050565b60009392505050565b60006001821460e11b9050919050565b6000604051905090565b600080fd5b600080fd5b60007fffffffff0000000000000000000000000000000000000000000000000000000082169050919050565b6113c38161138e565b81146113ce57600080fd5b50565b6000813590506113e0816113ba565b92915050565b6000602082840312156113fc576113fb611384565b5b600061140a848285016113d1565b91505092915050565b60008115159050919050565b61142881611413565b82525050565b6000602082019050611443600083018461141f565b92915050565b600081519050919050565b600082825260208201905092915050565b60005b83811015611483578082015181840152602081019050611468565b60008484015250505050565b6000601f19601f8301169050919050565b60006114ab82611449565b6114b58185611454565b93506114c5818560208601611465565b6114ce8161148f565b840191505092915050565b600060208201905081810360008301526114f381846114a0565b905092915050565b6000819050919050565b61150e816114fb565b811461151957600080fd5b50565b60008135905061152b81611505565b92915050565b60006020828403121561154757611546611384565b5b60006115558482850161151c565b91505092915050565b600073ffffffffffffffffffffffffffffffffffffffff82169050919050565b60006115898261155e565b9050919050565b6115998161157e565b82525050565b60006020820190506115b46000830184611590565b92915050565b6115c38161157e565b81146115ce57600080fd5b50565b6000813590506115e0816115ba565b92915050565b600080604083850312156115fd576115fc611384565b5b600061160b858286016115d1565b925050602061161c8582860161151c565b9150509250929050565b61162f816114fb565b82525050565b600060208201905061164a6000830184611626565b92915050565b60008060006060848603121561166957611668611384565b5b6000611677868287016115d1565b9350506020611688868287016115d1565b92505060406116998682870161151c565b9150509250925092565b6000602082840312156116b9576116b8611384565b5b60006116c7848285016115d1565b91505092915050565b6116d981611413565b81146116e457600080fd5b50565b6000813590506116f6816116d0565b92915050565b6000806040838503121561171357611712611384565b5b6000611721858286016115d1565b9250506020611732858286016116e7565b9150509250929050565b600080fd5b600080fd5b7f4e487b7100000000000000000000000000000000000000000000000000000000600052604160045260246000fd5b61177e8261148f565b810181811067ffffffffffffffff8211171561179d5761179c611746565b5b80604052505050565b60006117b061137a565b90506117bc8282611775565b919050565b600067ffffffffffffffff8211156117dc576117db611746565b5b6117e58261148f565b9050602081019050919050565b82818337600083830152505050565b600061181461180f846117c1565b6117a6565b9050828152602081018484840111156118305761182f611741565b5b61183b8482856117f2565b509392505050565b600082601f8301126118585761185761173c565b5b8135611868848260208601611801565b91505092915050565b6000806000806080858703121561188b5761188a611384565b5b6000611899878288016115d1565b94505060206118aa878288016115d1565b93505060406118bb8782880161151c565b925050606085013567ffffffffffffffff8111156118dc576118db611389565b5b6118e887828801611843565b91505092959194509250565b6000806040838503121561190b5761190a611384565b5b6000611919858286016115d1565b925050602061192a858286016115d1565b9150509250929050565b7f4e487b7100000000000000000000000000000000000000000000000000000000600052602260045260246000fd5b6000600282049050600182168061197b57607f821691505b60208210810361198e5761198d611934565b5b50919050565b600081905092915050565b60006119aa82611449565b6119b48185611994565b93506119c4818560208601611465565b80840191505092915050565b60006119dc828561199f565b91506119e8828461199f565b91508190509392505050565b7f4e487b7100000000000000000000000000000000000000000000000000000000600052601160045260246000fd5b6000611a2e826114fb565b915060008203611a4157611a406119f4565b5b600182039050919050565b600081519050919050565b600082825260208201905092915050565b6000611a7382611a4c565b611a7d8185611a57565b9350611a8d818560208601611465565b611a968161148f565b840191505092915050565b6000608082019050611ab66000830187611590565b611ac36020830186611590565b611ad06040830185611626565b8181036060830152611ae28184611a68565b905095945050505050565b600081519050611afc816113ba565b92915050565b600060208284031215611b1857611b17611384565b5b6000611b2684828501611aed565b9150509291505056fea2646970667358221220133ac68d4e47118378e8d723839edc5625e8b2e6029e6753beb888de3465bee564736f6c63430008140033",
  "linkReferences": {},
  "deployedLinkReferences": {}
}