{
  "_format": "hh-sol-artifact-1",
  "contractName": "InterfaceIdViewer",
  "sourceName": "contracts/9/interfaceId.sol",
  "abi": [
    {
      "inputs": [],
      "name": "erc20InterfaceId",
      "outputs": [
        {
          "internalType": "bytes4",
          "name": "",
          "type": "bytes4"
        }
      ],
      "stateMutability": "pure",
      "type": "function"
    },
    {
      "inputs": [],
      "name": "erc721InterfaceId",
      "outputs": [
        {
          "internalType": "bytes4",
          "name": "",
          "type": "bytes4"
        }
      ],
      "stateMutability": "pure",
      "type": "function"
    }
  ],
  "bytecode": "0x608060405234801561001057600080fd5b50610153806100206000396000f3fe608060405234801561001057600080fd5b50600436106100365760003560e01c8063a06296581461003b578063e256055114610059575b600080fd5b610043610077565b6040516100509190610102565b60405180910390f35b61006161009f565b60405161006e9190610102565b60405180910390f35b60007f36372b0700000000000000000000000000000000000000000000000000000000905090565b60007f80ac58cd00000000000000000000000000000000000000000000000000000000905090565b60007fffffffff0000000000000000000000000000000000000000000000000000000082169050919050565b6100fc816100c7565b82525050565b600060208201905061011760008301846100f3565b9291505056fea26469706673582212202b2ba383c1db50510ba2f81d5be82b6f8d8c3922ffffb0d75e55b2d6e8f3a28564736f6c63430008140033",
  "linkReferences": {},
  "deployedLinkReferences": {}
}