{
  "_format": "hh-sol-artifact-1",
  "contractName": "Receive_sample",
  "sourceName": "contracts/logic_receive.sol",
  "abi": [
    {
      "inputs": [],
      "name": "counter",
      "outputs": [
        {
          "internalType": "uint256",
          "name": "",
          "type": "uint256"
        }
      ],
      "stateMutability": "view",
      "type": "function"
    },
    {
      "stateMutability": "payable",
      "type": "receive"
    }
  ],
  "bytecode": "0x608060405234801561001057600080fd5b5061012e806100206000396000f3fe608060405260043610601f5760003560e01c806361bc221a14604057603b565b36603b5760016000808282546033919060a5565b925050819055005b600080fd5b348015604b57600080fd5b5060526066565b604051605d919060df565b60405180910390f35b60005481565b6000819050919050565b7f4e487b7100000000000000000000000000000000000000000000000000000000600052601160045260246000fd5b600060ae82606c565b915060b783606c565b925082820190508082111560cc5760cb6076565b5b92915050565b60d981606c565b82525050565b600060208201905060f2600083018460d2565b9291505056fea2646970667358221220eed23ed8db0e81092acf74a73bb83a39da5488b63a6837191f96823d47d6383064736f6c63430008140033",
  "linkReferences": {},
  "deployedLinkReferences": {}
}